:020000040000fa
:080000000001040000000000f3
:020000040000fa
:10000800ba0100009a0100009e010000a201000050
:10001800a6010000ba010000ba010000ba01000000
:10002800ba010000ba010000ba0100005a19000024
:10003800ba010000ba010000ba010000ba010000cc
:10004800ba010000ba010000ba010000ba010000bc
:10005800ba010000ba010000ba010000ba010000ac
:10006800ba010000ba010000ba010000ba0100009c
:10007800ba010000ba010000ba010000ba0100008c
:100088006221000082210000ba010000441500002e
:10009800ba010000ba010000ba010000ba0100006c
:1000a800ba010000ba010000ba010000ba0100005c
:1000b800ba010000ba010000ba010000ba0100004c
:1000c800ba010000ba010000ba010000ba0100003c
:1000d800ba010000ba010000ba010000ba0100002c
:1000e800ba010000ba010000ba010000ba0100001c
:0800f800ba010000ba0100008a
:020000040000fa
:10010800ba010000aa010000ae010000b20100001f
:10011800b6010000ba010000ba010000ba010000ef
:10012800ba010000ba010000ba0100005a19000023
:10013800ba010000ba010000ba010000ba010000cb
:10014800ba010000ba010000ba010000ba010000bb
:10015800ba010000ba010000ba010000ba010000ab
:10016800ba010000ba010000ba010000ba0100009b
:10017800ba010000ba010000ba010000ba0100008b
:100188006221000082210000ba010000441500002d
:10019800ba010000ba010000ba010000ba0100006b
:1001a800ba010000ba010000ba010000ba0100005b
:1001b800ba010000ba010000ba010000ba0100004b
:1001c800ba010000ba010000ba010000ba0100003b
:1001d800ba010000ba010000ba010000ba0100002b
:1001e800ba010000ba010000ba010000ba0100001b
:0801f800ba010000ba01000089
:020000040000fa
:10020000af9f20000eff20000e01880000000000bc
:10021000000020000000e000020032000001200089
:10022000200288000c000700601822000100200056
:1002300011000700000020000000e0000200320072
:100240000000020000000000462202000000000042
:100250000040da000000fe004440a9008020200099
:100260000000e0000300320000002000a001880030
:100270004440a8000000060091018800800078003a
:100280000000eb0015003700e280400032a0b4000f
:100290009101ba00e280400032a0b4009102ba009d
:1002a000e280400032a0b4000002eb00472bde00e9
:1002b000f507b200602ce10004003a000059eb00a1
:1002c0008301e900fdff3e00040037006128e100e2
:1002d000010032000082eb00040007001101ba00a7
:1002e0000200e000e8ff3a00000006003159ba00c1
:1002f0008301e9000c0032002159ba008301e900b2
:10030000080032000400e00003003a00e2804000f0
:1003100032a0b400f5ff370011d9ba008301e9001b
:10032000faff3a008100e800e180400032a0b4000a
:10033000000006008020a900ffff37008060a900b0
:10034000ffff37008040a900ffff37008080a90031
:10035000ffff37008020a900ffff37008060a90061
:10036000ffff37008040a900ffff37008080a90011
:10037000ffff37000040da000000fe003200f80006
:10038000910188000008bb00410424006210e100d4
:1003900004003200000220000010e1000a003a00d0
:1003a00051042400013b88000500fc005105200099
:1003b000313b8800a10a2000313b880061e7a8009a
:1003c00000000000000000003200f90000000600fc
:1003d0003200f80060042400003b8800f2ff370080
:1003e0003200f8009101880041002400013b8800a0
:1003f0000208bb00ecff37003200f80091018800d2
:1004000051002400013b8800030120003218bb008a
:100410008301e900fdff3a00e3ff37003200f800f6
:10042000910188008002780062004000e08048006e
:100430003549ba003204e0000410a7001000320071
:100440008301e9000e0032002549ba003204e000c1
:100450000410a7000a0032008301e90008003200fe
:100460000408a300eeff320015c9ba003204e00010
:100470000410a700020032008301e900e8ff3a00ff
:100480003200f900000006000001be001b0007005a
:100490000470a70003f0a10003f8a30013003a00c2
:1004a0006509b10010003200090035006928e1003b
:1004b0000200350001002800000005000000400097
:1004c000818048008502e900fcff3a000000060038
:1004d000f88f4200050035008100d1000080d30074
:1004e0008502e800fcff3a00000006008000eb00f7
:1004f000000005006011b80049003700c70ade009f
:10050000f107b200f50fb20008003200e1cf42005f
:10051000020032000170a00024000500810f70006d
:10052000010032000408050044000500810f70003e
:1005300002003a00140005008502e90000004000b6
:1005400081c04800fcff3b000170a00024000500b2
:10055000889fbe008a9fbe008c1f78008500070020
:100560008c00330003866c006450e10024003200ec
:100570006420e100270032006150e10022003200d7
:100580006120e100210032008b854200eb07b100c1
:100590000134b800003ab8000804420089844a00d7
:1005a000013ab8000030b8008880400009014a00d4
:1005b000040033000000400081804800020149002f
:1005c0008b05e900c909dd008301700001003200dc
:1005d00013002000c814de004814dd004709de00c7
:1005e0001200b200c808de00088470003b0007005b
:1005f00001f0a1000cf0a70001f0a0006e00370090
:100600006120e100700032000801be000200be005f
:10061000f7ff37006150e100fcff3a006a00370045
:10062000889fbe008a9fbe00008270000402710095
:1006300004827100260032000004be000200be00e9
:100640006011b8006b092000950220000182cf00e4
:100650000a0039000541b1000082cf0007003900cf
:100660000541b1000982cf00040039000541b10005
:100670000882cf00010039000541b1000542520057
:10068000120032000a003b008281710061016400a7
:100690008100d1000080d3008984d3000884d30076
:1006a0008b05e8000442e800f7ff3a000700370036
:1006b0000804440089844c00000048008180480000
:1006c0008b05e9000442e900f9ff3a000300070046
:1006d0004f05be004f04be00000006008100200050
:1006e000618055000b003d000b00200061fe2f00d3
:1006f0000100e1001d00340082817100610164008d
:100700008904d1000884d3000000e800faff3a0011
:1007100071002000610064000300700002006000ae
:100720000900320061044400e0844c000988a500ff
:10073000050032008b05e8006808e10002003a007d
:100740008904d1000884d300f20f20000258e10090
:1007500005003d00c75ddd00f907b2008980750026
:1007600008007800000006000bf827008b007800d6
:10077000000005000004be0060ff07000003be008b
:100780000405be000200be005cff0700844f750038
:10079000000006000200be006450e10005003600c3
:1007a0006420e100020036000968a30001003a005d
:1007b0000800be000160a0004f0678004f05be0093
:1007c0004f04be0000000600f0ff2f00f1ff2700dd
:0407d000f9ff3700f6
:020000040000fa
:1007d40000c100008140000001c000008041000011
:1007e40001c000008041000000c100008140000001
:1007f40001c000008041000000c1000081400000f1
:1008040000c100008140000001c0000080410000e0
:1008140001c000008041000000c1000081400000d0
:1008240000c100008140000001c0000080410000c0
:1008340000c100008140000001c0000080410000b0
:1008440001c000008041000000c1000081400000a0
:1008540001c000008041000000c100008140000090
:1008640000c100008140000001c000008041000080
:1008740000c100008140000001c000008041000070
:1008840001c000008041000000c100008140000060
:1008940000c100008140000001c000008041000050
:1008a40001c000008041000000c100008140000040
:1008b40001c000008041000000c100008140000030
:1008c40000c100008140000001c000008041000020
:1008d40001c000008041000000c100008140000010
:1008e40000c100008140000001c000008041000000
:1008f40000c100008140000001c0000080410000f0
:1009040001c000008041000000c1000081400000df
:1009140000c100008140000001c0000080410000cf
:1009240001c000008041000000c1000081400000bf
:1009340001c000008041000000c1000081400000af
:1009440000c100008140000001c00000804100009f
:1009540000c100008140000001c00000804100008f
:1009640001c000008041000000c10000814000007f
:1009740001c000008041000000c10000814000006f
:1009840000c100008140000001c00000804100005f
:1009940001c000008041000000c10000814000004f
:1009a40000c100008140000001c00000804100003f
:1009b40000c100008140000001c00000804100002f
:1009c40001c000008041000000c10000814000001f
:1009d40000c00000c1010000c303000002c2000007
:1009e400c606000007c7000005c50000c4040000d7
:1009f400cc0c00000dcd00000fcf0000ce0e000087
:100a04000aca0000cb0b0000c909000008c8000096
:100a1400d818000019d900001bdb0000da1a000006
:100a24001ede0000df1f0000dd1d00001cdc0000d6
:100a340014d40000d5150000d717000016d6000006
:100a4400d212000013d3000011d10000d010000016
:100a5400f030000031f1000033f30000f232000006
:100a640036f60000f7370000f535000034f40000d6
:100a74003cfc0000fd3d0000ff3f00003efe000086
:100a8400fa3a00003bfb000039f90000f838000096
:100a940028e80000e9290000eb2b00002aea000006
:100aa400ee2e00002fef00002ded0000ec2c0000d6
:100ab400e424000025e5000027e70000e626000006
:100ac40022e20000e3230000e121000020e0000016
:100ad400a060000061a1000063a30000a262000006
:100ae40066a60000a7670000a565000064a40000d6
:100af4006cac0000ad6d0000af6f00006eae000086
:100b0400aa6a00006bab000069a90000a868000095
:100b140078b80000b9790000bb7b00007aba000005
:100b2400be7e00007fbf00007dbd0000bc7c0000d5
:100b3400b474000075b5000077b70000b676000005
:100b440072b20000b3730000b171000070b0000015
:100b54005090000091510000935300005292000005
:100b640096560000579700005595000094540000d5
:100b74009c5c00005d9d00005f9f00009e5e000085
:100b84005a9a00009b5b0000995900005898000095
:100b940088480000498900004b8b00008a4a000005
:100ba4004e8e00008f4f00008d4d00004c8c0000d5
:100bb4004484000085450000874700004686000005
:100bc4008242000043830000418100008040000015
:100bd400596f00006e6700004369000000000000c8
:020000040000fa
:100be40000c0eb006ae9b70081952000414b880002
:100bf40074e9b700e0942000904b880020c0b30053
:100c0400d8e8b700d9e8b700da68ef00a0c0b300ad
:100c1400dbe8b700ee68ef001e69ef00c409f800d6
:100c2400dc08f900d608f800de08f900c609f80067
:100c3400e008f900819c200091407800208e20007b
:100c440001487800919c200091407800308e20006b
:100c540001487800504e8000614e80003047880083
:100c640041478800704e8000814e800050478800c4
:100c7400614788000000060030c0b300eee8b7000a
:100c8400ef68ef0030c8b300f0e8b700f00f2000c1
:100c940090478800a047880023c2b300628f2000d9
:100ca40003497800c0478800d0478800419c200051
:100cb400e147880013c0b300e28f200003497800a5
:100cc4000029ef00704888001c29ef00000006008e
:100cd40011c0b300e091200001487800f391200096
:100ce4008149780020c8b30020e9b700f00f200044
:100cf40010498800204988008141780062922000d0
:100d04000349780040498800504988002c29ef00a5
:100d14002e69ef0080498800f04988004c29ef00d3
:100d2400000006000000060090017800431ade006f
:100d3400f403b2000040eb00e20f520013003a004b
:100d44006a49e20011003a00e84f51000f003e00ea
:100d5400611ab800144b8800254b88006096200067
:100d6400024878000204e000060032000000eb00b4
:100d7400434b8000b17178000000e800804f5100bf
:100d8400fbff3e0000c0eb006ae9b700000006006c
:100d940040419000b0009000100078005d0607000c
:100da4000000060030019000924178006097200016
:100db400034878009241900070972000034878001f
:100dc400a24190008097200003487800b24190002f
:100dd40090972000034878001ec9bf00e44f5000dc
:100de40021003a00828d200012417800f203b20003
:100df4008001eb008288be0031009000a2c1b300e4
:100e0400024878003100900070414100124098007f
:100e14003100900070414100224098003100900060
:100e2400704141003240980031009000704141000f
:100e340042409800310090007041410052409800b7
:100e440031009000704141006240980031009000f0
:100e5400704141007240980080c0b300c0409800c7
:100e640001007800caff070000000600300190006e
:100e7400424190000204e000040032008281fb0041
:100e840003027800f403b2001a003200828d2000bd
:100e940012417800f203b2008001eb00431add0036
:100ea400cd12de00850272004312dd0032402000c4
:100eb40003002000821872008390720031019000b8
:100ec40030009000104078000074a10000497800c0
:100ed40031009000c2ccb3001240980020c0b3008f
:100ee400c040980001007800a9ff07008041eb0092
:100ef4002700370084ff2f008481610024c0b300e1
:100f040005003a00a38d20001341610080c1eb006d
:100f14001f003200b4c0b300828d2000124178005b
:100f2400f203b2008001eb00431bdd00cd13de00b1
:100f3400870373004313dd003240200003002000c8
:100f44008218730083907300310190003000900088
:100f5400104078000074a10000497800310090002e
:100f640042c9b30012409800310090002440980018
:100f74003100900022c0b3003240980040c0b3005a
:100f8400c04098000100780081ff07008041eb0019
:100f94000340780000000600e408ab0008003200bb
:100fa400300190005242900012c0b300c3c0b3009d
:100fb400b58d20009542780084cf520012003a008b
:100fc40030029000a442900000c1eb0093c0b30033
:100fd400e3cf52000c003a00b4429000e1cf52003b
:100fe40009003a004442900022c0b3000404e00027
:100ff40005003200840fb20000c1eb001f00320074
:1010040022c0b30082417800848d2000144278000d
:10101400f403b2008002eb00432bdd00cd23de009d
:10102400870373004323dd003440200005002000c3
:101034008418730085907300310290003000900092
:10104400104078000074a100004a7800310090003c
:1010540044c9b30014409800310090002340980024
:10106400310090003240980040c0b300c040980066
:101074000100780046ff07000041eb0002407800c1
:1010840000000600889fbe008004780001047800f8
:101094003900900010409000b1c4b300814f50005b
:1010a40060003a008800780009007800baff070061
:1010b4000004e000a4003200390090005041900088
:1010c400b18d20008248780064004000a18d20008a
:1010d4009140780090c0700001417800a38d2000f9
:1010e400824978001080fb000018a300220032001f
:1010f400f7fe0700d8c8bf00f1032000808160001c
:1011040013498800008160008001eb004318dd0072
:10111400cd10de00810070004310dd00524020003d
:1011240002017000224988003240200003002000a0
:10113400021c70000394700038009000b900900005
:10114400914078000174a1000148780038009000b3
:10115400b1ccb30011409800380090008000eb003f
:101164002140980030c0b300404498000800780043
:1011740007ff0700740037000008a30023003200b3
:10118400bdfe0700828d200012417800f203b200f8
:101194008001eb004318dd00cd10de0081007000fb
:1011a4004310dd00334020008081710093478800a4
:1011b4004340200080817100a34788003240200012
:1011c40003002000021c700003947000380090009b
:1011d400b9009000914078000174a10001487800a2
:1011e40038009000b1ccb300114098003800900052
:1011f400f2032000030020002340980030c0b30015
:101204004044980008007800e1fe0700390090008f
:10121400404090000028a3004b003a00e408a800d6
:1012240049003700c1c4b300814f500029003a007f
:1012340088007800090078000cff07000004e00033
:1012440041003200390090006400400010417800f1
:10125400a18d2000824878001004e00001003a00cb
:10126400e408a900d8c8bf00f003b2008000eb0076
:101274004309dd00cd01de00830171004301dd007f
:101284003040200001002000001c71000194710016
:1012940038009000b9009000914078000174a100da
:1012a4000148780038009000b1ccb3001140980098
:1012b40038009000f203200003002000234098002f
:1012c40030c0b3004044980008007800b0fe070026
:1012d4001d003700d8c8bf00f003b2008000eb0047
:1012e4004309dd00cd01de00830171004301dd000f
:1012f4003040200001002000001c710001947100a6
:1013040038009000b9009000914078000174a10069
:10131400014878003800900041c9b300114098009a
:101324003800900081c0b30021409800380090003c
:1013340021c0b3003140980040c0b300404498003d
:101344000800780092fe07004f04be00000006006b
:10135400828d200012417800f203b2008001eb007c
:10136400431add00cd12de00850272004312dd0057
:1013740072402000030020000218720003907200e3
:101384003001900001497800b0009000c28d200027
:101394001241780092409800b0009000d48d200053
:1013a40014427800a4409800b0009000628e20009f
:1013b40012417800b2409800b0009000324780009b
:1013c40043478000481add004811de000201720024
:1013d400c819de00c2409800b0009000828e200040
:1013e40012417800d2409800b0009000948e200002
:1013f40014427800e440980071c0b3004140980062
:1014040063fe070000000600828d20001241780070
:10141400f203b2008001eb00431add00cd12de00be
:10142400850272004312dd003240200003002000d8
:101434008218720083907200310190003000900095
:10144400104078000074a100004978003100900039
:1014540042c9b300124098003100900082c0b3002a
:10146400224098003100900012c0b300324098002e
:1014740040c0b300c04098000100780044fe07005b
:1014840000000600828d200012417800f203b200b1
:101494008001eb00431add00cd12de0085027200ec
:1014a4004312dd0032402000030020008218720045
:1014b4008390720031019000b00190009341780054
:1014c4000374a10003497800300190001241900098
:1014d400ee4f510099003a0031019000e3c8b30087
:1014e400134198003000900040409000e44f5000b9
:1014f4003400320006003e00e24f50001700320074
:1015040023003e00e14f50007e003a000600370001
:10151400e64f50004500320037003900e74f5000d5
:1015240078003a005a00370031009000c28d200044
:10153400124178002240980031009000d48d2000a0
:10154400144278003440980040c0b300c040980072
:10155400010078000efe070085003700310090007e
:10156400e28d200012417800224098003100900062
:10157400f48d2000144278003440980040c0b30039
:10158400c04098000100780001fe07007800370091
:1015940031009000028e2000124178002240980011
:1015a40031009000148e20001442780034409800da
:1015b40040c0b300c040980001007800f4fd07006b
:1015c4006b00370031009000228e20001241780019
:1015d4002240980031009000348e2000144278009c
:1015e4003440980040c0b300c04098000100780027
:1015f400e7fd07005e00370031009000428e2000b6
:10160400124178002240980031009000548e20004e
:10161400144278003440980040c0b300c0409800a1
:1016240001007800dafd0700510037003100900016
:10163400628e200012417800224098003100900010
:101644003247800043478000481add004811de001d
:1016540002017200c819de00324098003100900087
:10166400828e2000124178004240980031009000a0
:10167400948e2000144278005440980060c0b30057
:10168400c040980001007800c1fd07003800370011
:1016940031009000a28e2000124178002240980070
:1016a4003100900062478000124178003240980077
:1016b400310090006247800012419000424098003f
:1016c400310090006247800022419000524098000f
:1016d40031009000624780003241900062409800df
:1016e40031009000624780004241900072409800af
:1016f40080c0b300c040980001007800a4fd07003a
:101704001b0037003100900042c9b300124098001a
:1017140031009000e2c0b3002240980031009000f4
:1017240000c1eb003240980040c0b300c0409800b4
:101734000100780096fd07000d003700310090008d
:1017440042c9b300124098003100900082c0b30037
:10175400224098003100900000c1eb003240980014
:1017640040c0b300c04098000100780088fd070025
:1017740000000600828d200012417800f203b200be
:101784008001eb00431add00cd12de0085027200f9
:101794004312dd0032402000030020008218720052
:1017a4008390720031019000300090001040780066
:1017b4000074a100004978003100900042c9b300d0
:1017c400124098003100900082c0b300224098007b
:1017d4003100900012c0b3003240980040c0b30002
:1017e400c04098000100780069fd07000000060071
:1017f400828d200012417800f203b2008001eb00d8
:10180400431add00cd12de00850272004312dd00b2
:10181400324020000300200082187200839072007e
:1018240031019000b0019000934178000374a1004d
:10183400034978003001900012419000ee4f5100ae
:1018440010003200f04f510036003a003101900090
:1018540003c9b3001341980031019000b001900016
:10186400d341900023419800310190003000900052
:10187400604090003041980040c0b3001ee9b700ba
:101884003300370031019000e3c8b30013419800de
:101894003000900040409000e74f500003003200b9
:1018a400e84f500013003a0009003700310090005f
:1018b40082c0b30022409800310090000041eb0048
:1018c4003240980040c0b300c04098002000370068
:1018d4003100900082c0b300224098003100900093
:1018e4000041eb003240980040c0b300c040980073
:1018f400170037003100900042c9b300124098002d
:101904003100900082c0b300224098003100900062
:1019140012c0b3003240980040c0b300c0409800e9
:101924000b0037003100900042c9b3001240980008
:101934003100900082c0b300224098003100900032
:1019440012c0b3003240980040c0b300c0409800b9
:10195400010078000efd070000000600828d2000c3
:1019640012417800f203b2008001eb00431add005b
:10197400cd12de00850272004312dd0032402000e9
:1019840003002000821872008390720031019000dd
:10199400b0019000934178000374a10003497800da
:1019a4003001900012419000ee4f510010003200bf
:1019b400f04f510036003a003101900003c9b300e2
:1019c4001341980031019000b0019000d341900080
:1019d4002341980031019000300090006040900055
:1019e4003041980040c0b300c04098003300370035
:1019f40031019000e3c8b300134198003000900017
:101a040040409000e74f500003003200e84f500080
:101a140013003a00090037003100900082c0b3007f
:101a240022409800310090000041eb0032409800c1
:101a340040c0b300c040980020003700310090003f
:101a440082c0b30022409800310090000041eb00b6
:101a54003240980040c0b300c040980017003700df
:101a64003100900042c9b300124098003100900048
:101a740082c0b300224098003100900012c0b3002d
:101a84003240980040c0b300c04098000b003700bb
:101a94003100900042c9b300124098003100900018
:101aa40082c0b300224098003100900012c0b300fd
:101ab4003240980040c0b300c04098000100780054
:101ac400b3fc070000000600828d2000124178005c
:101ad400f203b2008001eb00431add00cd12de00f8
:101ae400850272004312dd00324020000300200012
:101af40082187200839072003101900030009000cf
:101b0400104078000074a100004978003100900072
:101b140042c9b300124098003100900082c0b30063
:101b2400224098003100900012c0b3003240980067
:101b340040c0b300c04098000100780094fc070046
:101b440000000600b001900013419000f04f5100d6
:101b54008a00320003003e00ee4f5100cf003a00ed
:101b64000500370053cbb30003414100e14f51005e
:101b7400ca003e00c700370033419000e24f5100d5
:101b840021003200e54f51003c003200e14f51008a
:101b94005b003a00828d200012417800f203b2000b
:101ba4008001eb00431add00cd12de0085027200d5
:101bb4004312dd003240200003002000821872002e
:101bc4008390720031019000300090001040780042
:101bd4000074a1000049780031009000e2c8b3000d
:101be4001240980031009000828d2000124178004c
:101bf4002240980030c0b300c04098000100780033
:101c040063fc0700c3003700828d20001241780076
:101c1400f203b2008001eb00431add00cd12de00b6
:101c2400850272004312dd003240200003002000d0
:101c3400821872008390720031019000300090008d
:101c4400104078000074a100004978003100900031
:101c5400e2c8b3001240980031009000928d200039
:101c6400124178002240980030c0b300c040980070
:101c74000100780046fc0700a6003700828d200092
:101c840012417800f203b2008001eb00431add0038
:101c9400cd12de00850272004312dd0032402000c6
:101ca40003002000821872008390720031019000ba
:101cb40030009000104078000074a10000497800c2
:101cc40031009000e2c8b300124098003100900047
:101cd400a28d20001241780022409800310090002b
:101ce400b28d2000124178003240980040c0b30009
:101cf400c04098000100780025fc070085003700eb
:101d0400828d200012417800f203b2008001eb00c2
:101d1400431add00cd12de00850272004312dd009d
:101d24003240200003002000821872008390720069
:101d34003101900030009000104078000074a10040
:101d4400004978003100900042c9b3001240980065
:101d54003100900082c2b30022409800310090000c
:101d640000c1eb003240980040c0b300c04098006e
:101d74000100780006fc070066003700334190003c
:101d8400e54f510024003e000201fb001300200037
:101d94000219dd006202b2001f003200828d2000b1
:101da40012417800f203b2008001eb00431add0017
:101db400cd12de00850272004312dd0032402000a5
:101dc4000300200082187200839072003101900099
:101dd40030009000104078000074a10000497800a1
:101de4003100900042c9b3001240980031009000c5
:101df400e2c0b300224098003100900000c1eb0023
:101e04003240980040c0b300c04098000100780000
:101e1400dffb07003f003700828d2000124178006d
:101e2400f203b2008001eb00431add00cd12de00a4
:101e3400850272004312dd003240200003002000be
:101e4400821872008390720031019000300090007b
:101e5400104078000074a10000497800310090001f
:101e640042c9b300124098003100900082c2b3000e
:101e7400224098003100900000c1eb0032409800ed
:101e840040c0b300c040980001007800c0fb0700c8
:101e9400200037007bfc07001e003700828d2000e5
:101ea40012417800f203b2008001eb00431add0016
:101eb400cd12de00850272004312dd0032402000a4
:101ec4000300200082187200839072003101900098
:101ed40030009000104078000074a10000497800a0
:101ee4003100900042c9b3001240980031009000c4
:101ef40082c0b300224098003100900000c1eb0082
:101f04003240980040c0b300c040980001007800ff
:101f14009ffb0700000006003001900092419000f2
:101f2400eecf51001f003200828d20001241780054
:101f3400f203b2008001eb00431add00cd12de0093
:101f4400850272004312dd003240200003002000ad
:101f5400821872008390720031019000300090006a
:101f6400104078000074a10000497800310090000e
:101f740042c9b300124098003100900082c0b300ff
:101f8400224098003100900022c0b30032409800f3
:101f940040c0b300c0409800010078007cfb0700fb
:101fa4004200370022419000e14f51001f003200ef
:101fb400828d200012417800f203b2008001eb0010
:101fc400431add00cd12de00850272004312dd00eb
:101fd40032402000030020008218720083907200b7
:101fe4003101900030009000104078000074a1008e
:101ff400004978003100900042c9b30012409800b3
:102004003100900082c2b300224098003100900059
:1020140000c1eb003240980040c0b300c0409800bb
:10202400010078005afb070020003700828d200051
:1020340012417800f203b2008001eb00431add0084
:10204400cd12de00850272004312dd003240200012
:102054000300200082187200839072003101900006
:1020640030009000104078000074a100004978000e
:1020740031009000e2c8b300124098003100900093
:10208400229d2000124178002240980031009000e7
:10209400329d2000124178003240980040c0b300c5
:1020a400c04098000100780039fb070000000600da
:1020b40030019000a241900032419000da08ab0058
:1020c40028003200e2cf51001100320003003e002c
:1020d400e1cf510023003a0005003700e3cf51005f
:1020e4000d003200e5cf51001e003a001200370007
:1020f4000204e00002003a009efd070019003700c8
:10210400e14f510017003a00defc070015003700cc
:10211400bdfc0700130037000204e00002003a008f
:102124007dff07000f003700e14f51000d003a001a
:1021340084fe07000b0037000204e00002003a00ae
:1021440061fe070007003700e14f510002003a002a
:1021540002fe070003003700e24f510001003a007d
:10216400a3fd07000000060000000600803e2000da
:10217400010807001c0807000000060000c0eb006f
:1021840084e0ab000200320084e0a9000040eb00d0
:1021940000000600881f7800000478000100780021
:1021a4008040eb00014c980069fc0700efff07003a
:1021b4000100370008489000f0ff07000004e00029
:1021c400fcff3a004f047800000006009163a80069
:1021d400f0f32f009223b60000fc2f009203b60008
:1021e4000000a000901c8800a01c80000030a0000b
:1021f4000040a1000050a100a01c880094e3a800a6
:1022040094c3a900a01c80000000a0000010a1003d
:102214000020a100a01c8800a01c80000080a10058
:102224000090a00000a0a100a01c880000000600ef
:102234008e23ef008e03a9003003a9001001900043
:102244004511de004211dd0030002e0084198000ab
:102254008401600083017100831988000003a900d0
:1022640091009000c508de00c208dd000003b6003e
:102274000080700000188800000006007e23ef0034
:10228400f21b80000200a1000210a0000220a100a5
:10229400f21b88003803a80090019000c519de00e5
:1022a400c219dd0032002e00c5198000050261004c
:1022b40004827100c419880090017800c919de00f5
:1022c400100290007f0262004722dd000482710048
:1022d400d419880090017800c319de00ca19dd0002
:1022e400f03f2000e51980000502600004827100bf
:1022f400e41988001003a80091019000c519de00bc
:10230400c219dd008418800004016100028171009b
:1023140082188800110178004911de0091019000b3
:10232400ff816100c719dd008301710093188800e3
:1023340091007800c308de00ca08dd001403b6006b
:1023440000807000a018880000000600889fbe006e
:102354008a1f780080047800010478009623ef0037
:102364008760a900f00f2000c01c88008f60a800bf
:10237400f0cf2f009003b60000a0a000801c8800be
:1023840092ff07008800780009007800a8ff070082
:102394008800780009007800b8ff0700801c8000de
:1023a4000080a1000090a00000a0a100801c880073
:1023b4000004eb00090e20000a0420000800370086
:1023c40080022000010020005e0807000060fe007b
:1023d400903e2000800f5400070032000804e800fb
:1023e400811c8000018064008a0f5000f4ff3a00d1
:1023f400a00a2000010037000000eb004f05780020
:102404004f04be0000000600889fbe008a1f7800ab
:102414009623ef008760a900f00f2000c01c8800fd
:102424008f60a800f0cf2f009003b60000a0a0009a
:10243400801c88009163a900f0f32f009223b6005a
:1024440000fc2f009203b6000000a000901c88003e
:10245400503f2000a01c88008e23ef008e03a900ab
:102464003003a90030002e003023b6000003a90079
:102474000023b600f08f2f009023b6000004eb0079
:10248400090e20009a3e2000070037008002200039
:10249400010020002b0807000060fe008a0f540092
:1024a400060032000804e800811c800001806400fa
:1024b400f6ff3a00a00a2000010037000000eb00fc
:1024c4004f0578004f04be00000006000041e900fb
:1024d4008041eb00e74f51002a003e00ef0160000d
:1024e400c319dd0074f82f00251b8000050262006b
:1024f40004827100241b88006523a900731b8000db
:102504003300b300731b88000004e0001a0032009b
:102514000281fb000201d1000040eb00e14f5000ba
:102524000900320005003900e24f50000900320072
:10253400e34f50000c003a00090037009101780085
:10254400331b88000800370091029000451b880067
:1025540005003700a1019000531b880002003700da
:10256400b1029000651b8800824f500002003200c7
:102574000040e800e9ff3700231b8000c319de0098
:10258400efc1610003407800000006000042e9004a
:102594008041eb00e74f52002b003e006f016000ca
:1025a4004311dd0073f82f00a51a800085816100b6
:1025b40083017100a31a88005523a900f21a800030
:1025c4000200a1000210a000f21a88000004e0003a
:1025d4001a0032000481fb000201d1000040eb002c
:1025e400e14f50000900320005003900e24f50006d
:1025f40009003200e34f50000c003a000900370094
:1026040091017800b31a8800080037009102900005
:10261400c51a880005003700a1019000d31a88006c
:1026240002003700b1029000e51a8800824f500082
:10263400020032000040e800e9ff3700a31a8000de
:10264400c319de00efc161000340780000000600fa
:102654000042e9008041eb00e74f52002b003e00ae
:102664006f0160004311dd0073f82f00251a80000c
:102674008581610083017100231a88004523a90024
:10268400721b80000200a0000210a100721b8800cf
:102694000004e0001a0032000481fb000201d100b2
:1026a4000040eb00e14f5000090032000500390002
:1026b400e24f500009003200e34f50000c003a0092
:1026c4000900370091017800331a880008003700a8
:1026d40091029000451a880005003700a10190007e
:1026e400531a880002003700b1029000651a88006e
:1026f400824f5000020032000040e800e9ff37003a
:10270400231a8000c319de00efc161000340780082
:10271400000006008241e900e7cf510097003e0027
:102724006003a9006023a800c601de00cb19dd0008
:10273400f47f2000051b8000050262000482710002
:10274400041b8800f003b2004200dd0033f02f00c8
:10275400041b80008481610083017000031b8800d6
:102764006f0061004300dd0073f82f00251b80001b
:102774008581610083017000231b88006523a90003
:10278400701b80003000b300701b8800e44f5100c0
:102794002000320006003e00e24f51000f003200dc
:1027a40014003e00e14f510073003a000800370066
:1027b400e64f51003200320022003900e74f510049
:1027c40041003200e84f51006b003a0053003700db
:1027d4001180fb00301b8800670037001141900016
:1027e4004811dd001180fb0002007000301b8800de
:1027f40061003700114190004811dd001180fb0099
:1028040002007000301b88001180fb00401b880010
:1028140059003700114190004811dd001180fb0080
:1028240002007000301b8800314190004811dd0027
:10283400214090000080fb0002007000401b8800d3
:102844004d003700114190004811dd001180fb005c
:1028540002007000301b8800314190004811dd00f7
:10286400214090000080fb0002007000401b8800a3
:10287400414090000080fb00501b88003e00370060
:10288400114190004811dd001180fb00020070002e
:10289400301b8800314190004811dd002140900038
:1028a4000080fb0002007000401b88005141900032
:1028b4004811dd00414090000080fb0002007000e0
:1028c400501b88002c003700114190004811dd0096
:1028d4001180fb0002007000301b88003141900021
:1028e4004811dd00214090000080fb0002007000d0
:1028f400401b8800514190004811dd004140900088
:102904000080fb0002007000501b880061409000b2
:102914000080fb00601b8800170037001141900005
:102924004811dd001180fb0002007000301b88009c
:10293400314190004811dd00214090000080fb00ef
:1029440002007000401b8800514190004811dd00d6
:10295400414090000080fb0002007000501b880082
:10296400714190004811dd00614090000080fb003f
:1029740002007000601b88006e63a8000040eb003a
:1029840000000600800178000040eb008ee3ab00fd
:10299400200032008e63ab001e003a00201c800031
:1029a4006f4060001b0032008040eb000141780062
:1029b400e1cf50000900320005003900e2cf500099
:1029c40009003200e3cf500011003a00090037003b
:1029d400341c80008409780008003700441c8000ff
:1029e4009401980005003700541c8000a40198004d
:1029f40002003700641c8000b401980002c1e800a2
:102a0400824f5000030036008140e800e8ff3700a1
:102a14000040eb0000000600011c8000c308dd003c
:102a2400c508de00c508dd00100190007f016100cb
:102a34000281700012009800131c8000491add0006
:102a4400f11f20009080600081007200010878006e
:102a5400c719de00ff81610004fe2f00040161003c
:102a64000281710012009800221c80004a11de00cd
:102a74004311dd0073e02f00838060000288700042
:102a8400000006003600f800809fbe00829fbe0052
:102a9400849fbe00869fbe00881f78000200fa0053
:102aa4008760a9009643ab00020032009643a90058
:102ab400030037009663ab00010032009663a9005f
:102ac4009603ab000e0032009603a900001c8000a0
:102ad4004300dd004500de00f0bf9f00281c80009d
:102ae4006f446400609d2000a6ff07000841780041
:102af400619d20000f80e9008bf807000300370078
:102b04009623ab00010032009623a9000080fa004e
:102b14004f0478004f03be004f02be004f01be00b9
:102b24004f00be003600f900004006000060fe00c1
:102b340021a22a00810f5000240032000a003e0026
:102b440021522500810f50003d00320011a12a00be
:102b5400810f50000e00320011512500810f5000ea
:102b64005f003a002800370071a72a00810f500047
:102b7400540032006115b000810f50003e00320055
:102b84008117b100810f500055003a00470037000b
:102b94000000eb00da42ab0053003200c822ab0065
:102ba4005100320077060700800078000000eb0037
:102bb4000100e0004c003200d01680006800600084
:102bc4000000e9004f00de00470037000000eb0082
:102bd400da22ab0044003200da02ab0042003200d9
:102be40068060700800078000000eb000100e000a8
:102bf4003d003200d0168000680060000000e9004b
:102c04004f00de00380037000000eb00da42ab0072
:102c140035003200c862ab003300320059060700a9
:102c2400800078000000eb000100e0002e0032007c
:102c3400d01680004300de00610060002a003700e7
:102c44000000eb00da22ab0027003200c842ab00e0
:102c5400250032004b060700800078000000eb00de
:102c64000100e00020003200d01680004300de00a6
:102c7400610060001c003700da22ab000300320060
:102c840010002000da42ab0017003a000000eb000d
:102c9400da22ab0014003a00d01680006400600011
:102ca4000000e9004f00de000f0037000000eb00d9
:102cb400da22ab000c003200d01680006100600004
:102cc400090037000000eb00da22ab0006003200f6
:102cd400401680004200de00610060000200370000
:102ce4000000fe000000eb0000000600889fbe000c
:102cf4008a9fbe008c9fbe00000678000060fe0024
:102d04000c00780089ff0700800078000000eb00c9
:102d14000100e000190032004a0620008005eb00a3
:102d24008006eb0008192000090020000800be00fe
:102d3400040607000060fe000c0078007bff07001b
:102d44000000e000020032008d06e80001003700b8
:102d54008b05e800ea8f550002003e000a05e900f1
:102d6400f2ff3a000000eb00a1052000818f56001d
:102d7400020036000060fe000080eb004f06be003b
:102d84004f05be004f04be00000006000060fe00b8
:102d9400d0bc2a00d5ff07000000e0000500320087
:102da4000060fe00f00f2000c04f880010c2b30086
:102db4002e003700f829ef000060fe0020a22a0050
:102dc400caff07000000e000040032000060fe00bb
:102dd4002b01070030c2b300240037000060fe005e
:102de40020522500c1ff07000000e000040032006b
:102df4000060fe002201070030c2b3001b00370050
:102e04000060fe0010a12a00b8ff07000000e000e7
:102e1400040032000060fe001401070020c2b30069
:102e2400120037000060fe0010512500afff0700bc
:102e34000000e000040032000060fe000b01070007
:102e440020c2b300090037000060fe0050c2b30086
:102e5400da42ab0005003a000060fe000040eb00df
:102e6400da22ab000100320040c2b30000000600c9
:102e74000060fe00c30507000000e0000800320007
:102e84000060fe00a1cab30000c2b30043040700ff
:102e940051c5b300e0cfb30040040700070037007a
:102ea4000060fe0051c5b300f0cdb3003b04070041
:102eb400a1cab30010c0b300380407000000060024
:102ec4000060fe00b1ff07000060fe0031c2b300e5
:102ed400814f50001c00320007003e0081c0e90011
:102ee400814f50000b0032008140e800814f5000b8
:102ef4002b003a001000370041c2b300814f50004c
:102f0400150032008140e800814f500024003a004f
:102f14001a0037000060fe0051c5b30070ceb30044
:102f24001e040700a1cab30020c4b3001b04070099
:102f34000040eb001c0037000060fe0003010700a6
:102f440000c0eb00180037000060fe0024010700f9
:102f540000c0eb00140037000060fe00a1cab300fb
:102f640080c0b3000d04070051c5b300d0cab3003c
:102f74000a0407000040eb000b0037000060fe006d
:102f8400a1cab30000c1b3000404070051c5b300d3
:102f940050cbb300010407000040eb0002003700ef
:102fa4000060fe000040eb0000000600889fbe00a9
:102fb4008a9fbe008c1f7800000678000040eb005a
:102fc400da62ab0054003200505525009c0f10000b
:102fd40024003a000060fe000004eb00c862ab006d
:102fe40018003a000060fe00000eeb000040eb0009
:102ff400490037000060fe00090078003bff07002d
:103004000000e000040032000060fe009c000700a5
:1030140030c2b300400037000060fe0000fa200018
:1030240001002000470507000804e8008a0f540047
:1030340006003600a1cab30000c4b300d7030700da
:103044000200370079a72a008abb2000c862ab00bf
:10305400e8ff3a000060fe00000eeb000040eb00c9
:103064002d0037000060fe00a0aa2a009c0f10006b
:1030740027003a000b0037000060fe000a00be0083
:10308400300507000060fe008904e800888f5400c2
:1030940008003600a1cab30000c4b300bf03070090
:1030a400040037008004eb000afa20000b00200023
:1030b40088bb2000c842ab00efff3a000060fe006e
:1030c4008004eb000afa20000b00200088bb2000db
:1030d4000a0037000060fe000a00be001905070060
:1030e4000060fe008904e800888f54000300360065
:1030f400a1cab30000c4b300a8030700c862ab00b0
:10310400f4ff3a00000eeb000040eb000200370031
:10311400000eeb000040eb004f0678004f05be00a8
:103124004f04be0000000600889fbe008a9fbe00b8
:10313400000578000060fe000040eb00da62ab009e
:1031440041003a00505525009a0f100020003a0023
:103154000060fe00c822ab0003003200c822ab00ae
:1031640005003a00160037000060fe00000deb0079
:103174000040eb00340037005ba52a0008fa200069
:10318400090020000060fe000b007800d7fe070055
:103194000000e000050032000060fe000060fe0058
:1031a4003700070030c2b300270037000060fe007c
:1031b4000800be00e3040700c822ab00f1ff3a0098
:1031c4000060fe00000deb000040eb001e00370025
:1031d4000060fe00a0aa2a009a0f100018003a000e
:1031e400da02ab000800320008fa200009002000cf
:1031f4000060fe000800be00d20407000060fe006c
:10320400da02ab00faff3a000060fe00c822ab000d
:103214000800320008fa2000090020000060fe00c7
:103224000800be00c70407000060fe00c822ab000f
:10323400faff3a00000deb000040eb0002003700fb
:10324400000deb000040eb004f05be004f04be0034
:10325400000006000060fe00304f880000000600f9
:103264000060fe00304f800000000600a05a2500d8
:10327400504f880050a52a00404f880000000600e7
:1032840050a52a00404f880000000600ea29ef00fc
:10329400e829ef00000006000060fe008e0307002e
:1032a400e609f800e409f900e629ef000000060049
:1032b4003600f800809fbe00829fbe00849fbe003f
:1032c400869fbe000060fe008460a900f2ff070034
:1032d4004f03be004f02be004f01be004f00be00b0
:1032e4003600f900004006000060fe00d262a9002a
:1032f400cda2a900cdc2a900d902a900d662a90015
:10330400dd02a800d1a2a900d1c2a800ca82a900e6
:10331400c622a800d802a800d822a800d842a80033
:10332400d862a800c662a800c642a80020032000f4
:10333400804f8800e0012000904f8800e229ef00d0
:10334400ea29ef00e829ef00000006000060fe0013
:103354008f00a900804f80004303070050552500cb
:10336400304f8800d1a2a900d1c2a800d662a8001b
:10337400dd02a900ca82a800d1a2a900d1c2a80076
:10338400d662a800dd02a900ca82a800204f8800e6
:103394005005b000ea09e3000f0032000060fe00af
:1033a400d662a900dd02a800d1a2a900d1c2a8005a
:1033b400ca82a900d662a900dd02a800d1a2a90090
:1033c400d1c2a800ca82a900e629ef00e429ef00cf
:1033d4008f00a800010037003c030700000006002e
:1033e4000060fe008f00a900904f80001e030700bc
:1033f400a0aa2a00304f8800d662a900dd02a800e6
:10340400d1a2a800d1c2a900ca82a800d662a9008c
:10341400dd02a800d1a2a800d1c2a900ca82a800d6
:10342400204f88005005b100e809e3000f00320086
:103434000060fe00d662a900dd02a800d1a2a900a6
:10344400d1c2a800ca82a900d662a900dd02a800e0
:10345400d1a2a900d1c2a800ca82a900e629ef001e
:10346400e429ef008f00a8000100370017030700cc
:10347400000006000800fa00889fbe008a9fbe0074
:103484008c1f780051552500810f50000600320032
:10349400a1aa2a0008c82f00f9072000810f5000b4
:1034a40031003a000200370008c62f00f907200057
:1034b4000060fe000002eb00230020007281570030
:1034c4000800be00d4f307000060fe007fb0970040
:1034d4000000e800f0b79f00220020000800be00b2
:1034e400a5f307000060fe000005eb000b002800b8
:1034f4009c0c2000070037000060fe00001920002b
:10350400010020000f0407008c0f55000400320056
:103514000a05e800013b800001806500f6ff3a00df
:103524007fb197000800be00acf307000060fe0006
:103534000004eb000a002800990c20000700370063
:103544000060fe000019200001002000fd030700b8
:10355400890f5400040032000804e800013b800095
:1035640001006500f6ff3a004f0678004f05be00e3
:103574004f04be000080fa0000000600889fbe00d1
:103584008a1f780058552500a9aa2a00304f8000c8
:10359400880f500005003200890f50000f003200e0
:1035a4000000e00019003200500037000060fe0007
:1035b400d1a2a900d1c2a800d662a800dd02a90048
:1035c400ca82a800d1a2a900d1c2a800d662a800cc
:1035d400dd02a900ca82a800ecff37000060fe00eb
:1035e400d662a900dd02a800d1a2a800d1c2a90018
:1035f400ca82a800d662a900dd02a800d1a2a80050
:10360400d1c2a900ca82a800e0ff37000060fe0012
:10361400d662a900dd02a800d1a2a900d1c2a800e7
:10362400ca82a900d662a900dd02a800d1a2a9001d
:10363400d1c2a800ca82a90014ff0700204f80004d
:103644008cff0700e409e20012003200da62ab00ea
:1036540003003200409e200054fe070002003700a1
:10366400409e2000b0fe07000060fe0031c2b3009f
:10367400814f500002003a0059ff0700c3ff370092
:103684000060fe000efe07000004e000bfff3a00e9
:10369400e429ef00e429ef008f00a800419a2000fc
:1036a400c09920004b010700004578000060fe002f
:1036b400aac9bf00e14f400002003a00409a20002e
:1036c400240007000060fe000a04e000afff3a0097
:1036d400fbfd07000004e000acff3a000060fe00c0
:1036e400e3fd07000060fe00a8ff37000060fe0055
:1036f400e629ef00d662a900dd02a800d1a2a90044
:10370400d1c2a800ca82a900a0ff37000400fa00b1
:10371400e0ff9f00648157000019eb000060fe0089
:10372400e48257006489200013c0b300a1cfb30022
:1037340020cab300aa0107000060fe00cff897007a
:1037440060892000c40107000060fe000080fa00c8
:1037540000000600881f7800000478000060fe0066
:1037640068409000e14f4000e1003a0018409000aa
:1037740051c8b300814f500001003200e3ff07003d
:103784000060fe00184090000080fb008000eb0009
:1037940061005000e080580042082000820f500071
:1037a400e08f5800d0003e00006001008400370024
:1037b400cd003700cc003700cb003700ca003700fb
:1037c400c9003700c8003700c7003700c6003700fb
:1037d400c5003700c4003700c3003700c2003700fb
:1037e400c1003700c0003700bf003700be003700fb
:1037f400bd003700bc003700bb003700ba003700fb
:10380400b9003700b8003700b70037006e00370042
:10381400710037007400370077003700b2003700ba
:10382400b1003700b0003700af0037007600370032
:10383400790037007c0037007f003700aa0037008a
:10384400a9003700a8003700a7003700a6003700fa
:10385400a5003700a4003700a3003700a2003700fa
:10386400a1003700a00037007b003700800037003c
:10387400860037008f00370073003700740037006c
:1038840099003700980037009700370096003700fa
:1038940095003700940037009300370092003700fa
:1038a40091003700900037008f0037008e003700fa
:1038b4008d0037008c0037008b0037008a003700fa
:1038c40089003700880037008700370086003700fa
:1038d40085003700840037008300370082003700fa
:1038e40081003700800037007f0037007e003700fa
:1038f4007d0037007c0037007b0037007a003700fa
:1039040079003700780037007700370076003700f9
:1039140075003700740037007300370072003700f9
:1039240071003700700037006f0037006e003700f9
:103934006d0037006c0037006b0037006a003700f9
:1039440069003700680037006700370066003700f9
:1039540065003700640037006300370062003700f9
:1039640061003700600037005f0037005e003700f9
:103974005d0037005c0037005b0037005a003700f9
:1039840059003700580037005700370056003700f9
:1039940055003700540037005300370052003700f9
:1039a40051003700500037004f0037004e003700f9
:1039b4004d0037004c0037004b00370047003700fc
:1039c4000000fe0048003700a1cab30090c1b30054
:1039d4007201070044003700a1cab300a0c1b300bc
:1039e4006e01070040003700a1cab300b0c1b300a4
:1039f4006a0107003c003700a1cab300c0c1b3008c
:103a0400660107003800370051c5b30010c2b30087
:103a1400620107003400370051c5b30020c2b3006f
:103a24005e0107003000370051c5b30030c2b30057
:103a34005a0107002c00370051c5b30040c2b3003f
:103a440056010700280037002c0107002600370024
:103a54002d0107002400370001fe07000000e000ec
:103a640021003a0001fe070038fe07001e0037005f
:103a74000060fe00fafd07000000e0001a003a00b2
:103a8400fffd070056fe0700170037000060fe0028
:103a940028009000304090000041e90031c6b30096
:103aa400814f510010003e000080fb00804f8800d1
:103ab4000d0037000060fe002800900030409000a8
:103ac4000041e90031c6b300814f510006003e00b9
:103ad4000080fb00904f8800030037000060fe0068
:103ae400b0bb2b00104f88000040eb0060449800ee
:103af4004f047800000006000068ef004168ef0002
:103b04004268ef00f6e9ef0020cab300f7e9b70016
:103b14004368ef009568ef009468ef00000006002a
:103b2400804078000040eb00f2c3b3000380200023
:103b34009341780082cf51000d003e000068ec00f4
:103b440042c8bf000080fb00128020000171780091
:103b54000000e80002042000110009000200d8005f
:103b640001417800208420000248780000c0eb0066
:103b740000000600800078008f00a9000048e200e1
:103b8400110032000068ed0041c8bf000080fb0056
:103b940012802000e248780041c8bf000080fb008a
:103ba4000000e80002042000110009000200d8000f
:103bb4000141780010842000024878008f00a8009a
:103bc40000c0eb00020037008f00a8000040eb00ab
:103bd400000006000200fa00889fbe0080047800fe
:103be400010478000060fe00e2c2a90084c0ab00ba
:103bf400020032005d0107004368ef00f6c9bf0010
:103c0400e14f400003003200bbff07000040eb001f
:103c1400700037000060fe000048e2006b003200d4
:103c240043c8bf00e14f50001600320005003900c0
:103c3400e24f50001d003200e34f500060003a0094
:103c4400250037000040eb00a0ff9f000060fe004d
:103c54006044980066805700c6ff07000060fe00bd
:103c640019407800aff89700814f500057003a0090
:103c7400004c780010c0b30043e8b70035010700da
:103c8400520037000060fe000041eb00a2ff9f00dd
:103c940066805700b7ff0700aff9970013449800f8
:103ca40020c0b30043e8b700480037000060fe00be
:103cb4000040eb00a0ff9f0066805700adff0700a7
:103cc400aff897002144980030c0b30043e8b70030
:103cd40095e8b7003d0037000060fe0051892000e0
:103ce400914078000181fb004084200000004100e5
:103cf4008140e8008141780052892000034978001e
:103d04009cff070000c4b3009548e300040036009c
:103d140030c0b30095e8b7004368ef002b003700cc
:103d24000060fe00284090008084fb00528920003f
:103d3400124178000281fb00e5804400810f5100ac
:103d44002200350018417800418420008248780020
:103d540098409000538420008149780046e8b700d9
:103d64000060fe00e340400040842000df010700c3
:103d74000060fe006381440041842000e141790039
:103d8400e484440061c17c000060fe004811dd0051
:103d94008380fb0082807000808f500004003a0012
:103da400408420002004980000c0eb006044980088
:103db4000060fe00ed0007004368ef0003003700d9
:103dc4004368ef0030c0b30095e8b7000060fe0020
:103dd40000c8bf004f04be000080fa0000000600c7
:103de400889fbe0004047800e5c44100894a780035
:103df400004c7800114498008880e80083487800db
:103e04000060fe008381fb004240a90006003400ec
:103e14000000eb000060fe00b26878000000e800db
:103e2400808f5100fbff3c000060fe0089c0e90068
:103e340008007800ad0107008984fb0009044400f0
:103e440060fc9f0070fc9f000060fe009468ef001f
:103e54004f04be0000000600889fbe008a1f780041
:103e64000005780081447800e2c2a8000060fe00ea
:103e7400007d200001002000b20107000060fe0068
:103e84000904e000070032000a0478000060fe0024
:103e940038407800020107000a40540080cf5400e3
:103ea400faff3e00e2c2a9004f0578004f04be00ad
:103eb40000000600881f78008a9fbe0048c1b30036
:103ec4000afa20000b0020000060fe000a00be0079
:103ed4009c0107000844e900fbff3a004f05be00bf
:103ee4004f047800000006008200a8008400a900a6
:103ef4008c00a900c6e2a800000006008400a90006
:103f04008c00a800000006008400a9008c00a90011
:103f140000000600889fbe008a9fbe00804478008f
:103f2400cae2a9000044eb004a0020000b00200074
:103f34000904e00002003d00cac2a80001003700e5
:103f4400cac2a900cb02a9000a00be007d01070075
:103f5400cb02a8000a00be007a0107000844e8006a
:103f6400e84f54000200320089c44400f0ff3700d7
:103f7400cae2a900400020000100200071010700ee
:103f8400cae2a80040002000010020006d010700e3
:103f94004f05be004f04be0000000600a2cab300d5
:103fa40082cf500004003a00f449b700f4e9b700a6
:103fb400d8ff07000600370052c5b30082cf500077
:103fc40003003a00f449b600f4e9b700d1ff070052
:103fd40000000600a8a2ef000060fe00c6c2a9000f
:103fe400c702a900c6e2a900a1cab30040c0b30039
:103ff400eaff0700c682a900c6a2a900ca82a900d6
:10400400caa2a900d222a800d202a800d262a900a2
:10401400cda2a900cdc2a900d902a900d662a900e7
:10402400dd02a800d1a2a900d1c2a800ca82a900b9
:10403400c622a800d802a800d822a800d842a80006
:10404400d862a800d882a800c662a800c642a80008
:10405400d662a900dd02a800d1a2a900d1c2a8009d
:10406400ca82a90000000600800078000060fe00fb
:104074000421ef008460a900f0ff2c009400b60036
:1040840000e0a000a0048800200880000040a100f7
:104094000050a000200888000421a90004c1a90040
:1040a4008460a9000021ef006108b80010f1070046
:1040b40002002000a327240024f10700f1f00700e8
:1040c4008000e90011088800000006008c60a80048
:1040d40005e1a800000006000421ef000021ef0024
:1040e4000221ef008460a9008c60a9000000060092
:1040f400800078000060fe00f08f2f009620b6004c
:1041040011e1a900800880000003b3008008880042
:104114001021a90010c1a90084c0a9008cc0a90065
:104124000621ef006108b800f1f00700020020004a
:10413400a317240005f10700d2f007008000e9006e
:10414400610888000c01f800ec09f90011e1a900ec
:104154000000060084c0a9000621ef00ec09f80065
:104164000c01f90011e1a8000000060011e1a9000a
:1041740084c0a90000000600800078000060fe00f2
:10418400b004800000c0a00000d0a10000e0a100a5
:10419400b004880013e1a900900880000003b30074
:1041a400900888001221a90012c1a90084e0a90086
:1041b4008ce0a9000a21ef006108b800ccf00700e8
:1041c40002002000a3172400e0f00700adf0070070
:1041d4008000e900710888000e01f800ee09f9007a
:1041e40013e1a9000000060084e0a9000a21ef0001
:1041f400ee09f8000e01f90013e1a8000000060022
:1042040013e1a90084e0a9000000060017e2a90058
:1042140017a2a90016e2a90016c2a90016a2a900b5
:1042240090ff2f001622b6001602a900900120006c
:10423400f01088001962a9001942a9001922a900e6
:104244001902a900f0f32f001822b60018a2a90041
:104254001882a9001862a9001842a9001822a9000e
:104264001802a9008720a9008700a9008f00a800d0
:1042740017e2a8001942a80000000600de82a80088
:10428400dea2a900dec2a900e2c2a9000000060065
:10429400faff070000582200dcff070000000600b8
:1042a4000080fb00d010880001102000c2108000a4
:1042b40002806000fdff32000000060000000600de
:1042c4003600f800809fbe00829fbe00849fbe001f
:1042d400869fbe000060fe008700a900e0108000f9
:1042e4000ffe0700f6e9b7004f03be004f02be0001
:1042f4004f01be004f00be003600f900004006002a
:084304008720a900004006001b
:020000040000fa
:10430c00c409000010000000020000003412d200aa
:10431c0000010100bc69110000080000ea850200e0
:10432c0000000000d6080000a800000000000000fb
:10433c00f40900000200000000000000f609000073
:10434c000200000002000000ffa2000000080000b4
:10435c00d600000000000000f80900000200000078
:10436c0000000000ec090000040000000000000048
:10437c00ac0900001800000002000000515253006c
:10438c0054555600575859005a5b5c0061626300e3
:10439c0064656600676869006a6b6c007e090000e2
:1043ac002e00000000000000f009000004000000d6
:1043bc000200000032001e0000000000e2090000b4
:1043cc000a00000000000000d40900000e000000ec
:0843dc000000000000000000d9
:020000040000fa
:1043e400a1e2a900f0cf2f00a022b600f0f12f0027
:1043f400a022b600a042a900a342a90030fc2f00cd
:10440400a222b600f0ff2100a222b600a4e2a90075
:1044140000fc2f00a402b6003000b3002015880071
:1044240000ff2f00a622b600aa22ef00aa02a800cd
:10443400a8a2ef00a802a900c602a8008560a900ee
:104444008d60a900a1e2a90081e0a8000000060097
:10445400a1e2a800a022a8000060fe000005200040
:104464000100200037000700a022a9000060fe0020
:10447400a002ab00feff32000060fe0000148000ca
:10448400a1e2a9000000060000a8210061002000ac
:104494002c000700cffe0700d1ff07000060fe00dc
:1044a4007bff07000060fe00e2c2a8000060fe007f
:1044b40050c5b3007aff0700e2c2a9000060fe0005
:1044c4000060fe008cfd070020cab3009ce9b70021
:1044d4000060fe0084fb07000060fe006000b8007e
:1044e400c9f70700bef10700ffff37000104e00031
:1044f4000d00320080c1eb0003427800a63e280084
:10450400a54e28000060fe0030416a000281fb00d5
:104514006642790004c26900e54179008140e900fe
:10452400f8ff3a000200370080c1eb000342780034
:104534000060fe004820dd008381fb0000807100e4
:04454400000006006d
:020000040000fa
:10454800f03fb1000180b10006003500ee0309001c
:1045580000000000403fb1000180b100fbff3d00ba
:104568001000b000203fb0000200350000800900b4
:08457800000000000000060035
:020000040000fa
:10458000b4ff070000000600fdff070000017800ef
:104590000000eb0051182000810f5100010036008f
:0845a000a0aa2a000000060099
:020000040000fa
:0200000401f009
:04000000f53f0000c8
:020000040000fa
:0200000401f009
:04000400c07f0000b9
:020000040000fa
:0200000401f009
:04000800dfff000016
:020000040000fa
:0200000401f009
:04001400ffff0000ea
:020000040000fa
:0200000401f009
:04001800ffff0000e6
:00000001FF
