:020000040000fa
:080000000001040000000000f3
:020000040000fa
:10000800cc0400009a010000a0010000a601000035
:10001800ac010000cc040000cc040000cc040000bb
:10002800cc040000cc040000cc040000ca0100008d
:10003800cc040000cc040000cc040000cc04000078
:10004800cc040000cc040000cc040000cc04000068
:10005800cc040000cc040000cc040000cc04000058
:10006800cc040000cc040000cc040000cc04000048
:10007800cc040000cc040000cc040000cc04000038
:10008800d0330000f6330000cc0400002027000025
:10009800cc040000cc040000cc040000cc04000018
:1000a800cc040000cc040000cc040000cc04000008
:1000b800cc040000cc040000cc040000cc040000f8
:1000c800cc040000cc040000cc040000cc040000e8
:1000d800cc040000cc040000cc040000cc040000d8
:1000e800cc040000cc040000cc040000cc040000c8
:0800f800cc040000cc04000060
:020000040000fa
:10010800cc040000b2010000b8010000be010000ec
:10011800c4010000cc040000cc040000cc040000a2
:10012800cc040000cc040000cc040000ca0100008c
:10013800cc040000cc040000cc040000cc04000077
:10014800cc040000cc040000cc040000cc04000067
:10015800cc040000cc040000cc040000cc04000057
:10016800cc040000cc040000cc040000cc04000047
:10017800cc040000cc040000cc040000cc04000037
:10018800d0330000f6330000cc0400002027000024
:10019800cc040000cc040000cc040000cc04000017
:1001a800cc040000cc040000cc040000cc04000007
:1001b800cc040000cc040000cc040000cc040000f7
:1001c800cc040000cc040000cc040000cc040000e7
:1001d800cc040000cc040000cc040000cc040000d7
:1001e800cc040000cc040000cc040000cc040000c7
:0801f800cc040000cc0400005f
:020000040000fa
:100200004f9f20000eff20000e018800000000001c
:10021000000020000000e000020032000001200089
:10022000200288000c000700604e2300010020001f
:1002300011000700000020000000e0000200320072
:100240000000020000000000403502000000000035
:100250000040da000000fe004440a9000020200019
:100260000000e0000300320000002000a001880030
:100270004440a8000000060091018800800078003a
:100280000000eb0015003700e280400032a0b4000f
:100290009101ba00e280400032a0b4009102ba009d
:1002a000e280400032a0b4000002eb00472bde00e9
:1002b000f507b200602ce10004003a000059eb00a1
:1002c0008301e900fdff3e00040037006128e100e2
:1002d000010032000082eb00040007001101ba00a7
:1002e0000200e000e8ff3a00000006003159ba00c1
:1002f0008301e9000c0032002159ba008301e900b2
:10030000080032000400e00003003a00e2804000f0
:1003100032a0b400f5ff370011d9ba008301e9001b
:10032000faff3a008100e800e180400032a0b4000a
:10033000000006000000fa008020a900ffff37003f
:100340000000fa008060a900ffff37000000fa00fb
:100350008040a900ffff37000000fa008080a9005c
:10036000ffff37000000fa008020a900ffff3700e0
:100370000000fa008060a900ffff37000000fa00cb
:100380008040a900ffff37000000fa008080a9002c
:10039000ffff37003600f800809fbe00829fbe003e
:1003a000849fbe00869fbe000000fa000060fe0031
:1003b0008460a9002a0007000080fa004f03be00f5
:1003c0004f02be004f01be004f00be003600f900d4
:1003d000004006000200fa00000f78000060fe00f6
:1003e0009e007800e14e88009e007800e14e880073
:1003f0000080fa00000006000000fa000060fe0025
:10040000e04e80000080fa00000006000000fa00c4
:10041000a05a2500f04e880050a52a00004f880001
:100420000080fa00000006000000fa0050a52a0033
:10043000004f880050a52a00004f88000080fa0075
:10044000000006000000fa00de29ef00e029ef00be
:10045000de29ef00e029ef000080fa00000006002e
:100460000000fa000060fe001b180700e04e80004c
:10047000204f8800dc29ef00dc29ef000080fa0023
:10048000000006000200fa000040eb00004f780078
:10049000e04e800051552500810f500006003200cb
:1004a000a1aa2a00810f50000f0032000000e000d6
:1004b000190032005f0037000060fe00d1a2a900e1
:1004c000d1c2a800d662a800dd02a900ca82a80095
:1004d000d1a2a900d1c2a800d662a800dd02a9005d
:1004e000ca82a8005b0037000060fe00d662a90047
:1004f000dd02a800d1a2a800d1c2a900ca82a8002a
:10050000d662a900dd02a800d1a2a800d1c2a9002c
:10051000ca82a8004f0037000060fe00d662a90022
:10052000dd02a800d1a2a900d1c2a800ca82a900f8
:10053000d662a900dd02a800d1a2a900d1c2a800fc
:10054000ca82a900bfff0700204f8000b500070046
:10055000204f80000000e0001a003200d01680001a
:10056000680060000000e00004003200409e2000af
:10057000cc130700004f780003003700409e200096
:100580003e140700004f78000060fe0030c2b30048
:100590009e40780080cf500002003a0075000700ae
:1005a0002c0037000060fe0076130700004f780033
:1005b0001e4078000004e0000100320025003700f2
:1005c000e429ef00e429ef008f00a800c19a200081
:1005d000409a2000d8140700004f78000060fe0009
:1005e000c09a200060409000e14f400002003a00b5
:1005f000c09a2000f41507000060fe001e4078003d
:100600000004e00001003200120037005d13070013
:10061000004f78001e4078000004e0000100320026
:100620000c0037000060fe00401307000060fe0071
:10063000080037000060fe00dc29ef00d662a90048
:10064000dd02a800d1a2a900d1c2a800ca82a900d7
:10065000000000008eff37000000fa000060fe007e
:10066000d262a900cda2a900cdc2a900d902a900d9
:10067000d662a900dd02a800d1a2a900d1c2a800bb
:10068000ca82a900c622a800d802a800d822a800c1
:10069000d842a800d862a800c662a800c642a80036
:1006a00020032000504f8800e0012000604f8800a8
:1006b000e229ef00de29ef00e029ef000080fa00d8
:1006c000000006000000fa000060fe008f00a90094
:1006d000504f80005d17070050552500e04e880000
:1006e00050552500e04e8800d1a2a900d1c2a80033
:1006f000d662a800dd02a900ca82a800d1a2a90082
:10070000d1c2a800d662a800dd02a900ca82a80052
:1007100050552500204f8800f14e8000a05a25003a
:10072000808f5000100032000060fe00d662a900e9
:10073000dd02a800d1a2a900d1c2a800ca82a900e6
:10074000d662a900dd02a800d1a2a900d1c2a800ea
:10075000ca82a900dc29ef00dc29ef00e429ef00c0
:100760008f00a80001003700561707000080fa002c
:10077000000006000000fa000060fe008f00a900e3
:10078000604f800031170700a0aa2a00e04e8800c1
:10079000a0aa2a00e04e8800d662a900dd02a800c7
:1007a000d1a2a800d1c2a900ca82a800d662a9001d
:1007b000dd02a800d1a2a800d1c2a900ca82a80067
:1007c000a0aa2a00204f8800014f800050a52a00cf
:1007d000808f5000100032000060fe00d662a90039
:1007e000dd02a800d1a2a900d1c2a800ca82a90036
:1007f000d662a900dd02a800d1a2a900d1c2a8003a
:10080000ca82a900dc29ef00dc29ef00e429ef000f
:100810008f00a800010037002a1707000080fa00a7
:10082000000006001000fa00700798000000eb00be
:1008300020079800fe00900050552500808f500042
:1008400004003a0000c62f00f1072000008fbe0010
:1008500007003700fe009000a0aa2a00808f5000f9
:1008600048003a0000c82f00f1072000008fbe00aa
:100870000060fe00660047000002eb00230020003d
:10088000000178001e00be006d0007000060fe0041
:100890003e0090000000e800300798002200200091
:1008a0001e00be003e0007000060fe000000eb00de
:1008b000200798000f0037000060fe00001920009c
:1008c000010020009d18070010c0b3002e01900009
:1008d000810c2000810f510001003e000040eb0020
:1008e000ae0090008100e800210798000004e000bd
:1008f00006003a00013b80000000280000806000f4
:100900000000e000ecff3a000100370000000000aa
:100910003e009000000178001e00be003900070074
:100920000060fe000000eb00200798000f00370079
:100930000060fe0000192000010020007f18070061
:1009400010c0b3002e019000810c2000810f5100d7
:1009500001003e000040eb00ae0090008100e80086
:10096000210798000004e00008003a00013b8000e5
:1009700000002800008060000000e000ecff3a006a
:1009800003003700000000000100370000000000f5
:100990000080fa00000006000040da000000fe00bf
:1009a0003200f800910188000008bb0041042400d7
:1009b0006210e10004003200000220000010e1009b
:1009c0000a003a0051042400013b88000500fc00a5
:1009d00051052000313b8800a10a2000313b8800ee
:1009e00061e7a80000000000000000003200f900ec
:1009f000000006003200f80060042400003b88007c
:100a0000f2ff37003200f800910188004100240015
:100a1000013b88000208bb00ecff37003200f80001
:100a20009101880051002400013b8800030120004f
:100a30003218bb008301e900fdff3a00e3ff3700f5
:100a40003200f800910188008002780062004000c6
:100a5000e08048003549ba003204e0000410a700e5
:100a6000100032008301e9000e0032002549ba006f
:100a70003204e0000410a7000a0032008301e900fc
:100a8000080032000408a300eeff320015c9ba00c6
:100a90003204e0000410a700020032008301e900e4
:100aa000e8ff3a003200f9000000060003f0a2005f
:100ab000889fbe008a9fbe008c1f7800f30007004d
:100ac000fa0033006450e1004f0032006420e1007e
:100ad0005200320003826c0007003b000905d00081
:100ae0000306d000820f54000c065d00020039009e
:100af00002003200890178000306780085825500e3
:100b000004003d000003fd008103fd008502ea00b2
:100b10008b854200840f720002003b0060001000d1
:100b2000e08018006011b8000005eb007a28e100b1
:100b30000a00390006007800c75ddd00f707b20043
:100b4000878075002d003700828171000a017800ce
:100b5000610560008180d1000080d3008502e9003a
:100b6000f9ff3b00060440008784480002003b0078
:100b700060041400e0841c000988a3000700320010
:100b80008a81710082817100610164008904d10051
:100b90000884d3008b05e800170037000978a3000c
:100ba00013003a000b00e000130034008b05e9004d
:100bb0000804440089844c000a4474000978a300a6
:100bc0000d003a000b00e000070034008b05e9003f
:100bd0000804440089844c0001003a000b00200006
:100be0000978a300f7ff32000001eb000200370094
:100bf000828171000a017800690007000cf0a700eb
:100c000001f0a000b20037006420e10002003a00c9
:100c1000838f6c00b20033000801be000200be00ea
:100c2000ab003700889fbe008a9fbe008c1f7800f3
:100c3000960007009d00330003866c006450e100bd
:100c40002e0032006420e100330032006150e100e8
:100c50002f0032006120e10031003200858555000f
:100c6000eb07b00009002000080420000500370051
:100c70000804440089844c000a0031000603430044
:100c800087834b000001530081815b00f8ff330034
:100c90000203be000800a0000804440089844c0040
:100ca000f6ff3900c639dd00830173000100320010
:100cb000130020008904d1000884d3000998a30000
:100cc000050032000800a7000300a0008904d1003d
:100cd0000884d3008b05e8008904d1000884d30080
:100ce0000001eb000281d2002d00070001f0a100fd
:100cf0000cf0a70001f0a000750037006420e100af
:100d0000770032000801be000200be00f7ff370086
:100d10006120e100720032006000b800f3ff37008c
:100d20000000200001f82700f0ff37000001be009e
:100d3000410007000470a70003f0a10003f8a3001e
:100d400013003a006509b1001000320009003500b7
:100d50006928e100020035000100280000000500bc
:100d600000004000818048008502e900fcff3a0055
:100d700000000600f88f4200050035008100d10018
:100d80000080d3008502e800fcff3a000000060066
:100d90008000eb00000005006011b80087003700fc
:100da00081002000618055000b003d000b002000f9
:100db00061fe2f000100e1001d00340082817100fe
:100dc000610164008904d1000884d3000000e800b8
:100dd000faff3a0071002000610064000300700017
:100de000020060000900320061044400e0844c000d
:100df0000988a500050032008b05e8006808e100bd
:100e000002003a008904d1000884d300f20f2000c8
:100e10000258e10005003d00c75ddd00f907b200a2
:100e20008980750008007800000006000bf8270094
:100e30008b00780000000500c70ade00f107b20051
:100e4000f50fb20008003200e1cf4200020032008c
:100e50000170a00024000500810f70000100320025
:100e60000408050044000500810f700002003a00ec
:100e7000140005008502e9000000400081c0480020
:100e8000fcff3b000170a000240005000004be0030
:100e9000e9ff07000003be000405be000200be001b
:100ea000e5ff0700844f7500000006000200be0049
:100eb0006450e100050036006420e10002003600c5
:100ec0000968a30001003a000800be000160a0000c
:100ed0004f0678004f05be004f04be00000006001c
:100ee000f0ff2f00f1ff2700f9ff3700889fbe00b9
:100ef0008a9fbe008c1f7800e4ff0700ebff3300e1
:100f000003866c006450e100240032006420e1009c
:100f1000270032006150e100220032006120e10030
:100f2000210032008b854200eb07b1000134b8008c
:100f3000003ab8000804420089844a00013ab80027
:100f40000030b8008880400009014a0004003300e6
:100f50000000400081804800020149008b05e90043
:100f6000c909dd0083017000010032001300200078
:100f7000c814de004814dd004709de001200b2008c
:100f8000c808de000884700085ff070001f0a1009a
:100f90000cf0a70001f0a000cdff37006120e100b8
:100fa000cfff32000801be000200be00f7ff37008d
:100fb0006150e100fcff3a00c9ff3700889fbe0086
:100fc0008a9fbe00008270000402710004827100da
:100fd000260032000004be000200be006011b8000e
:100fe0006b092000950220000182cf000a00390021
:100ff0000541b1000082cf00070039000541b10072
:101000000982cf00040039000541b1000882cf00f9
:10101000010039000541b1000542520012003200c2
:101020000a003b0082817100610164008100d100ef
:101030000080d3008984d3000884d3008b05e800a6
:101040000442e800f7ff3a000700370008044400b4
:1010500089844c0000004800818048008b05e9002d
:101060000442e900f9ff3a004dff07004f05be00ba
:081070004f04be000000060061
:020000040000fa
:1010780000c100008140000001c000008041000064
:1010880001c000008041000000c100008140000054
:1010980001c000008041000000c100008140000044
:1010a80000c100008140000001c000008041000034
:1010b80001c000008041000000c100008140000024
:1010c80000c100008140000001c000008041000014
:1010d80000c100008140000001c000008041000004
:1010e80001c000008041000000c1000081400000f4
:1010f80001c000008041000000c1000081400000e4
:1011080000c100008140000001c0000080410000d3
:1011180000c100008140000001c0000080410000c3
:1011280001c000008041000000c1000081400000b3
:1011380000c100008140000001c0000080410000a3
:1011480001c000008041000000c100008140000093
:1011580001c000008041000000c100008140000083
:1011680000c100008140000001c000008041000073
:1011780001c000008041000000c100008140000063
:1011880000c100008140000001c000008041000053
:1011980000c100008140000001c000008041000043
:1011a80001c000008041000000c100008140000033
:1011b80000c100008140000001c000008041000023
:1011c80001c000008041000000c100008140000013
:1011d80001c000008041000000c100008140000003
:1011e80000c100008140000001c0000080410000f3
:1011f80000c100008140000001c0000080410000e3
:1012080001c000008041000000c1000081400000d2
:1012180001c000008041000000c1000081400000c2
:1012280000c100008140000001c0000080410000b2
:1012380001c000008041000000c1000081400000a2
:1012480000c100008140000001c000008041000092
:1012580000c100008140000001c000008041000082
:1012680001c000008041000000c100008140000072
:1012780000c00000c1010000c303000002c200005a
:10128800c606000007c7000005c50000c40400002a
:10129800cc0c00000dcd00000fcf0000ce0e0000da
:1012a8000aca0000cb0b0000c909000008c80000ea
:1012b800d818000019d900001bdb0000da1a00005a
:1012c8001ede0000df1f0000dd1d00001cdc00002a
:1012d80014d40000d5150000d717000016d600005a
:1012e800d212000013d3000011d10000d01000006a
:1012f800f030000031f1000033f30000f23200005a
:1013080036f60000f7370000f535000034f4000029
:101318003cfc0000fd3d0000ff3f00003efe0000d9
:10132800fa3a00003bfb000039f90000f8380000e9
:1013380028e80000e9290000eb2b00002aea000059
:10134800ee2e00002fef00002ded0000ec2c000029
:10135800e424000025e5000027e70000e626000059
:1013680022e20000e3230000e121000020e0000069
:10137800a060000061a1000063a30000a262000059
:1013880066a60000a7670000a565000064a4000029
:101398006cac0000ad6d0000af6f00006eae0000d9
:1013a800aa6a00006bab000069a90000a8680000e9
:1013b80078b80000b9790000bb7b00007aba000059
:1013c800be7e00007fbf00007dbd0000bc7c000029
:1013d800b474000075b5000077b70000b676000059
:1013e80072b20000b3730000b171000070b0000069
:1013f8005090000091510000935300005292000059
:101408009656000057970000559500009454000028
:101418009c5c00005d9d00005f9f00009e5e0000d8
:101428005a9a00009b5b00009959000058980000e8
:1014380088480000498900004b8b00008a4a000058
:101448004e8e00008f4f00008d4d00004c8c000028
:101458004484000085450000874700004686000058
:101468008242000043830000418100008040000068
:020000040000fa
:101478000000fa0000c0eb007ce9b70020962000cd
:10148800d04b880000c0eb0086e9b70080952000ab
:10149800204c88000080fa00000006000400fa00d2
:1014a800000f7800110798001e00780030009000a7
:1014b8000000e80010407800ee4f5000380032007d
:1014c80038c9bf000080fb008000eb004309dd0045
:1014d800cd01de00830171004301dd00f00f200023
:1014e80001002000020278000301780080017800e2
:1014f8000100780003026200000061008000eb0038
:10150800c000dd00000020000001be006120b8001e
:10151800000171008181710030402000010020002d
:1015280000007100818071001e0190000089be00da
:101538001e009000300090009e007800b1009000de
:10154800914078000174a100014878001e009000c5
:10155800300090000000e80041c9b300014878005d
:101568001e009000300090000080e80081c0b300a9
:10157800014878001e009000300090006300400091
:1015880021c0b300014878001e00900041c0b3009c
:10159800414098001e0090005f0a0700780037005d
:1015a8001e00780030009000630040001040780072
:1015b800e14f50003800320038c9bf000080fb00fe
:1015c8008000eb004309dd00cd01de0083017100de
:1015d8004301dd00f00f2000010020000202780026
:1015e800030178008001780001007800030262009e
:1015f800000061008000eb00c000dd00000020005a
:101608000001be006120b8000001710081817100f5
:10161800304020000100200000007100818071002e
:101628001e0190000089be001e009000300090004e
:101638009e007800b1009000914078000174a100ec
:10164800014878001e009000300090000000e8007b
:1016580041c9b300014878001e0090003000900096
:101668000080e80081c2b300014878001e009000a5
:10167800300090006300400080c0eb000148780013
:101688001e00900041c0b300414098001e00900029
:10169800210a07003a00370038c9bf000080fb0064
:1016a8008000eb004309dd00cd01de0083017100fd
:1016b8004301dd00f00f2000010020000202780045
:1016c80003017800800178000100780003026200bd
:1016d800000061008000eb00c000dd000000200079
:1016e8000001be006120b800000171008181710015
:1016f800304020000100200000007100818071004e
:101708001e0190000089be001e009000300090006d
:101718009e007800b1009000914078000174a1000b
:10172800014878001e009000300090000000e8009a
:10173800e1c8b300014878001e0090003000900016
:101748000080e800b14980008140780001487800b5
:101758001e0090003000900063004000b1498000f6
:10176800c808de0081407800014878001e0090001b
:1017780041c0b300414098001e009000e6090700f0
:101788000080fa00000006000400fa00000f78004c
:10179800110798001e007800300090000000e80053
:1017a800104078000080fb00f00f5000ee0032007f
:1017b800f00f500003003c00ee0f5000050032000f
:1017c8006a013700b004b100e10f500067013e0024
:1017d800620137001e00780030009000630040006e
:1017e800104078000080fb00e20f50003800320003
:1017f800e50f50006a003200e10f5000a2003a00e5
:1018080038c9bf000080fb008000eb004309dd0001
:10181800cd01de00830171004301dd00f00f2000df
:10182800010020000202780003017800800178009e
:101838000100780003026200000061008000eb00f4
:10184800c000dd00000020000001be006120b800db
:1018580000017100818171003040200001002000ea
:1018680000007100818071001e0190000089be0097
:101878001e009000300090009e007800b10090009b
:10188800914078000174a100014878001e00900082
:10189800300090000000e800e1c8b300014878007b
:1018a8001e009000300090000080e8008193200026
:1018b80091407800014878001e00900031c0b300c4
:1018c800414098001e009000930907005f0137000f
:1018d80038c9bf000080fb008000eb004309dd0031
:1018e800cd01de00830171004301dd00f00f20000f
:1018f80001002000020278000301780080017800ce
:101908000100780003026200000061008000eb0023
:10191800c000dd00000020000001be006120b8000a
:101928000001710081817100304020000100200019
:1019380000007100818071001e0190000089be00c6
:101948001e009000300090009e007800b1009000ca
:10195800914078000174a100014878001e009000b1
:10196800300090000000e800e1c8b30001487800aa
:101978001e009000300090000080e8009193200045
:1019880091407800014878001e00900031c0b300f3
:10199800414098001e0090005f0907002b013700a6
:1019a80038c9bf000080fb008000eb004309dd0060
:1019b800cd01de00830171004301dd00f00f20003e
:1019c80001002000020278000301780080017800fd
:1019d8000100780003026200000061008000eb0053
:1019e800c000dd00000020000001be006120b8003a
:1019f8000001710081817100304020000100200049
:101a080000007100818071001e0190000089be00f5
:101a18001e009000300090009e007800b1009000f9
:101a2800914078000174a100014878001e009000e0
:101a3800300090000000e800e1c8b30001487800d9
:101a48001e009000300090000080e800a193200064
:101a580091407800014878001e0090003000900006
:101a680063004000b193200091407800014878005d
:101a78001e00900041c0b300414098001e00900035
:101a880025090700f100370038c9bf000080fb00b6
:101a98008000eb004309dd00cd01de008301710009
:101aa8004301dd00f00f2000010020000202780051
:101ab80003017800800178000100780003026200c9
:101ac800000061008000eb00c000dd000000200085
:101ad8000001be006120b800000171008181710021
:101ae800304020000100200000007100818071005a
:101af8001e0190000089be001e009000300090007a
:101b08009e007800b1009000914078000174a10017
:101b1800014878001e009000300090000000e800a6
:101b280041c9b300014878001e00900030009000c1
:101b38000080e80081c2b300014878001e009000d0
:101b4800300090006300400080c0eb00014878003e
:101b58001e00900041c0b300414098001e00900054
:101b6800ed080700b90037001e007800300090002b
:101b780063004000104078000080fb00e50f500033
:101b88003e003e00110020008008dd0060022000b9
:101b9800008060000000e0003800320038c9bf0053
:101ba8000080fb008000eb004309dd00cd01de0072
:101bb800830171004301dd00f00f200001002000c7
:101bc80002027800030178008001780001007800a3
:101bd80003026200000061008000eb00c000dd002d
:101be800000020000001be006120b8000001710063
:101bf8008181710030402000010020000000710048
:101c0800818071001e0190000089be001e009000b6
:101c1800300090009e007800b1009000914078005c
:101c28000174a100014878001e0090003000900067
:101c38000000e80041c9b300014878001e00900088
:101c4800300090000080e800e1c0b300014878004f
:101c58001e009000300090006300400080c0eb0040
:101c6800014878001e00900041c0b3004140980030
:101c78001e009000a80807007400370038c9bf008c
:101c88000080fb008000eb004309dd00cd01de0091
:101c9800830171004301dd00f00f200001002000e6
:101ca80002027800030178008001780001007800c2
:101cb80003026200000061008000eb00c000dd004c
:101cc800000020000001be006120b8000001710082
:101cd8008181710030402000010020000000710067
:101ce800818071001e0190000089be001e009000d6
:101cf800300090009e007800b1009000914078007c
:101d08000174a100014878001e0090003000900086
:101d18000000e80041c9b300014878001e009000a7
:101d2800300090000080e80081c2b30001487800cc
:101d38001e009000300090006300400080c0eb005f
:101d4800014878001e00900041c0b300414098004f
:101d58001e009000700807003c0037009e009000ad
:101d68001e007800000607003800370038c9bf0099
:101d78000080fb008000eb004309dd00cd01de00a0
:101d8800830171004301dd00f00f200001002000f5
:101d980002027800030178008001780001007800d1
:101da80003026200000061008000eb00c000dd005b
:101db800000020000001be006120b8000001710091
:101dc8008181710030402000010020000000710076
:101dd800818071001e0190000089be001e009000e5
:101de800300090009e007800b1009000914078008b
:101df8000174a100014878001e0090003000900096
:101e08000000e80041c9b300014878001e009000b6
:101e1800300090000080e80081c0b30001487800dd
:101e28001e009000300090006300400080c0eb006e
:101e3800014878001e00900041c0b300414098005e
:101e48001e00900034080700000000000080fa001f
:101e5800000006000400fa00000f7800110798003f
:101e680038c9bf000080fb008000eb004309dd009b
:101e7800cd01de00830171004301dd00f00f200079
:101e88000100200002027800030178008001780038
:101e98000100780003026200000061008000eb008e
:101ea800c000dd00000020000001be006120b80075
:101eb8000001710081817100304020000100200084
:101ec80000007100818071001e0190000089be0031
:101ed8001e009000300090009e007800b100900035
:101ee800914078000174a100014878001e0090001c
:101ef800300090000000e80041c9b30001487800b4
:101f08001e009000300090000080e80081c0b300ff
:101f1800014878001e0090003000900063004000e7
:101f280011c0b300014878001e00900041c0b30002
:101f3800414098001e009000f70707000080fa0053
:101f4800000006000400fa00000f7800110798004e
:101f580038c9bf000080fb008000eb004309dd00aa
:101f6800cd01de00830171004301dd00f00f200088
:101f78000100200002027800030178008001780047
:101f88000100780003026200000061008000eb009d
:101f9800c000dd00000020000001be006120b80084
:101fa8000001710081817100304020000100200093
:101fb80000007100818071001e0190000089be0040
:101fc8001e009000300090009e007800b100900044
:101fd800914078000174a100014878001e00780043
:101fe800300090000000e800104078000080fb00fe
:101ff800ee0f50001b003200f00f500059003a005d
:102008001e009000300090000000e80001c9b300f5
:10201800014878001e009000300090000080e80021
:102028009e007800b1009000e58040009140780063
:10203800014878001e0090003000900063004000c6
:102048009e007800b1009000e68040009140780042
:10205800014878001e00900041c0b300414098003c
:10206800530037001e009000300090000000e80088
:10207800e1c8b300014878001e00780030009000e5
:102088006400400010407800e74f50000e003a000e
:102098001e009000300090000080e80081c0b3006e
:1020a800014878001e009000300090006300400056
:1020b8008040eb00014878001e00900041c0b3004a
:1020c800414098003a0037001e0078003000900028
:1020d8006400400010407800e84f50000e003a00bd
:1020e8001e009000300090000080e80081c0b3001e
:1020f800014878001e009000300090006300400006
:102108008040eb00014878001e00900041c0b300f9
:1021180041409800260037001e00900030009000d3
:102128000000e80041c9b300014878001e00900093
:10213800300090000080e80081c0b30001487800ba
:102148001e009000300090006300400011c0b300f2
:10215800014878001e00900041c0b300414098003b
:10216800130037001e009000300090000000e800c7
:1021780041c9b300014878001e009000300090006b
:102188000080e80081c0b300014878001e0090007c
:10219800300090006300400011c0b300014878008f
:1021a8001e00900041c0b3004140980000000000ac
:1021b8001e009000580707000080fa000000060083
:1021c8000400fa00000f78001107980038c9bf0012
:1021d8000080fb008000eb004309dd00cd01de003c
:1021e800830171004301dd00f00f20000100200091
:1021f800020278000301780080017800010078006d
:1022080003026200000061008000eb00c000dd00f6
:10221800000020000001be006120b800000171002c
:102228008181710030402000010020000000710011
:10223800818071001e0190000089be001e00900080
:10224800300090009e007800b10090009140780026
:102258000174a100014878001e0078003000900049
:102268000000e80010407800f04f500018003a00d5
:102278001e009000300090000000e80001c9b30083
:10228800014878001e009000300090000080e800af
:102298009e007800b1009000e580400091407800f1
:1022a800014878001e009000300090006300400054
:1022b8009e007800b1009000e680400091407800d0
:1022c8000148780040c0b300d6e8b70045003700a1
:1022d8001e007800300090000000e80010407800f0
:1022e800ee4f50002d003a001e0090003000900084
:1022f8000000e800e1c8b300014878001e0078003b
:10230800300090006400400010407800e74f500013
:102318000e003a001e009000300090000080e80097
:1023280081c0b300014878001e0090003000900082
:10233800630040008040eb00014878001e009000d8
:1023480041c0b30041409800260037001e007800c5
:10235800300090006400400010407800e84f5000c2
:1023680020003a001e009000300090000080e80035
:1023780081c0b300014878001e0090003000900032
:10238800630040008040eb00014878001e00900088
:1023980041c0b30041409800120037001e00900071
:1023a800300090000000e80041c9b30001487800ff
:1023b8001e009000300090000080e80081c0b3004b
:1023c800014878001e009000300090006300400033
:1023d80011c0b300014878001e00900041c0b3004e
:1023e800414098001e009000cb0607000080fa00cc
:1023f800000006000400fa00000f7800110798009a
:1024080038c9bf000080fb008000eb004309dd00f5
:10241800cd01de00830171004301dd00f00f2000d3
:102428000100200002027800030178008001780092
:102438000100780003026200000061008000eb00e8
:10244800c000dd00000020000001be006120b800cf
:1024580000017100818171003040200001002000de
:1024680000007100818071001e0190000089be008b
:102478001e009000300090009e007800b10090008f
:10248800914078000174a100014878001e00900076
:10249800300090000000e80041c9b300014878000e
:1024a8001e009000300090000080e80081c0b3005a
:1024b800014878001e009000300090006300400042
:1024c80011c0b300014878001e00900041c0b3005d
:1024d800414098001e0090008f0607000080fa0017
:1024e800000006000400fa00000f780011079800a9
:1024f8001e007800300090000000e80010407800ce
:10250800ee4f500008013a0038c9bf000080fb00b8
:102518008000eb004309dd00cd01de00830171007e
:102528004301dd00f00f20000100200002027800c6
:10253800030178008001780001007800030262003e
:10254800000061008000eb00c000dd0000002000fa
:102558000001be006120b800000171008181710096
:1025680030402000010020000000710081807100cf
:102578001e0190000089be001e00900030009000ef
:102588009e007800b1009000914078000174a1008d
:10259800014878001e009000300090000000e8001c
:1025a800e1c8b300014878001e00780030009000b0
:1025b80064004000104078000080fb00e40f5000e9
:1025c80049003200e40f500007003c00e20f5000c1
:1025d8001f003200e20f500030003c00e10f5000b5
:1025e80008003200bb003700e60f500063003200dd
:1025f800e60f50004e003500e70f5000870032000c
:10260800b40037001e009000300090000080e80001
:10261800e149800081407800014878001e00900060
:102628003000900063004000e1498000c808de00e7
:1026380081407800014878001e00900041c0b30036
:10264800414098001e00900033060700b60037008e
:102658001e009000300090000080e800f1498000e2
:1026680081407800014878001e00900030009000fa
:1026780063004000f1498000c808de00814078000e
:10268800014878001e00900041c0b3004140980006
:102698001e00900020060700a30037001e009000cf
:1026a800300090000080e800014a800081407800f6
:1026b800014878001e009000300090006300400040
:1026c800014a8000c808de0081407800014878008f
:1026d8001e00900041c0b300414098001e009000c9
:1026e8000d060700900037001e0090003000900093
:1026f8000080e8002194200091407800014878008b
:102708001e009000300090006300400031942000cb
:1027180091407800014878001e00900041c0b30045
:10272800414098001e009000fb0507007e0037001e
:102738001e009000300090000080e800214a8000d0
:1027480081407800014878001e0090003000900019
:1027580063004000214a8000c808de0081407800fc
:10276800014878001e00900041c0b3004140980025
:102778001e009000e80507006b0037001e0090005f
:10278800300090000081e800304a8000414a800013
:1027980000407800004978001e009000300090004a
:1027a80063014000304a8000414a8000c809dd00ca
:1027b8004800de0000807100c808de000040780094
:1027c800004978001e00900030009000640140002d
:1027d800304a8000414a80004008de00004078000e
:1027e800004978001e00900030009000650140000c
:1027f800304a8000414a80004808de0000407800e6
:10280800004978001e00900061c0b3004140980064
:102818001e009000c0050700430037001e0090000e
:10282800300090000080e800514a80008140780024
:10283800014878001e0090003000900063004000be
:10284800614a800091407800014878001e0090009d
:102858003000900064004000614a80008100e80078
:1028680091407800014878001e00900030009000e8
:1028780065004000614a80008180e800914078004e
:10288800014878001e00900030009000660040006b
:10289800614a8000e3804000914078000148780058
:1028a8001e0090003000900067004000614a8000e0
:1028b800e480400091407800014878001e009000b4
:1028c80081c0b300414098001e00900092050700a7
:1028d800150037001e009000300090000000e8004e
:1028e80041c9b300014878001e00900030009000f4
:1028f8000080e800e1c0b300014878001e009000a5
:10290800300090006300400080c0eb000148780070
:102918001e00900041c0b300414098001e00900086
:102928007d050700000000000080fa000000060096
:102938000400fa00000f78001107980038c9bf009a
:102948000080fb008000eb004309dd00cd01de00c4
:10295800830171004301dd00f00f20000100200019
:1029680002027800030178008001780001007800f5
:1029780003026200000061008000eb00c000dd007f
:10298800000020000001be006120b80000017100b5
:10299800818171003040200001002000000071009a
:1029a800818071001e0190000089be001e00900009
:1029b800300090009e007800b100900091407800af
:1029c8000174a100014878001e00900030009000ba
:1029d8000000e80041c9b300014878001e009000db
:1029e800300090000080e80081c0b3000148780002
:1029f8001e009000300090006300400011c0b3003a
:102a0800014878001e00900041c0b3004140980082
:102a18001e009000400507000080fa000000060034
:102a28000000fa0030c0b30006e9b7000769ef00fc
:102a380030c8b30008e9b700f00f200050488800fc
:102a4800f00f20006048880020c2b3000ee9b700ec
:102a5800f00f200080488800f00f20009048880080
:102a6800409c2000a048880010c0b30016e9b700b9
:102a78001829ef00f00f2000304988003429ef00b2
:102a88000080fa00000006000000fa0010c0b30041
:102a9800d6e8b70010c0b300d7e8b70020c8b30025
:102aa800d8e8b700f00f2000d0468800f00f2000cb
:102ab800e046880010c0b300dee8b700f00f200041
:102ac80000478800f00f200010478800e428ef0036
:102ad800e668ef00f00f200040478800f00f200064
:102ae800b04788000429ef000080fa0000000600c3
:102af8000600fa0010079800210798001e009000b1
:102b08001000be004d09dd004300de00000071002a
:102b1800c388de0000407800f1c3b300014f6000b5
:102b28001e0090001000be00004078006340600066
:102b38001047980038c9bf009e4f500022003a0045
:102b48001e4090000080fb00e50f5000140032008a
:102b5800e50f500003003c00e40f50001400320061
:102b680019003700e60f500009003200e70f500047
:102b780015003a0038c9bf009e4f500011003a00b6
:102b880001c8b3001e009000110007000e003700b6
:102b9800ae0090001e009000730207000a00370084
:102ba800ae0090001e0090004404070006003700a5
:102bb800ae0090001e009000e40307000000000033
:102bc80001003700000000000080fa000000060045
:102bd8000400fa00000f78002147980038c9bf00a8
:102be8000080fb008000eb004309dd00cd01de0022
:102bf800830171004301dd00f00f20000100200077
:102c08000202780003017800800178000100780052
:102c180003026200000061008000eb00c000dd00dc
:102c2800000020000001be006120b8000001710012
:102c380081817100704020000100200000007100b7
:102c4800818071001e0178000089be001e00780096
:102c580030009000ae409000014878001e007800d7
:102c6800300090000000e800e149800081407800d1
:102c7800014878001e007800300090000080e800cd
:102c8800e1498000c808de008140780001487800ea
:102c98001e0078003000900063014000304a800038
:102ca800414a800000407800004978001e00780002
:102cb8003000900064014000304a8000414a8000a2
:102cc800c809dd004800de0000807100c808de0089
:102cd80000407800004978001e007800300090001d
:102ce80065014000304a8000414a80004008de000b
:102cf80000407800004978001e00780030009000fd
:102d080066014000304a8000414a80004808de00e1
:102d180000407800004978001e00780071c0b300b8
:102d2800414098001e0078007b0407000080fa00ec
:102d3800000006000800fa002007980031079800f4
:102d48000000eb00000f78002e0090008040eb00a0
:102d5800014898008040eb003e0090009cff07006f
:102d68007a0407001d0037002e00900000489000ec
:102d78000004e000190032002e0090001000be0090
:102d88004d09dd004300de0000007100c388de004d
:102d980000407800f043b200204798002e009000d1
:102da8001000be0000407800634060003047980083
:102db8003e409000e74f500007003a008193200002
:102dc800914078002e40900080cf500003003a00d8
:102dd80000c0eb000a003700000000006104070093
:102de8000004e000e0ff3a001e0fe8001e0fe800b4
:102df8001e007800e10f5000d3ff34000040eb00c4
:102e08000080fa00000006000400fa00000f7800b5
:102e180011079800204a8000610060000040780097
:102e28000004e000400032001e00780030009000ee
:102e380065004000904078003bc9bf0080cf50003b
:102e48003900320038c9bf000080fb008000eb0069
:102e58004309dd00cd01de00830171004301dd007f
:102e6800f00f200001002000020278000301780022
:102e78008001780001007800030262000000610010
:102e88008000eb00c000dd00000020000001be0053
:102e98006120b8000001710081817100304020007c
:102ea8000100200000007100818071001e01900067
:102eb8000089be001e009000300090009e0078003f
:102ec800b1009000914078000174a1000148780099
:102ed8001e009000300090000000e80041c9b300d7
:102ee800014878001e009000300090000080e80043
:102ef800c1c0b300014878001e0090003000900067
:102f08006300400011c0b300014878001e00900023
:102f180041c0b300414098001e009000fe03070026
:102f28000040eb00c70037001e007800300090001a
:102f38000080e80010407800e34f500006003a0097
:102f48001e007800300090006300400010407800b8
:102f5800e14f50003900320038c9bf000080fb0043
:102f68008000eb004309dd00cd01de008301710024
:102f78004301dd00f00f200001002000020278006c
:102f880003017800800178000100780003026200e4
:102f9800000061008000eb00c000dd0000002000a0
:102fa8000001be006120b80000017100818171003c
:102fb8003040200001002000000071008180710075
:102fc8001e0190000089be001e0090003000900095
:102fd8009e007800b1009000914078000174a10033
:102fe800014878001e009000300090000000e800c2
:102ff80041c9b300014878001e00900030009000dd
:103008000080e80091c0b300014878001e009000dd
:10301800300090006300400080c0eb000148780059
:103028001e00900041c0b300414098001e0090006f
:10303800b90307000040eb00820037001e0078004b
:103048003000900064004000104078000004e00068
:1030580039003a0038c9bf000080fb008000eb004f
:103068004309dd00cd01de00830171004301dd006d
:10307800f00f200001002000020278000301780010
:1030880080017800010078000302620000006100fe
:103098008000eb00c000dd00000020000001be0041
:1030a8006120b8000001710081817100304020006a
:1030b8000100200000007100818071001e01900055
:1030c8000089be001e009000300090009e0078002d
:1030d800b1009000914078000174a1000148780087
:1030e8001e009000300090000000e80041c9b300c5
:1030f800014878001e009000300090000080e80031
:1031080091c8b300014878001e009000300090007c
:103118006300400021c0b300014878001e00900001
:1031280041c0b300414098001e0090007a03070098
:103138000040eb00430037001e007800300090008c
:1031480064004000104078008080fb0080ff2f0062
:10315800008060000000e0003900320038c9bf007c
:103168000080fb008000eb004309dd00cd01de009c
:10317800830171004301dd00f00f200001002000f1
:1031880002027800030178008001780001007800cd
:1031980003026200000061008000eb00c000dd0057
:1031a800000020000001be006120b800000171008d
:1031b8008181710030402000010020000000710072
:1031c800818071001e0190000089be001e009000e1
:1031d800300090009e007800b10090009140780087
:1031e8000174a100014878001e0090003000900092
:1031f8000000e80041c9b300014878001e009000b3
:10320800300090000080e80021c8b3000148780031
:103218001e009000300090006300400021c0b30001
:10322800014878001e00900041c0b300414098005a
:103238001e009000380307000040eb000100370033
:1032480000c0eb000080fa00000006000400fa004d
:10325800000f7800110798001e00780030009000d9
:1032680064004000104078000004e00009003200cb
:103278001e00780030009000640040001040780084
:103288008080fb00f0032000008060000000e00068
:103298002f00320038c9bf000080fb008000eb001f
:1032a8004309dd00cd01de00830171004301dd002b
:1032b800f00f2000010020000202780003017800ce
:1032c80080017800010078000302620000006100bc
:1032d8008000eb00c000dd00000020000001be00ff
:1032e8006120b80000017100818171003040200028
:1032f8000100200000007100818071001e01900013
:103308000089be001e009000300090009e007800ea
:10331800b1009000914078000174a1000148780044
:103328001e009000300090000000e800c1ccb300ff
:10333800014878001e00900021c0b3004140980069
:103348001e009000f40207000040eb0084003700e4
:103358001e007800300090006400400010407800a3
:103368008080fb0080ff2f00008060000000e000ec
:103378003900320038c9bf000080fb008000eb0034
:103388004309dd00cd01de00830171004301dd004a
:10339800f00f2000010020000202780003017800ed
:1033a80080017800010078000302620000006100db
:1033b8008000eb00c000dd00000020000001be001e
:1033c8006120b80000017100818171003040200047
:1033d8000100200000007100818071001e01900032
:1033e8000089be001e009000300090009e0078000a
:1033f800b1009000914078000174a1000148780064
:103408001e009000300090000000e80041c9b300a1
:10341800014878001e009000300090000080e8000d
:1034280021c0b300014878001e00900030009000d1
:103438006300400021c0b300014878001e009000de
:1034480041c0b300414098001e009000b20207003e
:103458000040eb00420037001e007800300090006a
:1034680064004000904078003ac9bf0000c0600086
:103478000004e0003900320038c9bf000080fb00ba
:103488008000eb004309dd00cd01de0083017100ff
:103498004301dd00f00f2000010020000202780047
:1034a80003017800800178000100780003026200bf
:1034b800000061008000eb00c000dd00000020007b
:1034c8000001be006120b800000171008181710017
:1034d8003040200001002000000071008180710050
:1034e8001e0190000089be001e0090003000900070
:1034f8009e007800b1009000914078000174a1000e
:10350800014878001e009000300090000000e8009c
:1035180041c9b300014878001e00900030009000b7
:103528000080e800b1c0b300014878001e00900098
:10353800300090006300400021c0b30001487800cb
:103548001e00900041c0b300414098001e0090004a
:10355800710207000040eb000100370000c0eb00db
:103568000080fa00000006000400fa00000f78004e
:10357800110798001e007800300090000000e80055
:1035880090407800b0c4b30080cf5000e3003a0008
:103598009e0090001e0078001bfe07000004e0005b
:1035a800650132001e007800300090006500400080
:1035b800104078003be9b700a193200091407800c3
:1035c8001e00780030009000640040001040780031
:1035d80000c070003ae9b7001e0078003000900083
:1035e80064004000104078000080fb00620060002a
:1035f8000000e0004100320023fd070038c9bf0089
:103608000080fb00c500dd0000802700010070007d
:10361800d046880038c9bf000080fb004800dd00a4
:1036280080007800000a280001007000e046880049
:1036380038c9bf000080fb008000eb004309dd00b3
:10364800cd01de00830171004301dd00f00f200091
:103658000100200002027800030178008001780050
:103668000100780003026200000061008000eb00a6
:10367800c000dd00000020000001be006120b8008d
:10368800000171008181710030402000010020009c
:1036980000007100818071001e0190000089be0049
:1036a8001e009000300090009e007800b10090004d
:1036b800914078000174a100014878001e00900034
:1036c800300090000000e800b1ccb3000148780059
:1036d8001e009000300090000080e8008040eb0061
:1036e800014878001e00900031c0b30041409800a6
:1036f8001e00900008020700120137001e00780023
:103708003000900064004000104078000080fb000a
:1037180061006000004078000004e00040003200d2
:10372800bffc070038c9bf000080fb00c500dd00f2
:1037380000802700010070005048880038c9bf0089
:103748000080fb004800dd008000780000082800a9
:10375800010070006048880038c9bf000080fb0085
:103768008000eb004309dd00cd01de00830171001c
:103778004301dd00f00f2000010020000202780064
:1037880003017800800178000100780003026200dc
:10379800000061008000eb00c000dd000000200098
:1037a8000001be006120b800000171008181710034
:1037b800304020000100200000007100818071006d
:1037c8001e0190000089be001e009000300090008d
:1037d8009e007800b1009000914078000174a1002b
:1037e800014878001e009000300090000000e800ba
:1037f800b1ccb300014878001e0090003000900062
:103808000080e8008040eb00014878001e0090002e
:1038180031c0b300414098001e009000be0107006f
:103828001e007800300090006400400010407800ce
:103838000080fb00640060000000e00033003200fc
:1038480038c9bf000080fb008000eb004309dd00a1
:10385800cd01de00830171004301dd00f00f20007f
:10386800010020000202780003017800800178003e
:103878000100780003026200000061008000eb0094
:10388800c000dd00000020000001be006120b8007b
:10389800000171008181710030402000010020008a
:1038a80000007100818071001e0190000089be0037
:1038b8001e009000300090009e007800b10090003b
:1038c800914078000174a100014878001e00900022
:1038d800300090000000e800b1ccb3000148780047
:1038e8001e009000300090000080e8008040eb004f
:1038f800014878001e00900031c0b3004140980094
:103908001e009000840107008e003700204a8000c6
:103918000000a000204a88008a0037001e007800b6
:10392800300090000000e80090407800c0c4b30068
:1039380080cf500047003a009e0090001e0078009b
:1039480042fe07000004e0007d0032001e007800ff
:103958003000900064004000104078003ae9b70059
:103968001e0078003000900064004000104078008d
:103978000004e00004003a00214a8000e0ff2f0024
:1039880000806000204a880038c9bf000080fb0022
:103998008000eb004309dd00cd01de0083017100ea
:1039a8004301dd00f00f2000010020000202780032
:1039b80003017800800178000100780003026200aa
:1039c800000061008000eb00c000dd000000200066
:1039d8000001be006120b800000171008181710002
:1039e800304020000100200000007100818071003b
:1039f8001e0190000089be001e009000300090005b
:103a08009e007800b1009000914078000174a100f8
:103a1800014878001e009000300090000000e80087
:103a2800b1ccb300014878001e009000300090002f
:103a38000080e8008040eb00014878001e009000fc
:103a480031c0b300414098001e00900032010700c9
:103a58003c00370038c9bf000080fb008000eb0045
:103a68004309dd00cd01de00830171004301dd0063
:103a7800f00f200001002000020278000301780006
:103a880080017800010078000302620000006100f4
:103a98008000eb00c000dd00000020000001be0037
:103aa8006120b80000017100818171003040200060
:103ab8000100200000007100818071001e0190004b
:103ac8000089be001e009000300090009e00780023
:103ad800b1009000914078000174a100014878007d
:103ae8001e009000300090000000e80041c9b300bb
:103af800014878001e009000300090000080e80027
:103b080081c0b300014878001e009000300090008a
:103b18006300400021c0b300014878001e009000f7
:103b280041c0b300414098001e009000fa00070011
:103b3800000000000300370000000000010037000b
:103b4800000000000080fa00000006000600fa00ed
:103b580010079800210798001e0090003000900080
:103b68000080e800104f78001e00900030009000a0
:103b78006300400090407800114798003ac9bf00a0
:103b88000080fb00610060000000e000420032009d
:103b98001e80fb00e20f500018003200e20f5000b8
:103ba80003003c00e10f50000600320041003700de
:103bb800e30f500015003200e50f500021003200dd
:103bc8003c0037001e4090000004e00004003a006a
:103bd800ae0090001e00900006fa0700350037007e
:103be8001e409000e14f50002d003a00ae009000ba
:103bf8001e0090003bfa07002e003700ae00900030
:103c08001e0090004afb07002a0037001e40900063
:103c18000004e00004003a00ae0090001e0090008e
:103c28001ef60700230037001e409000e14f5000a9
:103c38001d003a00ae0090001e009000d2f607006a
:103c48001c0037001e4090000004e00004003a0009
:103c5800ae0090001e0090007ef8070015003700a7
:103c68001e409000e14f500004003a00ae00900062
:103c78001e009000b3f807000e0037001e409000a9
:103c8800e24f50000a003a00ae0090001e0090007b
:103c98004bf9070007003700000000000500370057
:103ca800000000000300370000000000010037009a
:103cb800000000000080fa00000006000400fa007e
:103cc800000f7800110798001e007800300090005f
:103cd800104078006ce9b7001e00780030009000b2
:103ce8000000e800104078006de9b7001e00780079
:103cf800300090000080e800104078006ee9b700be
:103d08001e007800300090006300400010407800ea
:103d18006fe9b700d6c8bf00e44f500042003a0030
:103d280038c9bf000081fb008001eb00f0032000d0
:103d38000100200002027800030178008001780069
:103d48000100780003026200000061008000eb00bf
:103d5800c000dd00000020000001be006120b800a6
:103d680000017100818171001e0090000288be0070
:103d78001e00900030009000a1c1b30001487800f7
:103d88001e009000300090000000e800a1c2b300bf
:103d9800014878001e009000300090000080e80084
:103da800a1c3b300014878001e00900030009000c5
:103db80063004000a1c4b300014878001e009000d1
:103dc8003000900064004000a1c5b30001487800ad
:103dd8001e0090003000900065004000a1c6b300ae
:103de800014878001e0090003000900066004000f6
:103df800a1c7b300014878001e0090003000900071
:103e080067004000a1c8b300014878001e00900078
:103e180081c0b300414098001e0090003e0007009a
:103e28000000000001003700000000000080fa00d8
:103e3800000006000000fa000080fa0000000600fa
:103e48000800fa00100798002107980062479800b8
:103e58000040eb00004f78001e0090001000780032
:103e6800c300de00f003200000806000e20f500075
:103e7800020032000040eb00250037007cc9bf007b
:103e88000004e000020032000040eb002000370090
:103e98006e409000e84f50001c003e001e0090004d
:103ea800100078008000eb00a04b8800b14b880020
:103eb8006e41900081972000824878000040eb0016
:103ec800004f780009003700d14b80001e80fb00ae
:103ed800008040009e80fb002e0190008100410080
:103ee80091407800014878001e4fe8006e4090002d
:103ef8009e40780080cf5000f3ff390000c0eb00ef
:103f08007ce9b70000c0eb00010037000040eb007f
:103f18000080fa00000006000200fa00000f780096
:103f28001e007800404190001e007800b00190000b
:103f38001e0078001000be000000780083007800a2
:103f4800250207000080fa00000006000000fa00c1
:103f5800803e200094090700b40907000080fa0099
:103f6800000006000000fa0021048000000820007c
:103f7800008060000000e0000300320084e0a90037
:103f88000040eb000100370000c0eb000080fa00a1
:103f9800000006000000fa009163a800901c800051
:103fa8000060a1000070a100901c8800911c800096
:103fb80000fc2f0000806000901c8800503f20000b
:103fc800a01c88000080fa00000006000400fa0027
:103fd800000f7800110798008e23ef008e03a900c8
:103fe8003003a9001e00780010009000c500de0014
:103ff800f07f2000008060004200dd008219800010
:1040080031002e00810061000100700080198800d5
:104018000003a9001e00900010009000c500de00fb
:10402800f07f2000008060004200dd000218800060
:1040380031002e0081006100010070000018880026
:104048000080fa00000006000400fa00000f780063
:10405800110798007e23ef00f01b80000000a100ec
:104068000010a0000020a100f01b88003803a80061
:104078001e00780010009000c500de00f07f2000d0
:10408800008060004200dd00c219800031002e006f
:104098008100610001007000c01988001e007800ce
:1040a80090007800c908de00100090007f006000d2
:1040b8004700dd0000807000d01988001e007800dd
:1040c800100078004300de00f043b2000080fb00df
:1040d8004a00dd00e2198000f13f20008100610004
:1040e80001007000e01988001003a8001e0090006d
:1040f80010009000c500de00f07f20000080600006
:104108004200dd008218800031002e00810061002d
:1041180001007000801888001e0090009000780050
:10412800c908de00100090007f0060004700dd0035
:1041380000807000901888001e0090001000780021
:104148004300de00f043b2000080fb004a00dd00bf
:10415800a2188000f13f200081006100010070007a
:10416800a01888000080fa00000006000800fa0085
:1041780020079800310798000000eb00000f780036
:104188000000eb00100798009623ef008760a90055
:10419800f00f2000c01c88008f60a800801c8000e1
:1041a8000080a1000090a10000a0a000801c880051
:1041b80078ff0700be0090002e00900083ff0700e4
:1041c800be0090002e0090009fff0700801c80001a
:1041d8000080a1000090a00000a0a100801c880021
:1041e8000000eb00000f7800a00a200010079800dc
:1041f8001000370080022000010020004d0a07004f
:104208000060fe0010c0b300813e20001e0178004f
:10421800810f510001003e000040eb001e0fe80036
:104228000004e000030032000000eb0010079800d3
:1042380006003700811c8000000e2000808060008e
:1042480000042000808f5000eaff3a001e00900012
:104258000080fa00000006000200fa00000f780053
:104268006003a8006023a8001e00780010009000da
:104278004b00de00004078000080fb004b00dd00b2
:10428800021b8000f17f20008100610001007000a6
:10429800001b88001e007800100090004500de001a
:1042a800f043b2008080fb00f00320000080600033
:1042b8004200dd00021b800031f02f008100610008
:1042c80001007000001b88001e007800100090009c
:1042d8000000d1006f4060000080fb004c00dd0052
:1042e800121b8000f1ff20008100610001007000b6
:1042f800101b88001e00780090007800c908de00b6
:1043080010009000610060004700dd000080700030
:104318000040780062e3b7001e00780010007800c3
:104328004300de00f043b2000080fb004a00dd00dd
:10433800221b8000f13f2000810061000100700015
:10434800201b88000080fa00000006000600fa0022
:1043580020479800210798000040eb00004f7800a4
:104368000040eb00104798002e4090000004e00049
:10437800520032002e409000e84f50004f003e009f
:104388002e4090006f4060000080fb006f006000ce
:104398004300dd00221b800071f82f0081006100be
:1043a80001007000201b88006523a900701b800095
:1043b8000000a0000010a000701b88000040eb0067
:1043c800004f78000040eb0010479800320037009b
:1043d8001e4090000080fb00e10f500012003200e8
:1043e800e10f500003003c000000e000060032002e
:1043f80025003700e20f500013003200e30f500091
:1044080019003200200037001e4090000080fb0099
:10441800ae009000000040000080400010007800ce
:10442800301b8800180037001e4090000080fb00f9
:10443800ae009000000040000080400010007800ae
:10444800401b8800100037001e4090000080fb00d1
:10445800ae0090000000400000804000100078008e
:10446800501b8800080037001e4090000080fb00a9
:10447800ae0090000000400000804000100078006e
:10448800601b8800000000001ecfe8001e4090005e
:104498000040e800104798002e4090009e407800a9
:1044a80080cf5000caff3900201b80004300de0087
:1044b8006f40600020479800020037000040eb0082
:1044c800204798002e4090000080fa000000060067
:1044d8000600fa0020479800210798000040eb00ea
:1044e800004f78000040eb00104798002e409000e5
:1044f8000004e000520032002e409000e84f5000c7
:104508004f003e002e4090006f4060000080fb008e
:104518006f0060004300dd00a21a800071f82f00d0
:104528008100610001007000a01a88005523a900cd
:10453800f01a80000000a1000010a000f01a880006
:104548000040eb00004f78000040eb001047980057
:10455800320037001e4090000080fb00e10f500041
:1045680012003200e10f500003003c000000e000a0
:104578000600320025003700e20f50001300320019
:10458800e30f500019003200200037001e40900051
:104598000080fb00ae00900000004000008040005a
:1045a80010007800b01a8800180037001e409000ec
:1045b8000080fb00ae00900000004000008040003a
:1045c80010007800c01a8800100037001e409000c4
:1045d8000080fb00ae00900000004000008040001a
:1045e80010007800d01a8800080037001e4090009c
:1045f8000080fb00ae0090000000400000804000fa
:1046080010007800e01a8800000000001ecfe800c3
:104618001e4090000040e800104798002e4090008f
:104628009e40780080cf5000caff3900a01a800051
:104638004300de006f40600020479800020037000a
:104648000040eb00204798002e4090000080fa00c0
:10465800000006000600fa0020479800210798008d
:104668000040eb00004f78000040eb001047980036
:104678002e4090000004e000520032002e409000ce
:10468800e84f50004f003e002e4090006f40600001
:104698000080fb006f0060004300dd00221a8000ec
:1046a80071f82f008100610001007000201a880055
:1046b8004523a900701b80000000a0000010a10085
:1046c800701b88000040eb00004f78000040eb00b2
:1046d80010479800320037001e4090000080fb0011
:1046e800e10f500012003200e10f500003003c00bf
:1046f8000000e0000600320025003700e20f5000fd
:1047080013003200e30f5000190032002000370078
:104718001e4090000080fb00ae00900000004000aa
:104728000080400010007800301a88001800370018
:104738001e4090000080fb00ae009000000040008a
:104748000080400010007800401a880010003700f0
:104758001e4090000080fb00ae009000000040006a
:104768000080400010007800501a880008003700c8
:104778001e4090000080fb00ae009000000040004a
:104788000080400010007800601a880000000000d7
:104798001ecfe8001e4090000040e8001047980037
:1047a8002e4090009e40780080cf5000caff39000c
:1047b800201a80004300de006f4060002047980008
:1047c800020037000040eb00204798002e40900080
:1047d8000080fa00000006000600fa00000f7800ca
:1047e80011079800424798004e409000e84f50004b
:1047f80009013e004e4090000004e000060132002e
:104808006003a9006023a8001e0078004600de00af
:10481800004078007f4060007f4060007f4060007b
:104828000080fb004b00dd00021b8000f17f2000b0
:104838008100610001007000001b88001e007800e4
:1048480000407800f043b200f043b200f043b200f9
:104858008080fb00f0032000008060004200dd0043
:10486800021b800031f02f00810061000100700000
:10487800001b88004e4090006f4060000080fb00e5
:104888006f0060004300dd00221b800071f82f00dc
:104898008100610001007000201b88006523a900c9
:1048a800701b80000000a0000010a000701b880092
:1048b8004e4090000080fb00e40f500031003200b1
:1048c800e40f500007003c00e20f500013003200d4
:1048d800e20f50001c003c00e10f50000a003200bb
:1048e800cc003700e60f500057003200e60f5000aa
:1048f8003a003500e70f500074003200e80f50000e
:1049080098003200c30037001e0090001040780065
:104918000080fb00301b8800be0037001e0090009e
:104928000000e800104078000080fb00c800dd00af
:104938001e009000104078000080fb00010070000d
:10494800301b8800b30037001e0090000000e8000c
:10495800104078000080fb00c800dd001e009000b9
:10496800104078000080fb0001007000301b8800b8
:104978001e009000104078000080fb00401b88005b
:10498800a40037001e0090000000e80010407800e6
:104998000080fb00c800dd001e0090001040780079
:1049a8000080fb0001007000301b88001e00900092
:1049b80063004000104078000080fb00c800dd0064
:1049c8001e0090000080e800104078000080fb0086
:1049d80001007000401b88008e0037001e00900008
:1049e8000000e800104078000080fb00c800dd00ef
:1049f8001e009000104078000080fb00010070004d
:104a0800301b88001e0090006300400010407800b2
:104a18000080fb00c800dd001e0090000080e80058
:104a2800104078000080fb0001007000401b8800e7
:104a38001e00900064004000104078000080fb00d9
:104a4800501b8800730037001e0090000000e8002b
:104a5800104078000080fb00c800dd001e009000b8
:104a6800104078000080fb0001007000301b8800b7
:104a78001e00900063004000104078000080fb009a
:104a8800c800dd001e0090000080e800104078009b
:104a98000080fb0001007000401b88001e00900091
:104aa80065004000104078000080fb00c800dd0071
:104ab8001e00900064004000104078000080fb0059
:104ac80001007000501b8800520037001e00900043
:104ad8000000e800104078000080fb00c800dd00fe
:104ae8001e009000104078000080fb00010070005c
:104af800301b88001e0090006300400010407800c2
:104b08000080fb00c800dd001e0090000080e80067
:104b1800104078000080fb0001007000401b8800f6
:104b28001e00900065004000104078000080fb00e7
:104b3800c800dd001e0090006400400010407800ae
:104b48000080fb0001007000501b88001e009000d0
:104b580066004000104078000080fb00601b880061
:104b68002c0037001e0090000000e800104078007c
:104b78000080fb00c800dd001e0090001040780097
:104b88000080fb0001007000301b88001e009000b0
:104b980063004000104078000080fb00c800dd0082
:104ba8001e0090000080e800104078000080fb00a4
:104bb80001007000401b88001e0090006500400046
:104bc800104078000080fb00c800dd001e00900047
:104bd80064004000104078000080fb000100700075
:104be800501b88001e0090006700400010407800ad
:104bf8000080fb00c800dd001e0090006600400039
:104c0800104078000080fb0001007000601b8800e5
:104c1800000000006e63a8000040eb000080fa006e
:104c2800000006000600fa00200798000040eb008c
:104c3800004f78000040eb00104798000040eb0060
:104c480020479800711c8000000820000080600048
:104c58000000e00046003200701c80006800600020
:104c68000000e00042003a00201c8000004078006c
:104c78006f406000004f78000040eb00104798003c
:104c88000040eb0020479800360037002e40900087
:104c98000080fb00e10f500012003200e10f5000cd
:104ca80003003c000000e000060032002500370049
:104cb800e20f500013003200e30f500019003200d9
:104cc800200037002e4090000080fb00311c80003f
:104cd8002e0190000000400000004100010878000b
:104ce8001a0037002e4090000080fb00411c800015
:104cf8002e019000000040000000410001087800eb
:104d0800120037002e4090000080fb00511c8000ec
:104d18002e019000000040000000410001087800ca
:104d28000a0037002e4090000080fb00611c8000c4
:104d38002e019000000040000000410001087800aa
:104d4800020037000040eb000a0037001e409000c8
:104d580000c0e800104798002e4090000040e8008e
:104d6800204798001e4090009e4f5000c7ff390012
:104d78001e4078000080fa00000006000200fa00d9
:104d8800000f7800001c80004200de00f17f200048
:104d9800010060009e0078004500dd0011019000d0
:104da8007f0161000200700090009800111c8000d3
:104db800f0ff2000808060001e007800f2072000cd
:104dc800028160004911dd0010027800f31f200005
:104dd800830162000301710002087800c708de0041
:104de800ff806000ff8060009001900002fe2f00ad
:104df800028161008280700011009800201c8000f0
:104e08004a00de00804078001e0078000181fb0027
:104e1800f103200081006100c308dd0090017800e3
:104e280072e02f0002816100828070000108780022
:104e38000080fa00000006003600f800809fbe00df
:104e4800829fbe00849fbe00869fbe000000fa00bd
:104e58008760a900b01c8000640060000000e000ca
:104e6800020032009643a90005003700b01c8000fc
:104e7800680060000000e000010032009663a900ad
:104e8800b01c8000610060000000e00007003200f4
:104e9800809d2000b9ff07009603a900e09c200030
:104ea80060ff0700d6e9b70005003700b01c800096
:104eb800620060000000e000010032009623a900b3
:104ec8000080fa004f03be004f02be004f01be0033
:104ed8004f00be003600f900004006000200fa004c
:104ee800000f78000060fe001e00780021a22a0052
:104ef800810f50002a00320021a22a00810f5000a1
:104f08000a003e0021522500810f50004a0032005d
:104f180011a12a00810f50000e0032001151250006
:104f2800810f5000310032008200370071a72a003b
:104f3800810f500073003200d1bc2a00810f50004d
:104f48005000320051a52a00810f50006100320044
:104f580078003700d0168000640060000000e00090
:104f68000d00320040168000620060000000e00082
:104f780009003200e10607000000e00006003200e8
:104f8800d0168000680060000000e00002003a00cf
:104f980010002000010037000000eb006700370018
:104fa800d0168000620060000000e0000d003200b2
:104fb800d0168000610060000000e00009003200a7
:104fc800ce0607000000e00006003200d016800080
:104fd800680060000000e00002003a0010002000b5
:104fe800010037000000eb0054003700d0168000a5
:104ff800640060000000e0000d00320040168000f0
:10500800680060000000e00009003200bb060700ed
:105018000000e00006003200d01680006800600042
:105028000000e000020032001000200001003700fc
:105038000000eb0041003700d016800062006000dd
:105048000000e0000d00320040168000640060009f
:105058000000e00009003200a80607000000e00098
:1050680006003200d0168000680060000000e000f2
:105078000200320010002000010037000000eb00a1
:105088002e003700d0168000620060000000e000ab
:1050980004003200d0168000640060000000e000c8
:1050a80008003a00d0168000620060000000e000ae
:1050b80006003a00d0168000640060000000e0009e
:1050c80002003a0010002000010037000000eb0049
:1050d8001a003700d0168000620060000000e0006f
:1050e80006003200d0168000610060000000e00079
:1050f8000200320010002000010037000000eb0021
:105108000e003700d0168000620060000000e0004a
:105118000600320040168000640060000000e000d5
:105128000200320010002000010037000000eb00f0
:10513800020037000000fe000000eb000080fa00cb
:10514800000006000800fa00300798000000eb0095
:10515800000f78000000eb00100798000000eb003b
:10516800200798000060fe003e0090005bff0700eb
:105178000000e000270032000000eb00000f78007c
:105188000000eb00100798000000eb0020079800d3
:1051980013003700001920000100200065060700f1
:1051a8000060fe003e0090004cff07000000e00099
:1051b800020032001e0fe800030037001e009000b6
:1051c8000000e800100798001e009000ea0f500049
:1051d80008003e002e0090000000e800200798001c
:1051e800ae00900030062000808f5000e9ff3600a6
:1051f8000100370000000000a00520009e00780094
:10520800808f5000030036000060fe000080eb0035
:10521800010037000000eb000080fa0000000600e3
:105228000000fa000060fe00d0bc2a00c5ff07009d
:105238000000e000050032000060fe00f00f2000d2
:10524800904f880010c2b30034003700f229ef00f5
:105258000060fe0020a22a00baff07000000e0005c
:10526800040032000060fe006dec070030c2b3009d
:105278002a0037000060fe0020522500b1ff070019
:105288000000e000040032000060fe0064ec07004b
:1052980030c2b300210037000060fe0010a12a00d0
:1052a800a8ff07000000e000040032000060fe00d4
:1052b80054ec070020c2b300180037000060fe005d
:1052c800105125009fff07000000e0000400320095
:1052d8000060fe004bec070020c2b3000f0037004f
:1052e8000060fe00d0168000640060000000e0004e
:1052f8000200320050c2b300080037000060fe0010
:10530800d0168000620060000000e0000200320059
:1053180040c2b300010037000040eb000080fa00f3
:10532800000006000000fa000060fe00f305070018
:105338000000e000080032000060fe00a1cab300cf
:1053480000c2b3002804070051c5b300e0cfb30082
:1053580025040700070037000060fe0051c5b300b0
:10536800f0cdb30020040700a1cab30010c0b300f9
:105378001d0407000080fa00000006000200fa0081
:105388000040eb00004f78000060fe00a4ff07001b
:10539800004f78000060fe001e80fb0031022000f4
:1053a800810f50001f00320031022000810f500091
:1053b80007003c0011022000810f50000b00320052
:1053c80021022000810f5000120032002d0037000a
:1053d80041022000810f50001600320051022000c7
:1053e800810f50001d003200260037000060fe00cb
:1053f80051c5b30070ceb300fb030700a1cab300c8
:1054080020c4b300f80307000040eb00004f780009
:105418001f0037000060fe00a8ec070000c0eb008a
:105428001c0037000060fe00d0ec070000c0eb0055
:10543800180037000060fe00a1cab30080c0b300a6
:10544800e903070051c5b300d0cab300e60307005b
:105458000040eb00004f78000d0037000060fe00b0
:10546800a1cab30000c1b300df03070051c5b300f0
:1054780050cbb300dc0307000040eb00004f78007e
:10548800030037000060fe000040eb00004f78008a
:105498000040eb000080fa00000006000400fa005b
:1054a800100798000000eb00000f7800d01680006d
:1054b800680060000000e00002003a000040eb00d5
:1054c8006a0037001e0090009000780050552500b3
:1054d800808f50002d003a000060fe0040168000ca
:1054e800680060000000e00006003a000060fe006e
:1054f8001e0090008000eb00010878000040eb00df
:105508005a0037000000eb00000f78001500370044
:105518000060fe0070a72a000aff07000000e000f4
:10552800040032000060fe00bdeb070030c2b3008b
:105538004e0037000060fe0000fa20000100200045
:105548007c0507001e0fe80080bb20009e00780045
:10555800808f500003003600a1cab30000c4b30016
:10556800a103070040168000680060000000e0000a
:10557800e7ff3a000060fe001e0090008000eb008c
:10558800010878000040eb00380037000060fe009a
:105598001e00900090007800a0aa2a00808f50007a
:1055a8002e003a000000eb00000f78000d003700d5
:1055b8000060fe0000fa2000010020005d050700e1
:1055c8000060fe001e0fe80080bb20009e007800ef
:1055d800808f500003003600a1cab30000c4b30096
:1055e8008103070040168000640060000000e000ae
:1055f800efff3a000060fe000000eb00000f7800ab
:105608000d0037000060fe0000fa200001002000b5
:10561800480507000060fe001e0fe80080bb200060
:105628009e007800808f500003003600a1cab300a6
:1056380000c4b3006c0307004016800068006000d7
:105648000000e000efff3a001e0090008000eb0031
:10565800010878000040eb00040037001e009000ad
:105668008000eb00010878000040eb000080fa00a1
:10567800000006000400fa00100798000000eb0084
:10568800000f78000060fe00d016800068006000ff
:105698000000e000020032000040eb005600370036
:1056a8001e0090009000780050552500808f500013
:1056b80027003a000060fe0040168000620060008b
:1056c8000000e00006003a000060fe001e009000a6
:1056d8008000eb00010878000040eb00460037002e
:1056e8000000eb00000f78000f0037000060fe009c
:1056f80050a52a0093fe07000000e00005003200d4
:105708000060fe000060fe0045eb070030c2b300f9
:10571800390037000060fe0000fa20000100200078
:10572800040507001e0fe8004016800062006000b4
:105738000000e000edff3a000060fe001e0090004f
:105748008000eb00010878000040eb002a003700d9
:105758000060fe001e00900090007800a0aa2a00b9
:10576800808f500020003a000000eb00000f780006
:10577800060037000060fe0000fa2000010020004b
:10578800ec0407000060fe001e0fe800d016800041
:10579800610060000000e000f6ff3a000060fe00d3
:1057a8000000eb00000f7800060037000060fe00e4
:1057b80000fa200001002000de0407000060fe005f
:1057c8001e0fe80040168000620060000000e00044
:1057d800f6ff3a001e0090008000eb0001087800f8
:1057e8000040eb00040037001e0090008000eb0032
:1057f800010878000040eb000080fa000000060075
:105808000000fa000068ef004168ef004268ef000e
:1058180000c0eb00f0e9b70020cab300f1e9b70017
:105828004368ef009568ef009468ef000080fa0085
:10583800000006000200fa00004f780001802000f6
:1058480091407800f0c3b30080cf500014003e00b0
:1058580000c8bf000040e80000e8b70042c8bf0029
:105868008080fb0010802000008040001e487800e7
:1058780042c8bf000080fb008000e8000004200050
:1058880000017800110009008200d8008000fd00a6
:105898000040780042e8b70000c0eb000100370084
:1058a8000040eb000080fa00000006000200fa0049
:1058b800000f78008f00a90000c8bf000004e000b6
:1058c8001700320000c8bf000040e90000e8b70038
:1058d80041c8bf008080fb0010802000008040008d
:1058e800904078001e0078000148780041c8bf0049
:1058f8000080fb008000e800000420000001780020
:10590800110009008200d8008000fd0000407800e6
:1059180041e8b7008f00a80000c0eb000200370084
:105928008f00a8000040eb000080fa00000006008d
:105938000e00fa0050079800610798000060fe000a
:10594800e2c2a90021048000000420000080600059
:105958000000e000020032000e0307004368ef0079
:10596800f0c9bf00e14f400003003200a4ff070068
:105978000040eb00950037000060fe0000c8bf0043
:105988000004e0008f00320043c8bf000080fb0025
:10599800e10f50001f003200e10f500003003c00ef
:1059a8000000e000060032007f003700e20f5000e0
:1059b80023003200e30f50002e0032007a00370037
:1059c8000040eb00604798000060fe006e00900009
:1059d8008040eb006140980066004700b3ff070075
:1059e8000060fe005e009000904078006e409000dd
:1059f80080cf500070003a00ee4090006e0090009a
:105a08000148780010c0b30043e8b700d902070086
:105a18006c0037000060fe000040eb007047980003
:105a280067004700a1ff0700fe4090006e0090004d
:105a38001140980020c0b30043e8b7006100370068
:105a48000060fe000040eb00004f9800680047002f
:105a580096ff07008e4890006e0090002140980045
:105a680030c0b30043e8b70030c0b30095e8b700d2
:105a7800540037000060fe0095c8bf000081fb009d
:105a880041842000810041000040e80095e8b7000b
:105a98000100780085ff07005189200091407800b7
:105aa80000c4b30080cf50000400360030c0b300fb
