:020000040000fa
:080000000001040000000000f3
:020000040000fa
:10000800cc0400009a010000a0010000a601000035
:10001800ac010000cc040000cc040000cc040000bb
:10002800cc040000cc040000cc040000ca0100008d
:10003800cc040000cc040000cc040000cc04000078
:10004800cc040000cc040000cc040000cc04000068
:10005800cc040000cc040000cc040000cc04000058
:10006800cc040000cc040000cc040000cc04000048
:10007800cc040000cc040000cc040000cc04000038
:10008800481500006e150000cc040000cc040000e8
:10009800cc040000cc040000cc040000cc04000018
:1000a800cc040000cc040000cc040000cc04000008
:1000b800cc040000cc040000cc040000cc040000f8
:1000c800cc040000cc040000cc040000cc040000e8
:1000d800cc040000cc040000cc040000cc040000d8
:1000e800cc040000cc040000cc040000cc040000c8
:0800f800cc040000cc04000060
:020000040000fa
:10010800cc040000b2010000b8010000be010000ec
:10011800c4010000cc040000cc040000cc040000a2
:10012800cc040000cc040000cc040000ca0100008c
:10013800cc040000cc040000cc040000cc04000077
:10014800cc040000cc040000cc040000cc04000067
:10015800cc040000cc040000cc040000cc04000057
:10016800cc040000cc040000cc040000cc04000047
:10017800cc040000cc040000cc040000cc04000037
:10018800481500006e150000cc040000cc040000e7
:10019800cc040000cc040000cc040000cc04000017
:1001a800cc040000cc040000cc040000cc04000007
:1001b800cc040000cc040000cc040000cc040000f7
:1001c800cc040000cc040000cc040000cc040000e7
:1001d800cc040000cc040000cc040000cc040000d7
:1001e800cc040000cc040000cc040000cc040000c7
:0801f800cc040000cc0400005f
:020000040000fa
:10020000ef8f20000eff20000e018800000000008c
:10021000000020000000e000020032000001200089
:10022000200288000c0007006076210001002000f9
:1002300011000700000020000000e0000200320072
:100240000000020000000000101702000000000083
:100250000040da000000fe004440a9000020200019
:100260000000e0000300320000002000a001880030
:100270004440a8000000060091018800800078003a
:100280000000eb0015003700e280400032a0b4000f
:100290009101ba00e280400032a0b4009102ba009d
:1002a000e280400032a0b4000002eb00472bde00e9
:1002b000f507b200602ce10004003a000059eb00a1
:1002c0008301e900fdff3e00040037006128e100e2
:1002d000010032000082eb00040007001101ba00a7
:1002e0000200e000e8ff3a00000006003159ba00c1
:1002f0008301e9000c0032002159ba008301e900b2
:10030000080032000400e00003003a00e2804000f0
:1003100032a0b400f5ff370011d9ba008301e9001b
:10032000faff3a008100e800e180400032a0b4000a
:10033000000006000000fa008020a900ffff37003f
:100340000000fa008060a900ffff37000000fa00fb
:100350008040a900ffff37000000fa008080a9005c
:10036000ffff37000000fa008020a900ffff3700e0
:100370000000fa008060a900ffff37000000fa00cb
:100380008040a900ffff37000000fa008080a9002c
:10039000ffff37003600f800809fbe00829fbe003e
:1003a000849fbe00869fbe000000fa000060fe0031
:1003b0008460a9002a0007000080fa004f03be00f5
:1003c0004f02be004f01be004f00be003600f900d4
:1003d000004006000200fa00000f78000060fe00f6
:1003e0009e007800414788009e00780041478800c1
:1003f0000080fa00000006000000fa000060fe0025
:10040000404780000080fa00000006000000fa006b
:10041000a05a25005047880050a52a006047880050
:100420000080fa00000006000000fa0050a52a0033
:100430006047880050a52a00604788000080fa00c5
:10044000000006000000fa00ea28ef00ec28ef00a8
:10045000ea28ef00ec28ef000080fa000000060018
:100460000000fa000060fe00c3090700404780005a
:1004700080478800e828ef00e828ef000080fa00b5
:10048000000006000200fa000040eb00004f780078
:100490004047800051552500810f50000600320072
:1004a000a1aa2a00810f50000f0032000000e000d6
:1004b000190032005f0037000060fe00d1a2a900e1
:1004c000d1c2a800d662a800dd02a900ca82a80095
:1004d000d1a2a900d1c2a800d662a800dd02a9005d
:1004e000ca82a8005b0037000060fe00d662a90047
:1004f000dd02a800d1a2a800d1c2a900ca82a8002a
:10050000d662a900dd02a800d1a2a800d1c2a9002c
:10051000ca82a8004f0037000060fe00d662a90022
:10052000dd02a800d1a2a900d1c2a800ca82a900f8
:10053000d662a900dd02a800d1a2a900d1c2a800fc
:10054000ca82a900bfff070080478000b5000700ee
:10055000804780000000e0001a003200d0168000c2
:10056000680060000000e00004003200008f2000fe
:1005700031050700004f780003003700008f20008e
:10058000a3050700004f78000060fe0030c2b300f2
:100590009e40780080cf500002003a0075000700ae
:1005a0002c0037000060fe00db040700004f7800dd
:1005b0001e4078000004e0000100320025003700f2
:1005c000f028ef00f028ef008f00a800e18d200058
:1005d000608d20003d060700004f78000060fe009f
:1005e000e08d200060409000e14f400002003a00a2
:1005f000e08d2000590707000060fe001e407800d3
:100600000004e0000100320012003700c2040700bd
:10061000004f78001e4078000004e0000100320026
:100620000c0037000060fe00a50407000060fe001b
:10063000080037000060fe00e828ef00d662a9003d
:10064000dd02a800d1a2a900d1c2a800ca82a900d7
:10065000000000008eff37000000fa000060fe007e
:10066000d262a900cda2a900cdc2a900d902a900d9
:10067000d662a900dd02a800d1a2a900d1c2a800bb
:10068000ca82a900c622a800d802a800d822a800c1
:10069000d842a800d862a800c662a800c642a80036
:1006a0002003200090478800e0012000a047880038
:1006b000ee28ef00ea28ef00ec28ef000080fa00b7
:1006c000000006000000fa000060fe008f00a90094
:1006d00090478000050907005055250040478800d5
:1006e0005055250040478800d1a2a900d1c2a800da
:1006f000d662a800dd02a900ca82a800d1a2a90082
:10070000d1c2a800d662a800dd02a900ca82a80052
:10071000505525008047880051478000a05a250089
:10072000808f5000100032000060fe00d662a900e9
:10073000dd02a800d1a2a900d1c2a800ca82a900e6
:10074000d662a900dd02a800d1a2a900d1c2a800ea
:10075000ca82a900e828ef00e828ef00f028ef009f
:100760008f00a80001003700fe0807000080fa0093
:10077000000006000000fa000060fe008f00a900e3
:10078000a0478000d9080700a0aa2a004047880097
:10079000a0aa2a0040478800d662a900dd02a8006e
:1007a000d1a2a800d1c2a900ca82a800d662a9001d
:1007b000dd02a800d1a2a800d1c2a900ca82a80067
:1007c000a0aa2a00804788006147800050a52a001f
:1007d000808f5000100032000060fe00d662a90039
:1007e000dd02a800d1a2a900d1c2a800ca82a90036
:1007f000d662a900dd02a800d1a2a900d1c2a8003a
:10080000ca82a900e828ef00e828ef00f028ef00ee
:100810008f00a80001003700d20807000080fa000e
:10082000000006001000fa00700798000000eb00be
:1008300020079800fe00900050552500808f500042
:1008400004003a0000c62f00f1072000008fbe0010
:1008500007003700fe009000a0aa2a00808f5000f9
:1008600048003a0000c82f00f1072000008fbe00aa
:100870000060fe00660047000002eb00230020003d
:10088000000178001e00be006d0007000060fe0041
:100890003e0090000000e800300798002200200091
:1008a0001e00be003e0007000060fe000000eb00de
:1008b000200798000f0037000060fe00001920009c
:1008c00001002000af09070010c0b3002e01900006
:1008d000810c2000810f510001003e000040eb0020
:1008e000ae0090008100e800210798000004e000bd
:1008f00006003a00013b80000000280000806000f4
:100900000000e000ecff3a000100370000000000aa
:100910003e009000000178001e00be003900070074
:100920000060fe000000eb00200798000f00370079
:100930000060fe000019200001002000910907005e
:1009400010c0b3002e019000810c2000810f5100d7
:1009500001003e000040eb00ae0090008100e80086
:10096000210798000004e00008003a00013b8000e5
:1009700000002800008060000000e000ecff3a006a
:1009800003003700000000000100370000000000f5
:100990000080fa00000006000040da000000fe00bf
:1009a0003200f800910188000008bb0041042400d7
:1009b0006210e10004003200000220000010e1009b
:1009c0000a003a0051042400013b88000500fc00a5
:1009d00051052000313b8800a10a2000313b8800ee
:1009e00061e7a80000000000000000003200f900ec
:1009f000000006003200f80060042400003b88007c
:100a0000f2ff37003200f800910188004100240015
:100a1000013b88000208bb00ecff37003200f80001
:100a20009101880051002400013b8800030120004f
:100a30003218bb008301e900fdff3a00e3ff3700f5
:100a40003200f800910188008002780062004000c6
:100a5000e08048003549ba003204e0000410a700e5
:100a6000100032008301e9000e0032002549ba006f
:100a70003204e0000410a7000a0032008301e900fc
:100a8000080032000408a300eeff320015c9ba00c6
:100a90003204e0000410a700020032008301e900e4
:100aa000e8ff3a003200f9000000060003f0a2005f
:100ab000889fbe008a9fbe008c1f7800f30007004d
:100ac000fa0033006450e1004f0032006420e1007e
:100ad0005200320003826c0007003b000905d00081
:100ae0000306d000820f54000c065d00020039009e
:100af00002003200890178000306780085825500e3
:100b000004003d000003fd008103fd008502ea00b2
:100b10008b854200840f720002003b0060001000d1
:100b2000e08018006011b8000005eb007a28e100b1
:100b30000a00390006007800c75ddd00f707b20043
:100b4000878075002d003700828171000a017800ce
:100b5000610560008180d1000080d3008502e9003a
:100b6000f9ff3b00060440008784480002003b0078
:100b700060041400e0841c000988a3000700320010
:100b80008a81710082817100610164008904d10051
:100b90000884d3008b05e800170037000978a3000c
:100ba00013003a000b00e000130034008b05e9004d
:100bb0000804440089844c000a4474000978a300a6
:100bc0000d003a000b00e000070034008b05e9003f
:100bd0000804440089844c0001003a000b00200006
:100be0000978a300f7ff32000001eb000200370094
:100bf000828171000a017800690007000cf0a700eb
:100c000001f0a000b20037006420e10002003a00c9
:100c1000838f6c00b20033000801be000200be00ea
:100c2000ab003700889fbe008a9fbe008c1f7800f3
:100c3000960007009d00330003866c006450e100bd
:100c40002e0032006420e100330032006150e100e8
:100c50002f0032006120e10031003200858555000f
:100c6000eb07b00009002000080420000500370051
:100c70000804440089844c000a0031000603430044
:100c800087834b000001530081815b00f8ff330034
:100c90000203be000800a0000804440089844c0040
:100ca000f6ff3900c639dd00830173000100320010
:100cb000130020008904d1000884d3000998a30000
:100cc000050032000800a7000300a0008904d1003d
:100cd0000884d3008b05e8008904d1000884d30080
:100ce0000001eb000281d2002d00070001f0a100fd
:100cf0000cf0a70001f0a000750037006420e100af
:100d0000770032000801be000200be00f7ff370086
:100d10006120e100720032006000b800f3ff37008c
:100d20000000200001f82700f0ff37000001be009e
:100d3000410007000470a70003f0a10003f8a3001e
:100d400013003a006509b1001000320009003500b7
:100d50006928e100020035000100280000000500bc
:100d600000004000818048008502e900fcff3a0055
:100d700000000600f88f4200050035008100d10018
:100d80000080d3008502e800fcff3a000000060066
:100d90008000eb00000005006011b80087003700fc
:100da00081002000618055000b003d000b002000f9
:100db00061fe2f000100e1001d00340082817100fe
:100dc000610164008904d1000884d3000000e800b8
:100dd000faff3a0071002000610064000300700017
:100de000020060000900320061044400e0844c000d
:100df0000988a500050032008b05e8006808e100bd
:100e000002003a008904d1000884d300f20f2000c8
:100e10000258e10005003d00c75ddd00f907b200a2
:100e20008980750008007800000006000bf8270094
:100e30008b00780000000500c70ade00f107b20051
:100e4000f50fb20008003200e1cf4200020032008c
:100e50000170a00024000500810f70000100320025
:100e60000408050044000500810f700002003a00ec
:100e7000140005008502e9000000400081c0480020
:100e8000fcff3b000170a000240005000004be0030
:100e9000e9ff07000003be000405be000200be001b
:100ea000e5ff0700844f7500000006000200be0049
:100eb0006450e100050036006420e10002003600c5
:100ec0000968a30001003a000800be000160a0000c
:100ed0004f0678004f05be004f04be00000006001c
:100ee000f0ff2f00f1ff2700f9ff3700889fbe00b9
:100ef0008a9fbe008c1f7800e4ff0700ebff3300e1
:100f000003866c006450e100240032006420e1009c
:100f1000270032006150e100220032006120e10030
:100f2000210032008b854200eb07b1000134b8008c
:100f3000003ab8000804420089844a00013ab80027
:100f40000030b8008880400009014a0004003300e6
:100f50000000400081804800020149008b05e90043
:100f6000c909dd0083017000010032001300200078
:100f7000c814de004814dd004709de001200b2008c
:100f8000c808de000884700085ff070001f0a1009a
:100f90000cf0a70001f0a000cdff37006120e100b8
:100fa000cfff32000801be000200be00f7ff37008d
:100fb0006150e100fcff3a00c9ff3700889fbe0086
:100fc0008a9fbe00008270000402710004827100da
:100fd000260032000004be000200be006011b8000e
:100fe0006b092000950220000182cf000a00390021
:100ff0000541b1000082cf00070039000541b10072
:101000000982cf00040039000541b1000882cf00f9
:10101000010039000541b1000542520012003200c2
:101020000a003b0082817100610164008100d100ef
:101030000080d3008984d3000884d3008b05e800a6
:101040000442e800f7ff3a000700370008044400b4
:1010500089844c0000004800818048008b05e9002d
:101060000442e900f9ff3a004dff07004f05be00ba
:081070004f04be000000060061
:020000040000fa
:1010780000c100008140000001c000008041000064
:1010880001c000008041000000c100008140000054
:1010980001c000008041000000c100008140000044
:1010a80000c100008140000001c000008041000034
:1010b80001c000008041000000c100008140000024
:1010c80000c100008140000001c000008041000014
:1010d80000c100008140000001c000008041000004
:1010e80001c000008041000000c1000081400000f4
:1010f80001c000008041000000c1000081400000e4
:1011080000c100008140000001c0000080410000d3
:1011180000c100008140000001c0000080410000c3
:1011280001c000008041000000c1000081400000b3
:1011380000c100008140000001c0000080410000a3
:1011480001c000008041000000c100008140000093
:1011580001c000008041000000c100008140000083
:1011680000c100008140000001c000008041000073
:1011780001c000008041000000c100008140000063
:1011880000c100008140000001c000008041000053
:1011980000c100008140000001c000008041000043
:1011a80001c000008041000000c100008140000033
:1011b80000c100008140000001c000008041000023
:1011c80001c000008041000000c100008140000013
:1011d80001c000008041000000c100008140000003
:1011e80000c100008140000001c0000080410000f3
:1011f80000c100008140000001c0000080410000e3
:1012080001c000008041000000c1000081400000d2
:1012180001c000008041000000c1000081400000c2
:1012280000c100008140000001c0000080410000b2
:1012380001c000008041000000c1000081400000a2
:1012480000c100008140000001c000008041000092
:1012580000c100008140000001c000008041000082
:1012680001c000008041000000c100008140000072
:1012780000c00000c1010000c303000002c200005a
:10128800c606000007c7000005c50000c40400002a
:10129800cc0c00000dcd00000fcf0000ce0e0000da
:1012a8000aca0000cb0b0000c909000008c80000ea
:1012b800d818000019d900001bdb0000da1a00005a
:1012c8001ede0000df1f0000dd1d00001cdc00002a
:1012d80014d40000d5150000d717000016d600005a
:1012e800d212000013d3000011d10000d01000006a
:1012f800f030000031f1000033f30000f23200005a
:1013080036f60000f7370000f535000034f4000029
:101318003cfc0000fd3d0000ff3f00003efe0000d9
:10132800fa3a00003bfb000039f90000f8380000e9
:1013380028e80000e9290000eb2b00002aea000059
:10134800ee2e00002fef00002ded0000ec2c000029
:10135800e424000025e5000027e70000e626000059
:1013680022e20000e3230000e121000020e0000069
:10137800a060000061a1000063a30000a262000059
:1013880066a60000a7670000a565000064a4000029
:101398006cac0000ad6d0000af6f00006eae0000d9
:1013a800aa6a00006bab000069a90000a8680000e9
:1013b80078b80000b9790000bb7b00007aba000059
:1013c800be7e00007fbf00007dbd0000bc7c000029
:1013d800b474000075b5000077b70000b676000059
:1013e80072b20000b3730000b171000070b0000069
:1013f8005090000091510000935300005292000059
:101408009656000057970000559500009454000028
:101418009c5c00005d9d00005f9f00009e5e0000d8
:101428005a9a00009b5b00009959000058980000e8
:1014380088480000498900004b8b00008a4a000058
:101448004e8e00008f4f00008d4d00004c8c000028
:101458004484000085450000874700004686000058
:101468008242000043830000418100008040000068
:020000040000fa
:101478000200fa00000f78000060fe001e007800ed
:1014880021a22a00810f50002a00320021a22a003e
:10149800810f50000a003e0021522500810f5000a4
:1014a8004a00320011a12a00810f50000e003200bc
:1014b80011512500810f50003100320082003700a1
:1014c80071a72a00810f500073003200d1bc2a0096
:1014d800810f50005000320051a52a00810f5000a2
:1014e8006100320078003700d01680006400600088
:1014f8000000e0000d00320040168000620060002d
:101508000000e000090032008e0607000000e0003d
:1015180006003200d0168000680060000000e0007d
:1015280002003a0010002000010037000000eb0024
:1015380067003700d0168000620060000000e000fd
:101548000d003200d0168000610060000000e0004d
:10155800090032007b0607000000e00006003200a8
:10156800d0168000680060000000e00002003a0029
:1015780010002000010037000000eb005400370085
:10158800d0168000640060000000e0000d0032000a
:1015980040168000680060000000e000090032008a
:1015a800680607000000e00006003200d016800040
:1015b800680060000000e000020032001000200017
:1015c800010037000000eb0041003700d016800012
:1015d800620060000000e0000d003200401680004c
:1015e800640060000000e0000900320055060700b2
:1015f8000000e00006003200d0168000680060009d
:101608000000e00002003200100020000100370056
:101618000000eb002e003700d0168000620060004a
:101628000000e00004003200d01680006400600072
:101638000000e00008003a00d01680006200600058
:101648000000e00006003a00d01680006400600048
:101658000000e00002003a001000200001003700fe
:101668000000eb001a003700d0168000620060000e
:101678000000e00006003200d01680006100600023
:101688000000e000020032001000200001003700d6
:101698000000eb000e003700d016800062006000ea
:1016a8000000e00006003200401680006400600080
:1016b8000000e000020032001000200001003700a6
:1016c8000000eb00020037000000fe000000eb0005
:1016d8000080fa00000006000800fa0030079800b1
:1016e8000000eb00000f78000000eb0010079800e6
:1016f8000000eb00200798000060fe003e0090000c
:101708005bff07000000e000270032000000eb004c
:10171800000f78000000eb00100798000000eb00b5
:10172800200798001300370000192000010020004e
:10173800120607000060fe003e0090004cff070004
:101748000000e000020032001e0fe800030037002e
:101758001e0090000000e800100798001e0090008e
:10176800ea0f500008003e002e0090000000e8003c
:1017780020079800ae00900030062000808f5000af
:10178800e9ff36000100370000000000a005200036
:101798009e007800808f5000030036000060fe0035
:1017a8000080eb00010037000000eb000080fa0029
:1017b800000006000000fa000060fe00d0bc2a000d
:1017c800c5ff07000000e000050032000060fe00d1
:1017d800f00f2000d047880010c2b3003400370053
:1017e800fa28ef000060fe0020a22a00baff0700d6
:1017f8000000e000040032000060fe0008fb070063
:1018080030c2b3002a0037000060fe0020522500d5
:10181800b1ff07000000e000040032000060fe0095
:10182800fffa070030c2b300210037000060fe0055
:1018380010a12a00a8ff07000000e0000400320001
:101848000060fe00effa070020c2b300180037005e
:101858000060fe00105125009fff07000000e00017
:10186800040032000060fe00e6fa070020c2b30060
:101878000f0037000060fe00d01680006400600092
:101888000000e0000200320050c2b3000800370038
:101898000060fe00d0168000620060000000e000da
:1018a8000200320040c2b300010037000040eb00e4
:1018b8000080fa00000006000000fa000060fe0048
:1018c800a00507000000e000080032000060fe00ec
:1018d800a1cab30000c2b3000604070051c5b30093
:1018e800e0cfb30003040700070037000060fe00e4
:1018f80051c5b300f0cdb300fe030700a1cab30081
:1019080010c0b300fb0307000080fa0000000600c7
:101918000200fa000040eb00004f78000060fe0073
:10192800a4ff0700004f78000060fe001e80fb0047
:1019380031022000810f50001f00320031022000c8
:10194800810f500007003c0011022000810f500059
:101958000b00320021022000810f500012003200db
:101968002d00370041022000810f50001600320080
:1019780051022000810f50001d0032002600370060
:101988000060fe0051c5b30070ceb300d903070054
:10199800a1cab30020c4b300d60307000040eb007f
:1019a800004f78001f0037000060fe0043fb07006f
:1019b80000c0eb001c0037000060fe006bfb070056
:1019c80000c0eb00180037000060fe00a1cab30099
:1019d80080c0b300c703070051c5b300d0cab30025
:1019e800c40307000040eb00004f78000d003700eb
:1019f8000060fe00a1cab30000c1b300bd03070028
:101a080051c5b30050cbb300ba0307000040eb0048
:101a1800004f7800030037000060fe000040eb0034
:101a2800004f78000040eb000080fa00000006003c
:101a38000400fa00100798000000eb00000f78007f
:101a4800d0168000680060000000e00002003a0044
:101a58000040eb006a0037001e00900090007800fc
:101a680050552500808f50002d003a000060fe0080
:101a780040168000680060000000e00006003a00a0
:101a88000060fe001e0090008000eb000108780056
:101a98000040eb005a0037000000eb00000f780010
:101aa800150037000060fe0070a72a000aff070033
:101ab8000000e000040032000060fe0058fa070051
:101ac80030c2b3004e0037000060fe0000fa20006c
:101ad80001002000290507001e0fe80080bb200038
:101ae8009e007800808f500003003600a1cab30022
:101af80000c4b3007f030700401680006800600040
:101b08000000e000e7ff3a000060fe001e009000c1
:101b18008000eb00010878000040eb003800370037
:101b28000060fe001e00900090007800a0aa2a0025
:101b3800808f50002e003a000000eb00000f780064
:101b48000d0037000060fe0000fa200001002000b0
:101b58000a0507000060fe001e0fe80080bb200099
:101b68009e007800808f500003003600a1cab300a1
:101b780000c4b3005f0307004016800064006000e3
:101b88000000e000efff3a000060fe000000eb00fc
:101b9800000f78000d0037000060fe0000fa2000fa
:101ba80001002000f50407000060fe001e0fe80099
:101bb80080bb20009e007800808f50000300360014
:101bc800a1cab30000c4b3004a030700401680004e
:101bd800680060000000e000efff3a001e0090007f
:101be8008000eb00010878000040eb00040037009b
:101bf8001e0090008000eb00010878000040eb0018
:101c08000080fa00000006000400fa00100798009f
:101c18000000eb00000f78000060fe00d016800086
:101c2800680060000000e000020032000040eb00a5
:101c3800560037001e00900090007800505525008f
:101c4800808f500027003a000060fe004016800098
:101c5800620060000000e00006003a000060fe003c
:101c68001e0090008000eb00010878000040eb00a7
:101c7800460037000000eb00000f78000f00370027
:101c88000060fe0050a52a0093fe07000000e00057
:101c9800050032000060fe000060fe00e0f9070069
:101ca80030c2b300390037000060fe0000fa20009f
:101cb80001002000b10407001e0fe8004016800054
:101cc800620060000000e000edff3a000060fe00e6
:101cd8001e0090008000eb00010878000040eb0037
:101ce8002a0037000060fe001e0090009000780077
:101cf800a0aa2a00808f500020003a000000eb00c4
:101d0800000f7800060037000060fe0000fa20008f
:101d180001002000990407000060fe001e0fe80083
:101d2800d0168000610060000000e000f6ff3a0075
:101d38000060fe000000eb00000f7800060037008e
:101d48000060fe0000fa2000010020008b0407005c
:101d58000060fe001e0fe800401680006200600070
:101d68000000e000f6ff3a001e0090008000eb0043
:101d7800010878000040eb00040037001e009000c6
:101d88008000eb00010878000040eb000080fa00ba
:101d9800000006000000fa000068ef004168ef004c
:101da8004268ef0000c0eb00f8e8b70020cab300b3
:101db800f9e8b7004368ef009568ef009468ef0012
:101dc8000080fa00000006000200fa00004f7800c8
:101dd8000180200091407800f0c3b30080cf50000c
:101de80014003e0000c8bf000040e80000e8b7004b
:101df80042c8bf008080fb001080200000804000a7
:101e08001e48780042c8bf000080fb008000e80040
:101e18000004200000017800110009008200d800a9
:101e28008000fd000040780042e8b70000c0eb00e9
:101e3800010037000040eb000080fa0000000600b7
:101e48000200fa00000f78008f00a90000c8bf0048
:101e58000004e0001700320000c8bf000040e9009d
:101e680000e8b70041c8bf008080fb001080200058
:101e780000804000904078001e00780001487800fb
:101e880041c8bf000080fb008000e800000420007b
:101e980000017800110009008200d8008000fd00d0
:101ea8000040780041e8b7008f00a80000c0eb00b0
:101eb800020037008f00a8000040eb000080fa0005
:101ec800000006000e00fa0050079800610798000d
:101ed8000060fe00e2c2a900210480000004200086
:101ee800008060000000e00002003200510307009b
:101ef8004368ef00f8c8bf00e14f4000030032001c
:101f0800a4ff07000040eb00950037000060fe00ca
:101f180000c8bf000004e0008f00320043c8bf00c3
:101f28000080fb00e10f50001f003200e10f50005d
:101f380003003c000000e000060032007f0037008c
:101f4800e20f500023003200e30f50002e00320051
:101f58007a0037000040eb00604798000060fe0000
:101f68006e0090008040eb006140980066004700da
:101f7800b3ff07000060fe005e009000904078000c
:101f88006e40900080cf500070003a00ee40900004
:101f98006e0090000148780010c0b30043e8b70015
:101fa8001c0307006c0037000060fe000040eb00d7
:101fb8007047980067004700a1ff0700fe409000a7
:101fc8006e0090001140980020c0b30043e8b700ad
:101fd800610037000060fe000040eb00004f9800f1
:101fe8006800470096ff07008e4890006e0090003a
:101ff8002140980030c0b30043e8b70030c0b300b8
:1020080095e8b700540037000060fe0095c8bf008f
:102018000081fb0041842000810041000040e8006d
:1020280095e8b7000100780085ff07005189200076
:102038009140780000c4b30080cf500004003600ff
:1020480030c0b30095e8b7004368ef00420037009e
:102058000060fe006e009000a0409000014f7800e4
:1020680095c8bf008080fb001e80fb006500400013
:10207800808f5000370035006e00900010407800c7
:1020880044e8b7006e0090001040900045e8b700a3
:102098009e40780062842000014978000060fe00bc
:1020a8001e41780063404100804078004084200051
:1020b8002c030700100798000060fe001e80fb003c
:1020c800e3004000408420000080400090407800f9
:1020d800414798001e80fb00e40040004084200037
:1020e8000080400010417800524798000060fe00d0
:1020f8005e4090000080fb00c800dd004e4090006c
:102108000080fb00810070001e009000808f50004e
:1021180006003a006e0090004184200021009800db
:102128006e00900080c0eb00614098000060fe00e7
:10213800c00207004368ef00070037004368ef005c
:1021480030c0b30095e8b700030037000000000076
:1021580001003700000000000060fe0000c8bf005a
:102168000080fa00000006001000fa00604798009e
:102178007147980042079800234f98006407980019
:10218800750798002e489000654040002047980049
:102198007e009000ae409000014878006e009000ec
:1021a800ee409000014878006e0090000000e800c2
:1021b800fe409000014878006e0090000080e80022
:1021c800ae489000014878000060fe000000eb0077
:1021d800000f78000000eb00000f78000b003700bc
:1021e8000060fe001e00780063004000ee009000d2
:1021f800008040009e0078004e0190008100410060
:1022080091407800014878001e0fe8002e489000a1
:102218000080fb009e0f5000f1ff3c000060fe00b4
:102228002e40900000c0e900804078006e009000c9
:10223800cc020700200798002e4090000080fb0089
:102248000080e900ee00900000804000ae009000a1
:1022580081407800014878002e4090000080fb0003
:102268000000e900ee00900000804000ae00900001
:1022780081407800014878000060fe009468ef0013
:102288000080fa00000006000600fa001007980017
:10229800414798000040eb00004f7800e2c2a800d8
:1022a8000060fe00007d20000100200033030700cd
:1022b8000060fe000040eb00004f78000700370088
:1022c8000060fe001e80fb009e0090000080400021
:1022d80010407800dc0107001e4fe8004e409000d7
:1022e8009e40780080cf5000f5ff3900e2c2a90077
:1022f8000080fa00000006000400fa002047980059
:102308000000eb00000f78000060fe008e007800ef
:102318000e80e800810278006489200013c0b300b1
:1023280000017800a1cfb30020cab3008eff0700d8
:102338000060fe001e0078000040780080407800b1
:1023480060892000d0ff07000060fe000080fa00ce
:10235800000006000200fa00000f78000060fe008e
:102368001e00780060409000e14f4000ef003a0006
:102378001e0078009040900050c8b30080cf5000f5
:10238800030032001e00780010409000daff0700ba
:102398000060fe001e007800104090000080fb00e6
:1023a8006101b9000080eb008080eb000200400072
:1023b800838048004208200003002000820f50005c
:1023c800838f5800c7003e0000600100840037007a
:1023d800c6003700c5003700c4003700c300370007
:1023e800c2003700c1003700c0003700bf00370007
:1023f800be003700bd003700bc003700bb00370007
:10240800ba003700b9003700b8003700b700370006
:10241800b6003700b5003700b4003700b300370006
:10242800b2003700b1003700b0003700af00370006
:10243800ae003700ad003700ac003700ab00370006
:10244800aa003700a9003700a8003700a700370006
:10245800a6003700a5003700a4003700a300370006
:10246800a2003700a1003700a00037009f00370006
:102478009e0037009d0037009c0037009b00370006
:102488009a003700990037005b003700600037007a
:10249800660037007a0037005300370054003700d1
:1024a8009200370091003700900037008f00370006
:1024b8008e0037008d0037008c0037008b00370006
:1024c8008a00370089003700880037008700370006
:1024d8008600370085003700840037008300370006
:1024e8008200370081003700800037007f00370006
:1024f8007e0037007d0037007c0037007b00370006
:102508007a00370079003700780037007700370005
:102518007600370075003700740037007300370005
:102528007200370071003700700037006f00370005
:102538006e0037006d0037006c0037006b00370005
:102548006a00370069003700680037006700370005
:102558006600370065003700640037006300370005
:102568006200370061003700600037005f00370005
:102578005e0037005d0037005c0037005b00370005
:102588005a00370059003700580037005700370005
:102598005600370055003700540037005300370005
:1025a8005200370051003700500037004f00370005
:1025b8004e0037004d0037004c0037004b00370005
:1025c8004a00370049003700480037004700370005
:1025d8004600370045003700440037003d0037000b
:1025e8000000fe004e003700910007004c00370045
:1025f800940007004a0037007df707000000e0005c
:102608003c003a007ff707002cf807004400370029
:102618000060fe0076f707000000e00037003a008f
:102628007ff7070051f807003d0037000060fe0003
:102638001e00780020009000630040009040780061
:1026480040c6b30080cf50002e003e001e00780028
:102658002000900063004000104078000004e00073
:102668002a0032001e00780020009000630040001d
:10267800104078000080fb00904788002800370051
:102688000060fe001e0078002000900063004000fb
:102698009040780040c6b30080cf50001d003e0037
:1026a8001e00780020009000630040001040780071
:1026b8000004e000190032001e007800200090009d
:1026c80063004000104078000080fb00a0478800ad
:1026d800130037000060fe00b0bb2b007047880075
:1026e8000f003700000000000d0037000000000058
:1026f8000b00370000000000090037000000000050
:102708000700370000000000050037000000000047
:10271800030037000000000001003700000000003f
:102728001e0078008040eb00614098000080fa00ad
:10273800000006000200fa000040eb00004f78009d
:102748000080eb00401588000060fe00c6c2a900aa
:10275800c702a900c6e2a900f668ef00c682a90070
:10276800c6a2a900ca82a900caa2a900d222a800aa
:10277800d202a800d262a900cda2a900cdc2a900a8
:10278800d902a900d662a900dd02a800d1a2a90039
:10279800d1c2a800ca82a900c622a800d802a800ef
:1027a800d822a800d842a800d862a800d882a800d9
:1027b800c662a800c642a800d662a900dd02a80029
:1027c800d1a2a900d1c2a800ca82a9000080fa003b
:1027d800000006000200fa000040eb00004f7800fd
:1027e8000040eb00004f7800050037000060fe0055
:1027f80000fa200001002000e00107001e4fe80059
:102808001e407800f34f5000f8ff36000080fa00b1
:10281800000006000000fa008200a8008400a90059
:102828008c00a900c6e2a8000080fa00000006009b
:102838000000fa008400a9008c00a8000080fa00bb
:10284800000006000000fa008400a9008c00a9001e
:102858000080fa00000006000400fa0020479800f3
:102868000040eb00004f7800cae2a9000040eb00ee
:10287800004f7800120037002e4090000004e0005e
:1028880002003d00cac2a80001003700cac2a90060
:10289800cb02a9004000200001002000b70107007a
:1028a800cb02a8004000200001002000b30107006f
:1028b8002e40900000404000204798001e4fe8003e
:1028c8001e407800e74f5000ebff3600cae2a9002f
:1028d8004000200001002000a8010700cae2a8006b
:1028e8004000200001002000a40107000080fa0039
:1028f800000006000200fa00004f78001147980017
:102908009e409000a0cab30080cf500005003a0056
:10291800f6c8bf001e407000f6e8b700f6c8bf0052
:10292800cdff07009e40900050c5b30080cf5000f7
:1029380005003a00f6c8bf001e406000f6e8b70080
:10294800f6c8bf00c4ff07000080fa0000000600b8
:102958000600fa00200798006000b800008fbe004b
:1029680017e2a90017a2a90016e2a90016c2a90039
:1029780016a2a900b01080000010a1000020a1003c
:10298800b01088001602a9002e0090004400dd0057
:102998008000eb00fef807000001be0000402200a6
:1029a80041a724009df807000200200003f8230037
:1029b8003cf80700008fbe0090012000f01088004e
:1029c8001962a9001942a9001922a9001902a9002f
:1029d800c01080000060a1000070a100c010880035
:1029e80018a2a9001882a9001862a9001842a90013
:1029f8001822a9001802a9008720a9008700a900a9
:102a08008f00a80017e2a8001942a8000080fa0069
:102a1800000006000000fa00de82a800dea2a9007d
:102a2800dec2a900e2c2a9000080fa000000060088
:102a38000000fa00f7ff070000582200c4ff070053
:102a48000080fa00000006000200fa00004f78003b
:102a58001e80fb00d010880000000000c11080001c
:102a680000102000008060000000e000fbff320042
:102a78000080fa00000006000200fa00004f78000b
:102a88000080fa00000006003600f800809fbe00b3
:102a9800829fbe00849fbe00869fbe000000fa0091
:102aa8000060fe008700a900e01080000040780068
:102ab800c5fc0700f8e8b7000080fa004f03be0025
:102ac8004f02be004f01be004f00be003600f900a5
:102ad800004006000000fa008720a9000080fa00e4
:102ae800004006000200fa00000f78000060fe00b7
:102af8000421ef008460a900a004800000c0a100a8
:102b080000d0a10000e0a000a004880020088000f8
:102b18000040a1000050a000200888000421a9005e
:102b280004c1a9008460a9000021ef001e007800fc
:102b38008000eb0096f8070002002000a32724007d
:102b4800e8f8070077f80700000078000000e900bf
:102b5800100888000080fa00000006000000fa0053
:102b68008c60a80005e1a8000080fa0000000600bb
:102b78000000fa000421ef000021ef000221ef001d
:102b88008460a9008c60a9000080fa00000006009b
:102b98000200fa00000f78000060fe00b004800018
:102ba8000080a1000090a10000a0a100b00488004e
:102bb80011e1a900800880000040a0000050a0009a
:102bc800800888001021a90010c1a90084c0a900ac
:102bd8008cc0a9000621ef001e0078008000eb00e1
:102be8006bf8070002002000a3172400bdf80700b7
:102bf8004cf80700000078000000e9006008880031
:102c080060088000e047880011e1a9000080fa0010
:102c1800000006000000fa0084c0a9000621ef00a9
:102c2800e04780006008880011e1a8000080fa00f1
:102c3800000006000000fa0011e1a90084c0a90004
:102c48000080fa00000006000000fa00a1e2a900d6
:102c5800001580000080a1000090a10000158800e8
:102c6800001580000050a1000060a1000070a100c4
:102c780000158800a042a900a342a90010158000f1
:102c88000020a1000030a1000040a1000050a100d8
:102c9800101588001015800000d0a10000e0a100e8
:102ca80000f0a10010158800a4e2a90021158000f9
:102cb80000fc2f00008060003000b3002015880061
:102cc800301580000000a1000010a1000020a10024
:102cd8000030a10030158800aa22ef00aa02a8003f
:102ce8000080eb0040158800a802a900c602a800d1
:102cf8008560a9008d60a900a1e2a90081e0a80073
:102d08000080fa00000006000200fa000000eb0054
:102d1800000f7800a1e2a800a022a8000060fe0031
:102d2800000520000100200094000700a022a9004f
:102d38000060fe00000000000015800061006000d7
:102d48000000e000fcff32000060fe00011480007b
:102d5800010f7800a1e2a9001e0078000080fa00a7
:102d6800000006000800fa00200798006147980054
:102d780000c0eb00004f780000c0eb00104798003f
:102d8800130037000060fe002e009000104078000d
:102d98001e406800204798002e0090000000e800c0
:102da800200798002e4090000080fb00c183280077
:102db800e14078001e40900000cf68002e4090004f
:102dc8000080fb00c19328006141780012479800f9
:102dd8006e4090000080fb000000ea004f00de001b
:102de80000407800ee4090008140e900614798007b
:102df8000004e000e3ff3a000060fe001e80fb00d4
:102e0800c800dd001e4090000080fb00010070003b
:102e18000080fa00000006000200fa0000a8210065
:102e280061002000550007000000eb00000f78004b
:102e380040fe070084ff07000060fe00fcfe07005c
:102e48000060fe00e2c2a8000060fe0050c5b300aa
:102e5800fdfe0700e2c2a9000060fe000060fe005f
:102e6800ccfb0700608d200021cab3000148780020
:102e78000060fe00f6f507000060fe000000eb00b1
:102e8800000f78000400370000fa2000010020003d
:102e98003a0007000060fe0010c0b30071bb2000bc
:102ea8001e017800810f5100010036000040eb0040
:102eb8001e0fe8000004e000f3ff3a006ff507007a
:042ec800feff3700d2
:020000040000fa
:102ecc00f60800000200000000000000f8080000f6
:102edc000200000002000000ffa200000008000039
:102eec00d600000000000000fa08000002000000fc
:102efc0000000000fc0800000200000000000000c0
:102f0c00d60800001200000000000000e8080000d5
:102f1c000a00000000000000f2080000040000009d
:102f2c000200000032001e00000000000000000043
:020000040000fa
:102f3c000000fa0073ff07000080fa000000060092
:102f4c000200fa000000eb00000f7800f8ff070009
:102f5c00000f7800501820009e007800808f5000e1
:102f6c0002003600a0aa2a00010037000000eb0086
:082f7c000080fa0000000600cd
:020000040000fa
:102f8400f03fb1000180b10006003500ee030900f6
:102f940000000000403fb1000180b100fbff3d0094
:102fa4001000b000203fb00002003500008009008e
:082fb40000000000000006000f
:020000040000fa
:0200000401f009
:04000000f53f0000c8
:020000040000fa
:0200000401f009
:04000400c07f0000b9
:020000040000fa
:0200000401f009
:04000800ffff0000f6
:020000040000fa
:0200000401f009
:04001400ffff0000ea
:020000040000fa
:0200000401f009
:04001800ffff0000e6
:00000001FF
