:020000040000fa
:080000000001040000000000f3
:020000040000fa
:10000800cc0400009a010000a0010000a601000035
:10001800ac010000cc040000cc040000cc040000bb
:10002800cc040000cc040000cc040000ca0100008d
:10003800cc040000cc040000cc040000cc04000078
:10004800cc040000cc040000cc040000cc04000068
:10005800cc040000cc040000cc040000cc04000058
:10006800cc040000cc040000cc040000cc04000048
:10007800cc040000cc040000cc040000cc04000038
:1000880082340000a8340000cc040000b42700002b
:10009800cc040000cc040000cc040000cc04000018
:1000a800cc040000cc040000cc040000cc04000008
:1000b800cc040000cc040000cc040000cc040000f8
:1000c800cc040000cc040000cc040000cc040000e8
:1000d800cc040000cc040000cc040000cc040000d8
:1000e800cc040000cc040000cc040000cc040000c8
:0800f800cc040000cc04000060
:020000040000fa
:10010800cc040000b2010000b8010000be010000ec
:10011800c4010000cc040000cc040000cc040000a2
:10012800cc040000cc040000cc040000ca0100008c
:10013800cc040000cc040000cc040000cc04000077
:10014800cc040000cc040000cc040000cc04000067
:10015800cc040000cc040000cc040000cc04000057
:10016800cc040000cc040000cc040000cc04000047
:10017800cc040000cc040000cc040000cc04000037
:1001880082340000a8340000cc040000b42700002a
:10019800cc040000cc040000cc040000cc04000017
:1001a800cc040000cc040000cc040000cc04000007
:1001b800cc040000cc040000cc040000cc040000f7
:1001c800cc040000cc040000cc040000cc040000e7
:1001d800cc040000cc040000cc040000cc040000d7
:1001e800cc040000cc040000cc040000cc040000c7
:0801f800cc040000cc0400005f
:020000040000fa
:10020000cf9f20000eff20000e018800000000009c
:10021000000020000000e000020032000001200089
:10022000200288000c000700e0532300010020009a
:1002300011000700000020000000e0000200320072
:100240000000020000000000043602000000000070
:100250000040da000000fe004440a900c020200059
:100260000000e0000300320000002000a001880030
:100270004440a8000000060091018800800078003a
:100280000000eb0015003700e280400032a0b4000f
:100290009101ba00e280400032a0b4009102ba009d
:1002a000e280400032a0b4000002eb00472bde00e9
:1002b000f507b200602ce10004003a000059eb00a1
:1002c0008301e900fdff3e00040037006128e100e2
:1002d000010032000082eb00040007001101ba00a7
:1002e0000200e000e8ff3a00000006003159ba00c1
:1002f0008301e9000c0032002159ba008301e900b2
:10030000080032000400e00003003a00e2804000f0
:1003100032a0b400f5ff370011d9ba008301e9001b
:10032000faff3a008100e800e180400032a0b4000a
:10033000000006000000fa008020a900ffff37003f
:100340000000fa008060a900ffff37000000fa00fb
:100350008040a900ffff37000000fa008080a9005c
:10036000ffff37000000fa008020a900ffff3700e0
:100370000000fa008060a900ffff37000000fa00cb
:100380008040a900ffff37000000fa008080a9002c
:10039000ffff37003600f800809fbe00829fbe003e
:1003a000849fbe00869fbe000000fa000060fe0031
:1003b0008460a9002a0007000080fa004f03be00f5
:1003c0004f02be004f01be004f00be003600f900d4
:1003d000004006000200fa00000f78000060fe00f6
:1003e0009e007800214f88009e007800214f8800f1
:1003f0000080fa00000006000000fa000060fe0025
:10040000204f80000080fa00000006000000fa0083
:10041000a05a2500304f880050a52a00404f880080
:100420000080fa00000006000000fa0050a52a0033
:10043000404f880050a52a00404f88000080fa00f5
:10044000000006000000fa00e629ef00e829ef00ae
:10045000e629ef00e829ef000080fa00000006001e
:100460000000fa000060fe0074180700204f8000b2
:10047000604f8800e429ef00e429ef000080fa00d3
:10048000000006000200fa000040eb00004f780078
:10049000204f800051552500810f5000060032008a
:1004a000a1aa2a00810f50000f0032000000e000d6
:1004b000190032005f0037000060fe00d1a2a900e1
:1004c000d1c2a800d662a800dd02a900ca82a80095
:1004d000d1a2a900d1c2a800d662a800dd02a9005d
:1004e000ca82a8005b0037000060fe00d662a90047
:1004f000dd02a800d1a2a800d1c2a900ca82a8002a
:10050000d662a900dd02a800d1a2a800d1c2a9002c
:10051000ca82a8004f0037000060fe00d662a90022
:10052000dd02a800d1a2a900d1c2a800ca82a900f8
:10053000d662a900dd02a800d1a2a900d1c2a800fc
:10054000ca82a900bfff0700604f8000b500070006
:10055000604f80000000e0001a003200d0168000da
:10056000680060000000e00004003200c09e20002f
:1005700027140700004f780003003700c09e2000ba
:1005800099140700004f78000060fe0030c2b300ed
:100590009e40780080cf500002003a0075000700ae
:1005a0002c0037000060fe00d1130700004f7800d8
:1005b0001e4078000004e0000100320025003700f2
:1005c000ec29ef00ec29ef008f00a800419a2000f1
:1005d000c099200033150700004f78000060fe002e
:1005e000409a200060409000e14f400002003a0035
:1005f000409a20004f1607000060fe001e40780061
:100600000004e0000100320012003700b8130700b8
:10061000004f78001e4078000004e0000100320026
:100620000c0037000060fe009b1307000060fe0016
:10063000080037000060fe00e429ef00d662a90040
:10064000dd02a800d1a2a900d1c2a800ca82a900d7
:10065000000000008eff37000000fa000060fe007e
:10066000d262a900cda2a900cdc2a900d902a900d9
:10067000d662a900dd02a800d1a2a900d1c2a800bb
:10068000ca82a900c622a800d802a800d822a800c1
:10069000d842a800d862a800c662a800c642a80036
:1006a00020032000904f8800e0012000a04f880028
:1006b000ea29ef00e629ef00e829ef000080fa00c0
:1006c000000006000000fa000060fe008f00a90094
:1006d000904f8000b617070050552500204f880026
:1006e00050552500204f8800d1a2a900d1c2a800f2
:1006f000d662a800dd02a900ca82a800d1a2a90082
:10070000d1c2a800d662a800dd02a900ca82a80052
:1007100050552500604f8800314f8000a05a2500b9
:10072000808f5000100032000060fe00d662a900e9
:10073000dd02a800d1a2a900d1c2a800ca82a900e6
:10074000d662a900dd02a800d1a2a900d1c2a800ea
:10075000ca82a900e429ef00e429ef00ec29ef00a8
:100760008f00a80001003700af1707000080fa00d3
:10077000000006000000fa000060fe008f00a900e3
:10078000a04f80008a170700a0aa2a00204f8800e7
:10079000a0aa2a00204f8800d662a900dd02a80086
:1007a000d1a2a800d1c2a900ca82a800d662a9001d
:1007b000dd02a800d1a2a800d1c2a900ca82a80067
:1007c000a0aa2a00604f8800414f800050a52a004f
:1007d000808f5000100032000060fe00d662a90039
:1007e000dd02a800d1a2a900d1c2a800ca82a90036
:1007f000d662a900dd02a800d1a2a900d1c2a8003a
:10080000ca82a900e429ef00e429ef00ec29ef00f7
:100810008f00a80001003700831707000080fa004e
:10082000000006001000fa00700798000000eb00be
:1008300020079800fe00900050552500808f500042
:1008400004003a0000c62f00f1072000008fbe0010
:1008500007003700fe009000a0aa2a00808f5000f9
:1008600048003a0000c82f00f1072000008fbe00aa
:100870000060fe00660047000002eb00230020003d
:10088000000178001e00be006d0007000060fe0041
:100890003e0090000000e800300798002200200091
:1008a0001e00be003e0007000060fe000000eb00de
:1008b000200798000f0037000060fe00001920009c
:1008c000010020000619070010c0b3002e0190009f
:1008d000810c2000810f510001003e000040eb0020
:1008e000ae0090008100e800210798000004e000bd
:1008f00006003a00013b80000000280000806000f4
:100900000000e000ecff3a000100370000000000aa
:100910003e009000000178001e00be003900070074
:100920000060fe000000eb00200798000f00370079
:100930000060fe000019200001002000e8180700f8
:1009400010c0b3002e019000810c2000810f5100d7
:1009500001003e000040eb00ae0090008100e80086
:10096000210798000004e00008003a00013b8000e5
:1009700000002800008060000000e000ecff3a006a
:1009800003003700000000000100370000000000f5
:100990000080fa00000006000040da000000fe00bf
:1009a0003200f800910188000008bb0041042400d7
:1009b0006210e10004003200000220000010e1009b
:1009c0000a003a0051042400013b88000500fc00a5
:1009d00051052000313b8800a10a2000313b8800ee
:1009e00061e7a80000000000000000003200f900ec
:1009f000000006003200f80060042400003b88007c
:100a0000f2ff37003200f800910188004100240015
:100a1000013b88000208bb00ecff37003200f80001
:100a20009101880051002400013b8800030120004f
:100a30003218bb008301e900fdff3a00e3ff3700f5
:100a40003200f800910188008002780062004000c6
:100a5000e08048003549ba003204e0000410a700e5
:100a6000100032008301e9000e0032002549ba006f
:100a70003204e0000410a7000a0032008301e900fc
:100a8000080032000408a300eeff320015c9ba00c6
:100a90003204e0000410a700020032008301e900e4
:100aa000e8ff3a003200f9000000060003f0a2005f
:100ab000889fbe008a9fbe008c1f7800f30007004d
:100ac000fa0033006450e1004f0032006420e1007e
:100ad0005200320003826c0007003b000905d00081
:100ae0000306d000820f54000c065d00020039009e
:100af00002003200890178000306780085825500e3
:100b000004003d000003fd008103fd008502ea00b2
:100b10008b854200840f720002003b0060001000d1
:100b2000e08018006011b8000005eb007a28e100b1
:100b30000a00390006007800c75ddd00f707b20043
:100b4000878075002d003700828171000a017800ce
:100b5000610560008180d1000080d3008502e9003a
:100b6000f9ff3b00060440008784480002003b0078
:100b700060041400e0841c000988a3000700320010
:100b80008a81710082817100610164008904d10051
:100b90000884d3008b05e800170037000978a3000c
:100ba00013003a000b00e000130034008b05e9004d
:100bb0000804440089844c000a4474000978a300a6
:100bc0000d003a000b00e000070034008b05e9003f
:100bd0000804440089844c0001003a000b00200006
:100be0000978a300f7ff32000001eb000200370094
:100bf000828171000a017800690007000cf0a700eb
:100c000001f0a000b20037006420e10002003a00c9
:100c1000838f6c00b20033000801be000200be00ea
:100c2000ab003700889fbe008a9fbe008c1f7800f3
:100c3000960007009d00330003866c006450e100bd
:100c40002e0032006420e100330032006150e100e8
:100c50002f0032006120e10031003200858555000f
:100c6000eb07b00009002000080420000500370051
:100c70000804440089844c000a0031000603430044
:100c800087834b000001530081815b00f8ff330034
:100c90000203be000800a0000804440089844c0040
:100ca000f6ff3900c639dd00830173000100320010
:100cb000130020008904d1000884d3000998a30000
:100cc000050032000800a7000300a0008904d1003d
:100cd0000884d3008b05e8008904d1000884d30080
:100ce0000001eb000281d2002d00070001f0a100fd
:100cf0000cf0a70001f0a000750037006420e100af
:100d0000770032000801be000200be00f7ff370086
:100d10006120e100720032006000b800f3ff37008c
:100d20000000200001f82700f0ff37000001be009e
:100d3000410007000470a70003f0a10003f8a3001e
:100d400013003a006509b1001000320009003500b7
:100d50006928e100020035000100280000000500bc
:100d600000004000818048008502e900fcff3a0055
:100d700000000600f88f4200050035008100d10018
:100d80000080d3008502e800fcff3a000000060066
:100d90008000eb00000005006011b80087003700fc
:100da00081002000618055000b003d000b002000f9
:100db00061fe2f000100e1001d00340082817100fe
:100dc000610164008904d1000884d3000000e800b8
:100dd000faff3a0071002000610064000300700017
:100de000020060000900320061044400e0844c000d
:100df0000988a500050032008b05e8006808e100bd
:100e000002003a008904d1000884d300f20f2000c8
:100e10000258e10005003d00c75ddd00f907b200a2
:100e20008980750008007800000006000bf8270094
:100e30008b00780000000500c70ade00f107b20051
:100e4000f50fb20008003200e1cf4200020032008c
:100e50000170a00024000500810f70000100320025
:100e60000408050044000500810f700002003a00ec
:100e7000140005008502e9000000400081c0480020
:100e8000fcff3b000170a000240005000004be0030
:100e9000e9ff07000003be000405be000200be001b
:100ea000e5ff0700844f7500000006000200be0049
:100eb0006450e100050036006420e10002003600c5
:100ec0000968a30001003a000800be000160a0000c
:100ed0004f0678004f05be004f04be00000006001c
:100ee000f0ff2f00f1ff2700f9ff3700889fbe00b9
:100ef0008a9fbe008c1f7800e4ff0700ebff3300e1
:100f000003866c006450e100240032006420e1009c
:100f1000270032006150e100220032006120e10030
:100f2000210032008b854200eb07b1000134b8008c
:100f3000003ab8000804420089844a00013ab80027
:100f40000030b8008880400009014a0004003300e6
:100f50000000400081804800020149008b05e90043
:100f6000c909dd0083017000010032001300200078
:100f7000c814de004814dd004709de001200b2008c
:100f8000c808de000884700085ff070001f0a1009a
:100f90000cf0a70001f0a000cdff37006120e100b8
:100fa000cfff32000801be000200be00f7ff37008d
:100fb0006150e100fcff3a00c9ff3700889fbe0086
:100fc0008a9fbe00008270000402710004827100da
:100fd000260032000004be000200be006011b8000e
:100fe0006b092000950220000182cf000a00390021
:100ff0000541b1000082cf00070039000541b10072
:101000000982cf00040039000541b1000882cf00f9
:10101000010039000541b1000542520012003200c2
:101020000a003b0082817100610164008100d100ef
:101030000080d3008984d3000884d3008b05e800a6
:101040000442e800f7ff3a000700370008044400b4
:1010500089844c0000004800818048008b05e9002d
:101060000442e900f9ff3a004dff07004f05be00ba
:081070004f04be000000060061
:020000040000fa
:1010780000c100008140000001c000008041000064
:1010880001c000008041000000c100008140000054
:1010980001c000008041000000c100008140000044
:1010a80000c100008140000001c000008041000034
:1010b80001c000008041000000c100008140000024
:1010c80000c100008140000001c000008041000014
:1010d80000c100008140000001c000008041000004
:1010e80001c000008041000000c1000081400000f4
:1010f80001c000008041000000c1000081400000e4
:1011080000c100008140000001c0000080410000d3
:1011180000c100008140000001c0000080410000c3
:1011280001c000008041000000c1000081400000b3
:1011380000c100008140000001c0000080410000a3
:1011480001c000008041000000c100008140000093
:1011580001c000008041000000c100008140000083
:1011680000c100008140000001c000008041000073
:1011780001c000008041000000c100008140000063
:1011880000c100008140000001c000008041000053
:1011980000c100008140000001c000008041000043
:1011a80001c000008041000000c100008140000033
:1011b80000c100008140000001c000008041000023
:1011c80001c000008041000000c100008140000013
:1011d80001c000008041000000c100008140000003
:1011e80000c100008140000001c0000080410000f3
:1011f80000c100008140000001c0000080410000e3
:1012080001c000008041000000c1000081400000d2
:1012180001c000008041000000c1000081400000c2
:1012280000c100008140000001c0000080410000b2
:1012380001c000008041000000c1000081400000a2
:1012480000c100008140000001c000008041000092
:1012580000c100008140000001c000008041000082
:1012680001c000008041000000c100008140000072
:1012780000c00000c1010000c303000002c200005a
:10128800c606000007c7000005c50000c40400002a
:10129800cc0c00000dcd00000fcf0000ce0e0000da
:1012a8000aca0000cb0b0000c909000008c80000ea
:1012b800d818000019d900001bdb0000da1a00005a
:1012c8001ede0000df1f0000dd1d00001cdc00002a
:1012d80014d40000d5150000d717000016d600005a
:1012e800d212000013d3000011d10000d01000006a
:1012f800f030000031f1000033f30000f23200005a
:1013080036f60000f7370000f535000034f4000029
:101318003cfc0000fd3d0000ff3f00003efe0000d9
:10132800fa3a00003bfb000039f90000f8380000e9
:1013380028e80000e9290000eb2b00002aea000059
:10134800ee2e00002fef00002ded0000ec2c000029
:10135800e424000025e5000027e70000e626000059
:1013680022e20000e3230000e121000020e0000069
:10137800a060000061a1000063a30000a262000059
:1013880066a60000a7670000a565000064a4000029
:101398006cac0000ad6d0000af6f00006eae0000d9
:1013a800aa6a00006bab000069a90000a8680000e9
:1013b80078b80000b9790000bb7b00007aba000059
:1013c800be7e00007fbf00007dbd0000bc7c000029
:1013d800b474000075b5000077b70000b676000059
:1013e80072b20000b3730000b171000070b0000069
:1013f8005090000091510000935300005292000059
:101408009656000057970000559500009454000028
:101418009c5c00005d9d00005f9f00009e5e0000d8
:101428005a9a00009b5b00009959000058980000e8
:1014380088480000498900004b8b00008a4a000058
:101448004e8e00008f4f00008d4d00004c8c000028
:101458004484000085450000874700004686000058
:101468008242000043830000418100008040000068
:10147800596f00006e67000043690000000000001b
:081488001122000033440000b2
:020000040000fa
:101490000200fa0000c0eb006ae9b7008095200066
:1014a000404b880000c0eb0074e9b700e0942000d6
:1014b000904b880020c0b30038e9b70020c0b300cb
:1014c00039e9b7003a69ef00a0c0b3003be9b700c3
:1014d0000869ef00d868ef00304e8000e0498800ce
:1014e000b0468000f0498800404e8000004a8800e5
:1014f000cac9bf0042e9b700cbc9bf0043e9b70082
:10150000604e8000714e8000304a8800414a880059
:10151000824e8000934e8000524a8800634a8800c1
:1015200010cab3007ee9b700c196200020962000c3
:10153000a5060700004f78000200370040cab3003c
:101540007ee9b7001e4078000004e000fbff3a008f
:1015500020cab3007ee9b7000080fa000000060050
:101560000400fa00000f7800110798001e007800b0
:10157000300090000000e80010407800ee4f50006e
:101580003b00320038c9bf000081fb008001eb0046
:10159000f00320000100200002027800030178001f
:1015a0008001780001007800030262000000610001
:1015b0008000eb00c000dd00000020000001be0044
:1015c0006120b8000001710081817100431add00c3
:1015d000cd12de00850272004312dd003040200093
:1015e0000100200000007200818072001e01900046
:1015f0000089be001e009000300090009e00780020
:10160000b1009000914078000174a1000148780079
:101610001e009000300090000000e80041c9b300b7
:10162000014878001e009000300090000080e80023
:1016300081c0b300014878001e0090003000900087
:101640006300400021c0b300014878001e009000f4
:1016500041c0b300414098001e0078008040eb007c
:10166000014898001e009000430a07007e003700e2
:101670001e007800300090000080e80010407800e4
:10168000e14f50003b00320038c9bf000081fb0031
:101690008001eb00f003200001002000020278002e
:1016a00003017800800178000100780003026200e5
:1016b000000061008000eb00c000dd0000002000a1
:1016c0000001be006120b80000017100818171003d
:1016d000431add00cd12de00850272004312dd00e8
:1016e0003040200001002000000072008180720064
:1016f0001e0190000089be001e0090003000900086
:101700009e007800b1009000914078000174a10023
:10171000014878001e009000300090000000e800b2
:1017200041c9b300014878001e00900030009000cd
:101730000080e80081c2b300014878001e009000dc
:10174000300090006300400080c0eb00014878004a
:101750001e00900041c0b300414098001e00780078
:101760008040eb00014898001e009000020a07002c
:101770003d00370038c9bf000081fb008001eb004d
:10178000f00320000100200002027800030178002d
:10179000800178000100780003026200000061000f
:1017a0008000eb00c000dd00000020000001be0052
:1017b0006120b8000001710081817100431add00d1
:1017c000cd12de00850272004312dd0030402000a1
:1017d0000100200000007200818072001e01900054
:1017e0000089be001e009000300090009e0078002e
:1017f000b1009000914078000174a1000148780088
:101800001e009000300090000000e800e1c8b30026
:10181000014878001e009000300090000080e80031
:10182000a14e800081407800014878001e009000a1
:101830003000900063004000a14e8000c808de0028
:1018400081407800014878001e00900041c0b3003c
:10185000414098001e0078008040eb00014898004d
:101860001e009000c40907000080fa000000060076
:101870000400fa00000f7800110798001e0078009d
:10188000300090000000e800104078000080fb006d
:10189000f00f5000fa003200f00f500003003c003f
:1018a000ee0f5000050032007c013700b004b1009b
:1018b000e10f500079013e00740137001e007800ee
:1018c0003000900064004000104078000080fb0071
:1018d000e20f50003b003200e50f50007000320074
:1018e000e10f5000ab003a0038c9bf000081fb0097
:1018f0008001eb00f00320000100200002027800cc
:101900000301780080017800010078000302620082
:10191000000061008000eb00c000dd00000020003e
:101920000001be006120b8000001710081817100da
:10193000431add00cd12de00850272004312dd0085
:101940003040200001002000000072008180720001
:101950001e0190000089be001e0090003000900023
:101960009e007800b1009000914078000174a100c1
:10197000014878001e009000300090000000e80050
:10198000e1c8b300014878001e00900030009000cc
:101990000080e800819320009140780001487800a1
:1019a0001e00900031c0b300414098001e00780036
:1019b0008040eb00014898001e0090006e0907006f
:1019c0007101370038c9bf000081fb008001eb00c6
:1019d000f0032000010020000202780003017800db
:1019e00080017800010078000302620000006100bd
:1019f0008000eb00c000dd00000020000001be0000
:101a00006120b8000001710081817100431add007e
:101a1000cd12de00850272004312dd00304020004e
:101a20000100200000007200818072001e01900001
:101a30000089be001e009000300090009e007800db
:101a4000b1009000914078000174a1000148780035
:101a50001e009000300090000000e800e1c8b300d4
:101a6000014878001e009000300090000080e800df
:101a70009193200091407800014878001e0090006a
:101a800031c0b300414098001e0078008040eb0058
:101a9000014898001e009000370907003a013700fe
:101aa00038c9bf000081fb008001eb00f00320007b
:101ab0000100200002027800030178008001780014
:101ac0000100780003026200000061008000eb006a
:101ad000c000dd00000020000001be006120b80051
:101ae0000001710081817100431add00cd12de001a
:101af000850272004312dd0030402000010020000a
:101b000000007200818072001e0190000089be00fa
:101b10001e009000300090009e007800b100900000
:101b2000914078000174a100014878001e009000e7
:101b3000300090000000e800e1c8b30001487800e0
:101b40001e009000300090000080e800a19320006b
:101b500091407800014878001e009000300090000d
:101b600063004000b1932000914078000148780064
:101b70001e00900041c0b300414098001e00780054
:101b80008040eb00014898001e009000fa08070012
:101b9000fd00370038c9bf000081fb008001eb0069
:101ba000f003200001002000020278000301780009
:101bb00080017800010078000302620000006100eb
:101bc0008000eb00c000dd00000020000001be002e
:101bd0006120b8000001710081817100431add00ad
:101be000cd12de00850272004312dd00304020007d
:101bf0000100200000007200818072001e01900030
:101c00000089be001e009000300090009e00780009
:101c1000b1009000914078000174a1000148780063
:101c20001e009000300090000000e80041c9b300a1
:101c3000014878001e009000300090000080e8000d
:101c400081c2b300014878001e009000300090006f
:101c50006300400080c0eb00014878001e00900047
:101c600041c0b300414098001e0078008040eb0066
:101c7000014898001e009000bf080700c20037000e
:101c80001e00780030009000630040001040780093
:101c90000080fb00e50f500041003e0011002000d5
:101ca0008008dd0060022000008060000000e0008d
:101cb0003b00320038c9bf000081fb008001eb000f
:101cc000f0032000010020000202780003017800e8
:101cd00080017800010078000302620000006100ca
:101ce0008000eb00c000dd00000020000001be000d
:101cf0006120b8000001710081817100431add008c
:101d0000cd12de00850272004312dd00304020005b
:101d10000100200000007200818072001e0190000e
:101d20000089be001e009000300090009e007800e8
:101d3000b1009000914078000174a1000148780042
:101d40001e009000300090000000e80041c9b30080
:101d5000014878001e009000300090000080e800ec
:101d6000e1c0b300014878001e00900030009000f0
:101d70006300400080c0eb00014878001e00900026
:101d800041c0b300414098001e0078008040eb0045
:101d9000014898001e009000770807007a0037007d
:101da00038c9bf000081fb008001eb00f003200078
:101db0000100200002027800030178008001780011
:101dc0000100780003026200000061008000eb0067
:101dd000c000dd00000020000001be006120b8004e
:101de0000001710081817100431add00cd12de0017
:101df000850272004312dd00304020000100200007
:101e000000007200818072001e0190000089be00f7
:101e10001e009000300090009e007800b1009000fd
:101e2000914078000174a100014878001e009000e4
:101e3000300090000000e80041c9b300014878007c
:101e40001e009000300090000080e80081c2b300c6
:101e5000014878001e0090003000900063004000b0
:101e600080c0eb00014878001e00900041c0b30024
:101e7000414098001e0078008040eb000148980027
:101e80001e0090003c0807003f0037009e009000b5
:101e90001e007800ab0507003b00370038c9bf00c3
:101ea0000081fb008001eb00f00320000100200016
:101eb00002027800030178008001780001007800b8
:101ec00003026200000061008000eb00c000dd0042
:101ed000000020000001be006120b8000001710078
:101ee00081817100431add00cd12de00850272008f
:101ef0004312dd003040200001002000000072008d
:101f0000818072001e0190000089be001e009000ba
:101f1000300090009e007800b10090009140780061
:101f20000174a100014878001e009000300090006c
:101f30000000e80041c9b300014878001e0090008d
:101f4000300090000080e80081c0b30001487800b4
:101f50001e009000300090006300400080c0eb0045
:101f6000014878001e00900041c0b3004140980035
:101f70001e0078008040eb00014898001e00900091
:101f8000fd070700000000000080fa0000000600c6
:101f90000400fa00000f78001107980038c9bf004c
:101fa0000081fb008001eb00f00320000100200015
:101fb00002027800030178008001780001007800b7
:101fc00003026200000061008000eb00c000dd0041
:101fd000000020000001be006120b8000001710077
:101fe00081817100431add00cd12de00850272008e
:101ff0004312dd003040200001002000000072008c
:10200000818072001e0190000089be001e009000b9
:10201000300090009e007800b10090009140780060
:102020000174a100014878001e009000300090006b
:102030000000e80041c9b300014878001e0090008c
:10204000300090000080e80081c0b30001487800b3
:102050001e009000300090006300400011c0b300eb
:10206000014878001e00900041c0b3004140980034
:102070001e0078008040eb00014898001e00900090
:10208000bd0707000080fa00000006000400fa0007
:10209000000f78001107980038c9bf000081fb00cd
:1020a0008001eb00f0032000010020000202780014
:1020b00003017800800178000100780003026200cb
:1020c000000061008000eb00c000dd000000200087
:1020d0000001be006120b800000171008181710023
:1020e000431add00cd12de00850272004312dd00ce
:1020f000304020000100200000007200818072004a
:102100001e0190000089be001e009000300090006b
:102110009e007800b1009000914078000174a10009
:10212000014878001e007800300090000000e800b0
:10213000104078000080fb00ee0f50001b003200c2
:10214000f00f500058003a001e0090003000900040
:102150000000e80001c9b300014878001e009000ab
:10216000300090000080e8009e007800b1009000f0
:10217000e580400091407800014878001e00900002
:1021800030009000630040009e007800b100900095
:10219000e680400091407800014878001e009000e1
:1021a00041c0b30041409800520037001e0090002b
:1021b000300090000000e800e1c8b300014878005a
:1021c0001e0078003000900064004000104078004d
:1021d0000080fb00e70f500003003200e80f5000c2
:1021e0000f0032001c0037001e00900030009000ed
:1021f0000080e80081c0b300014878001e00900014
:1022000030009000630040008040eb0001487800ff
:102210001e00900041c0b3004140980021003700eb
:102220001e009000300090000080e80081c0b300e4
:10223000014878001e0090003000900063004000cc
:102240008040eb00014878001e00900041c0b300c0
:1022500041409800130037001e00900030009000ad
:102260000000e80041c9b300014878001e0090005a
:10227000300090000080e80081c0b3000148780081
:102280001e009000300090006300400011c0b300b9
:10229000014878001e00900041c0b3004140980002
:1022a00000000000130037001e0090003000900076
:1022b0000000e80041c9b300014878001e0090000a
:1022c000300090000080e80081c0b3000148780031
:1022d0001e009000300090006300400011c0b30069
:1022e000014878001e00900041c0b30041409800b2
:1022f000000000001e0078008040eb0001489800bc
:102300001e0090001c0707000080fa000000060075
:102310000400fa00000f78001107980038c9bf00c8
:102320000081fb008001eb00f00320000100200091
:102330000202780003017800800178000100780033
:1023400003026200000061008000eb00c000dd00bd
:10235000000020000001be006120b80000017100f3
:1023600081817100431add00cd12de00850272000a
:102370004312dd0030402000010020000000720008
:10238000818072001e0190000089be001e00900036
:10239000300090009e007800b100900091407800dd
:1023a0000174a100014878001e0078003000900000
:1023b0000000e800104078000080fb00ee0f5000a5
:1023c00037003200f00f500074003a001e009000f9
:1023d000300090000000e80001c9b3000148780017
:1023e0001e0078003000900064004000104078002b
:1023f0000080fb00e10f50007b003a001e007800d7
:10240000300090006500400010407800e44f50001c
:102410000f003e001e007800300090006500400074
:1024200010407800d8e8b7001e00900030009000ff
:102430000080e800818d20009140780001487800fc
:102440001e00900031c0b3004140980012003700d8
:102450001e009000300090000000e80041c9b30069
:10246000014878001e009000300090000080e800d5
:1024700091c0b300014878001e0090003000900029
:102480006300400080c0eb00014878001e0090000f
:1024900041c0b300414098000000000053003700e5
:1024a0001e009000300090000000e800e1c8b3007a
:1024b000014878001e007800300090006400400061
:1024c000104078000080fb00e70f5000030032004e
:1024d000e80f50000f0032001c0037001e00900073
:1024e000300090000080e80081c0b300014878000f
:1024f0001e00900030009000630040008040eb0020
:10250000014878001e00900041c0b300414098008f
:10251000210037001e009000300090000080e8008d
:1025200081c0b300014878001e0090003000900088
:10253000630040008040eb00014878001e009000de
:1025400041c0b30041409800130037001e009000c6
:10255000300090000000e80041c9b3000148780055
:102560001e009000300090000080e80081c0b300a1
:10257000014878001e009000300090006300400089
:1025800011c0b300014878001e00900041c0b300a4
:102590004140980000000000140037001e00900029
:1025a000300090000000e80041c9b3000148780005
:1025b0001e009000300090000080e80081c0b30051
:1025c000014878001e009000300090006300400039
:1025d00011c0b300014878001e00900041c0b30054
:1025e0004140980001003700000000001e00780004
:1025f0008040eb00014898001e0090005e06070036
:102600000080fa00000006000400fa00000f7800c5
:102610001107980038c9bf000081fb008001eb0062
:10262000f00320000100200002027800030178007e
:102630008001780001007800030262000000610060
:102640008000eb00c000dd00000020000001be00a3
:102650006120b8000001710081817100431add0022
:10266000cd12de00850272004312dd0030402000f2
:102670000100200000007200818072001e019000a5
:102680000089be001e009000300090009e0078007f
:10269000b1009000914078000174a10001487800d9
:1026a0001e009000300090000000e80041c9b30017
:1026b000014878001e009000300090000080e80083
:1026c00081c0b300014878001e00900030009000e7
:1026d0006300400011c0b300014878001e00900064
:1026e00041c0b300414098001e0078008040eb00dc
:1026f000014898001e0090001f0607000080fa00a5
:10270000000006000600fa00100798002107980054
:1027100038c9bf000081fb008001eb00f0032000fe
:102720000100200002027800030178008001780097
:102730000100780003026200000061008000eb00ed
:10274000c000dd00000020000001be006120b800d4
:102750000001710081817100431add00cd12de009d
:10276000850272004312dd0030402000010020008d
:1027700000007200818072002e0190000089be006e
:102780002e009000300090009e009000b10090005c
:10279000914078000174a100014878001e0090006b
:1027a000300090000000e80010407800ee4f50002c
:1027b000e9003a002e009000300090000000e80090
:1027c000e1c8b300014878001e009000300090007e
:1027d00064004000104f78001e0090008040eb0025
:1027e000014898001e80fb00e40f500049003200b1
:1027f000e40f500007003c00e20f50001f003200c1
:10280000e20f500030003c00e10f500008003200a1
:10281000bc003700e60f500063003200e60f5000a6
:102820004e003500e70f500087003200b50037003a
:102830002e009000300090000080e800e149800008
:1028400081407800014878002e0090003000900010
:1028500063004000e1498000c808de008140780044
:10286000014878002e00900041c0b300414098001c
:102870002e009000c0050700cb0037002e0090000e
:10288000300090000080e800f1498000814078002d
:10289000014878002e009000300090006300400056
:1028a000f1498000c808de008140780001487800c6
:1028b0002e00900041c0b300414098002e009000cf
:1028c000ad050700b80037002e00900030009000e2
:1028d0000080e800014a80008140780001487800cb
:1028e0002e0090003000900063004000014a8000fc
:1028f000c808de0081407800014878002e00900072
:1029000041c0b300414098002e0090009a05070096
:10291000a50037002e009000300090000080e800f5
:102920002194200091407800014878002e0090000a
:102930003000900063004000319420009140780006
:10294000014878002e00900041c0b300414098003b
:102950002e00900088050700930037002e0090009d
:10296000300090000080e800214a8000814078001b
:10297000014878002e009000300090006300400075
:10298000214a8000c808de008140780001487800b4
:102990002e00900041c0b300414098002e009000ee
:1029a00075050700800037002e0090003000900071
:1029b0000081e800304a8000414a800000407800f1
:1029c000004978002e009000300090006301400024
:1029d000304a8000414a8000c809dd004800de001e
:1029e00000807100c808de000040780000497800cf
:1029f0002e0090003000900064014000304a8000ba
:102a0000414a80004008de0000407800004978001c
:102a10002e0090003000900065014000304a800098
:102a2000414a80004808de000040780000497800f4
:102a30002e00900061c0b300414098002e0090002d
:102a40004d050700580037002e0090003000900020
:102a50000080e800514a80008140780001487800f9
:102a60002e0090003000900063004000614a80001a
:102a700091407800014878002e00900030009000ce
:102a800064004000614a80008100e80091407800c5
:102a9000014878002e009000300090006500400052
:102aa000614a80008180e800914078000148780008
:102ab0002e0090003000900066004000614a8000c7
:102ac000e380400091407800014878002e0090009b
:102ad0003000900067004000614a8000e4804000c0
:102ae00091407800014878002e00900081c0b3002a
:102af000414098002e0090001f05070000000000d4
:102b0000290037002e009000300090000000e800ff
:102b100041c9b300014878002e00900030009000b9
:102b20000080e800e1c0b300014878002e0090006a
:102b3000300090006300400080c0eb000148780046
:102b40002e00900041c0b300414098002e0090003c
:102b500009050700140037002e0090003000900097
:102b60000000e80041c9b300014878002e00900041
:102b7000300090000080e80081c0b3000148780078
:102b80002e009000300090006300400080c0eb00f9
:102b9000014878002e00900041c0b30041409800e9
:102ba0002e009000f40407000080fa0000000600e8
:102bb0000400fa00000f78001107980038c9bf0020
:102bc0000081fb008001eb00f003200001002000e9
:102bd000020278000301780080017800010078008b
:102be00003026200000061008000eb00c000dd0015
:102bf000000020000001be006120b800000171004b
:102c000081817100431add00cd12de008502720061
:102c10004312dd003040200001002000000072005f
:102c2000818072001e0190000089be001e0090008d
:102c3000300090009e007800b10090009140780034
:102c40000174a100014878001e009000300090003f
:102c50000000e80041c9b300014878001e00900060
:102c6000300090000080e80081c0b3000148780087
:102c70001e009000300090006300400011c0b300bf
:102c8000014878001e00900041c0b3004140980008
:102c90001e0078008040eb00014898001e00900064
:102ca000b50407000080fa00000006000000fa00ea
:102cb00030c0b30008e9b7000969ef0030c8b300bd
:102cc0000ae9b700f00f200060488800f00f2000ec
:102cd0007048880020c2b30010e9b700f00f200050
:102ce00090488800f00f2000a0488800409c2000f9
:102cf000b048880010c0b30018e9b7001a29ef00e7
:102d0000f00f2000404988003629ef000080fa00cb
:102d1000000006000000fa0030c0b300d8e8b70099
:102d200010c0b300d9e8b70020c8b300dae8b70094
:102d3000f00f2000e0468800f00f2000f0468800e9
:102d400010c0b300e0e8b700f00f20001047880083
:102d5000f00f200020478800e628ef00e868ef0029
:102d6000f00f200050478800f00f2000c047880077
:102d70000629ef000080fa00000006000600fa00b5
:102d800010079800210798001e0090001000be0058
:102d90004d09dd004300de0000007100c388de0045
:102da00000407800f1c3b300014f60001e009000a6
:102db0001000be0000407800674060001047980097
:102dc00038c9bf009e4f500024003a001e409000ba
:102dd0000080fb00e50f500014003200e50f5000aa
:102de00003003c00e40f5000140032001b003700c9
:102df000e60f500009003200e70f500014003a00bf
:102e000038c9bf009e4f500013003a0001c8b300fc
:102e10001e0090001300070010003700ae00900065
:102e20001e009000c70107000c003700ae009000a4
:102e30001e009000ac03070008003700ae009000b1
:102e40001e0090004c030700000000000300370044
:102e50000000000001003700000000000080fa00c0
:102e6000000006000400fa00000f780021479800d7
:102e700038c9bf000081fb008001eb00f003200097
:102e80000100200002027800030178008001780030
:102e90000100780003026200000061008000eb0086
:102ea000c000dd00000020000001be006120b8006d
:102eb0000001710081817100431add00cd12de0036
:102ec000850272004312dd007040200001002000e6
:102ed00000007200818072001e0178000089be002f
:102ee0001e00780030009000ae409000014878004d
:102ef0001e007800300090000000e800e1498000ea
:102f000081407800014878001e0078003000900071
:102f10000080e800e1498000c808de0081407800b8
:102f2000014878001e0078003000900063014000e6
:102f3000304a8000414a8000004078000049780013
:102f40001e0078003000900064014000304a80008c
:102f5000414a8000c809dd004800de0000807100a1
:102f6000c808de0000407800004978001e007800a4
:102f70003000900065014000304a8000414a8000e6
:102f80004008de0000407800004978001e0078000c
:102f90003000900066014000304a8000414a8000c5
:102fa0004808de0000407800004978001e007800e4
:102fb00071c0b300414098001e007800ee03070086
:102fc0000080fa00000006000800fa0020079800c0
:102fd000310798000000eb00000f78002e009000f1
:102fe0008040eb00014898008040eb003e009000dc
:102ff0009cff0700f0030700200037002e00900020
:10300000004890000004e0001c0032002e009000f8
:103010001000be004d09dd004300de00000071001d
:10302000c388de0000407800f043b20020479800db
:103030002e0090001000be00004078006740600045
:10304000304798003e409000e74f50000a003a0099
:1030500081932000914078002e40900080cf500056
:1030600006003a002e0090008040eb0001489800d6
:1030700000c0eb000c00370000000000d403070084
:103080000004e000ddff3a001e0fe8001e0078009b
:10309000e10f5000d1ff34002e0090008040eb0083
:1030a000014898000040eb000080fa000000060094
:1030b0000600fa0010079800210798000040eb0076
:1030c000004f78000040eb0010479800204a800035
:1030d00061006000004078000004e0000c00320055
:1030e0001e00900030009000650040009040780085
:1030f0003bc9bf0080cf500005003200c0c0b30004
:10310000004f780010c0b300104798002900370026
:103110001e009000300090000080e8001040780011
:10312000e34f500006003a001e009000300090006f
:103130006300400010407800e14f5000050032006d
:1031400090c0b300004f780000c0eb00104798001b
:10315000180037001e00900030009000640040000e
:10316000104078000004e00005003a0090c0b30071
:10317000004f780020c0b300104798000d003700c2
:103180001e00900030009000640040001040780065
:103190008080fb0080ff2f00008060000000e000c6
:1031a0000400320020c0b300004f780020c0b300fc
:1031b000104798001e4078000004e0003b003200f9
:1031c00038c9bf000081fb008001eb00f003200044
:1031d00001002000020278000301780080017800dd
:1031e0000100780003026200000061008000eb0033
:1031f000c000dd00000020000001be006120b8001a
:103200000001710081817100431add00cd12de00e2
:10321000850272004312dd003040200001002000d2
:1032200000007200818072002e0190000089be00b3
:103230002e009000300090009e009000b1009000a1
:10324000914078000174a100014878002e009000a0
:10325000300090000000e80041c9b3000148780048
:103260002e009000300090000080e8001e4878009a
:103270002e00900030009000630040009e409000bf
:10328000014878002e00900041c0b30041409800f2
:103290001e0090008040eb00014898002e00900036
:1032a000350307000040eb000100370000c0eb00d1
:1032b0000080fa00000006000600fa0010079800df
:1032c000210798000040eb00004f78000040eb0021
:1032d000104798001e0090003000900064004000ed
:1032e000104078000004e000090032001e00900049
:1032f0003000900064004000104078008080fb00a7
:10330000f0032000008060000000e0003200320086
:1033100038c9bf000081fb008001eb00f0032000f2
:10332000010020000202780003017800800178008b
:103330000100780003026200000061008000eb00e1
:10334000c000dd00000020000001be006120b800c8
:103350000001710081817100431add00cd12de0091
:10336000850272004312dd00304020000100200081
:1033700000007200818072002e0190000089be0062
:103380002e009000300090009e009000b100900050
:10339000914078000174a100014878002e0090004f
:1033a000300090000000e800c1ccb3000148780074
:1033b0002e00900021c0b300414098001e009000f4
:1033c0008040eb00014898002e009000ea020700c0
:1033d0000040eb00590037001e00900030009000c4
:1033e00064004000104078008080fb0080ff2f00c8
:1033f000008060000000e0000500320020c0b30043
:10340000004f780020c0b300104798000c00370030
:103410001e00900030009000640040009040780052
:103420003ac9bf0000c060000004e00004003200a0
:10343000b0c0b300004f780020c0b3001047980020
:103440001e4078000004e0003b00320038c9bf0095
:103450000081fb008001eb00f00320000100200050
:1034600002027800030178008001780001007800f2
:1034700003026200000061008000eb00c000dd007c
:10348000000020000001be006120b80000017100b2
:1034900081817100431add00cd12de0085027200c9
:1034a0004312dd00304020000100200000007200c7
:1034b000818072002e0190000089be002e009000d5
:1034c000300090009e009000b10090009140780084
:1034d0000174a100014878002e0090003000900097
:1034e0000000e80041c9b300014878002e009000b8
:1034f000300090000080e8001e4878002e00900008
:1035000030009000630040009e4090000148780029
:103510002e00900041c0b300414098001e00900072
:103520008040eb00014898002e00900092020700b6
:103530000040eb000100370000c0eb000080fa0003
:10354000000006000400fa00000f78001107980040
:103550001e007800300090000000e80090407800e5
:10356000b0c4b30080cf5000ef003a009e0090003e
:103570001e007800cefe07000004e0007701320054
:103580001e00780030009000650040001040780078
:103590003be9b700a1932000914078001e0078001d
:1035a00030009000640040001040780000c07000bf
:1035b0003ae9b7001e007800300090006400400037
:1035c000104078000080fb00620060000000e00016
:1035d00056003200cffd070038c9bf008080fb00d5
:1035e000f003200000806000e046880038c9bf007a
:1035f0000081fb008001eb00f003200001002000af
:103600000202780003017800800178000100780050
:1036100003026200000061008000eb00c000dd00da
:10362000000020000001be006120b8000001710010
:10363000818171004318dd00cd10de008100700033
:103640004310dd0080007800504020000100700031
:10365000f046880038c9bf000081fb008001eb0004
:10366000f00320000100200002027800030178002e
:103670008001780001007800030262000000610010
:103680008000eb00c000dd00000020000001be0053
:103690006120b8000001710081817100431add00d2
:1036a000cd12de00850272004312dd0030402000a2
:1036b0000100200000007200818072001e01900055
:1036c0000089be001e009000300090009e0078002f
:1036d000b1009000914078000174a1000148780089
:1036e0001e009000300090000000e800b1ccb30054
:1036f000014878001e009000300090000080e80033
:103700008040eb00014878001e00900031c0b300fb
:10371000414098001e0078008040eb00014898006e
:103720001e00900014020700110137001e007800ef
:103730003000900064004000104078000080fb00e2
:1037400061006000004078000004e0006a00320080
:1037500056fd070038c9bf000081fb008001eb0067
:10376000f00320000100200002027800030178002d
:10377000800178000100780003026200000061000f
:103780008000eb00c000dd00000020000001be0052
:103790006120b80000017100818171004318dd00d3
:1037a000cd10de00810070004310dd008000780045
:1037b00030402000010070006048880038c9bf0018
:1037c0000081fb008001eb00f003200001002000dd
:1037d000020278000301780080017800010078007f
:1037e00003026200000061008000eb00c000dd0009
:1037f000000020000001be006120b800000171003f
:10380000818171004318dd00cd10de008100700061
:103810004310dd008000780040402000010070006f
:103820007048880038c9bf000081fb008001eb00b0
:10383000f00320000100200002027800030178005c
:10384000800178000100780003026200000061003e
:103850008000eb00c000dd00000020000001be0081
:103860006120b8000001710081817100431add0000
:10387000cd12de00850272004312dd0030402000d0
:103880000100200000007200818072001e01900083
:103890000089be001e009000300090009e0078005d
:1038a000b1009000914078000174a10001487800b7
:1038b0001e009000300090000000e800b1ccb30082
:1038c000014878001e009000300090000080e80061
:1038d0008040eb00014878001e00900031c0b3002a
:1038e000414098001e0078008040eb00014898009d
:1038f0001e009000a00107001e007800300090001c
:1039000064004000104078000080fb00640060000c
:103910000000e00093003a00204a80000000a00070
:10392000204a8800920037001e0078003000900086
:103930000000e80090407800c0c4b30080cf500081
:103940004a003a009e0090001e0078005afe0700d0
:103950000004e000850032001e0078003000900076
:1039600064004000104078003ae9b7001e0078007b
:103970003000900064004000104078000004e00037
:1039800004003a00214a8000e0ff2f000080600020
:10399000204a880038c9bf000081fb008001eb008d
:1039a000f0032000010020000202780003017800eb
:1039b00080017800010078000302620000006100cd
:1039c0008000eb00c000dd00000020000001be0010
:1039d0006120b8000001710081817100431add008f
:1039e000cd12de00850272004312dd00304020005f
:1039f0000100200000007200818072001e01900012
:103a00000089be001e009000300090009e007800eb
:103a1000b1009000914078000174a1000148780045
:103a20001e009000300090000000e800b1ccb30010
:103a3000014878001e009000300090000080e800ef
:103a40008040eb00014878001e00900031c0b300b8
:103a5000414098001e0078008040eb00014898002b
:103a60001e009000440107004100370038c9bf0024
:103a70000081fb008001eb00f0032000010020002a
:103a800002027800030178008001780001007800cc
:103a900003026200000061008000eb00c000dd0056
:103aa000000020000001be006120b800000171008c
:103ab00081817100431add00cd12de0085027200a3
:103ac0004312dd00304020000100200000007200a1
:103ad000818072001e0190000089be001e009000cf
:103ae000300090009e007800b10090009140780076
:103af0000174a100014878001e0090003000900081
:103b00000000e80041c9b300014878001e009000a1
:103b1000300090000080e80081c0b30001487800c8
:103b20001e009000300090006300400021c0b300f0
:103b3000014878001e00900041c0b3004140980049
:103b40001e0078008040eb00014898001e009000a5
:103b50000901070000000000050037000000000018
:103b600003003700000000000100370000000000e3
:103b70000080fa00000006000600fa001007980016
:103b8000210798001e009000300090000080e8009f
:103b9000104f78001e00900030009000630040003d
:103ba00090407800114798003ac9bf000080fb00a0
:103bb000610060000000e000420032001e80fb0057
:103bc000e20f500018003200e20f500003003c00ea
:103bd000e10f50000600320041003700e30f5000b3
:103be00015003200e50f5000210032003c00370084
:103bf0001e4090000004e00004003a00ae00900077
:103c00001e00900080fa0700350037001e4090002b
:103c1000e14f50002d003a00ae0090001e009000d1
:103c2000b8fa07002e003700ae0090001e0090008a
:103c3000dffb07002a0037001e4090000004e00070
:103c400004003a00ae0090001e00900044f6070009
:103c5000230037001e409000e14f50001d003a0045
:103c6000ae0090001e00900001f707001c00370016
:103c70001e4090000004e00004003a00ae009000f6
:103c80001e009000c2f80700150037001e4090008b
:103c9000e14f500004003a00ae0090001e0090007a
:103ca000faf807000e0037001e409000e24f500067
:103cb0000a003a00ae0090001e00900094f9070040
:103cc000070037000000000005003700000000007a
:103cd0000300370000000000010037000000000072
:103ce0000080fa00000006000400fa00000f7800cf
:103cf000110798001e0078003000900010407800f6
:103d000076e9b7001e007800300090000000e8005f
:103d10001040780077e9b7001e007800300090006e
:103d20000080e8001040780078e9b7001e007800b5
:103d300030009000630040001040780079e9b7003f
:103d40001e0078008040eb0001489800d8c8bf00f2
:103d5000e34f500042003a0038c9bf000081fb0029
:103d60008001eb00f0032000010020000202780037
:103d700003017800800178000100780003026200ee
:103d8000000061008000eb00c000dd0000002000aa
:103d90000001be006120b800000171008181710046
:103da0001e0090000288be001e00900030009000af
:103db000a1c1b300014878001e00900030009000bf
:103dc0000000e800a1c2b300014878001e00900086
:103dd000300090000080e800a1c3b30001487800e3
:103de0001e0090003000900063004000a1c4b300aa
:103df000014878001e0090003000900064004000f0
:103e0000a1c5b300014878001e009000300090006a
:103e100065004000a1c6b300014878001e00900074
:103e20003000900066004000a1c7b3000148780050
:103e30001e0090003000900067004000a1c8b30051
:103e4000014878001e00900081c0b30041409800f6
:103e50001e0090004800070000000000010037002d
:103e6000000000000080fa00000006000000fa00d8
:103e70000080fa00000006000800fa001007980011
:103e800021079800624798000040eb00004f78003f
:103e90001e0090009000780000602000808060008c
:103ea00000402000808f5000020032000040eb00f4
:103eb0002f0037006ac9bf000004e0000200320092
:103ec0000040eb002a0037006e409000e84f5000a1
:103ed00026003e001e009000100078008000eb00dd
:103ee000104b8800214b88006e41900061962000a5
:103ef000824878000040eb00004f7800090037004e
:103f0000414b80001e80fb00008040009e80fb0033
:103f10002e01900081004100914078000148780016
:103f20001e4fe8006e4090009e40780080cf500009
:103f3000f3ff390000c0eb006ae9b7007ec9bf009b
:103f40008080fb00200a2000808f500004003a008f
:103f5000c19620002096200088fb0700000000008a
:103f60006a69ef0000c0eb00010037000040eb0081
:103f70000080fa00000006000200fa00000f78003e
:103f80001e007800404190001e007800b0019000b3
:103f90001e0078001000be0000007800830078004a
:103fa000570207001e0078008040eb00014898008f
:103fb0000080fa00000006000000fa00803e2000a9
:103fc000d4090700f40907000080fa000000060089
:103fd0000000fa002104800000082000008060003a
:103fe0000000e0000300320084e0a9000040eb0084
:103ff0000100370000c0eb000080fa00000006005e
:104000000000fa009163a800901c80000060a100ed
:104010000070a100901c8800911c800000fc2f0003
:10402000008060000020a000901c8800a01c800080
:104030000030a0000040a1000050a100a01c88009a
:1040400094e3a80094c3a900a01c80000000a00075
:104050000010a1000020a100a01c8800a01c80006e
:104060000080a1000090a00000a0a100a01c88007a
:104070000080fa00000006000400fa00000f78003b
:10408000110798008e23ef008e03a9003003a900ca
:104090001e00780010009000c500de00f07f2000b8
:1040a000008060004200dd008219800031002e0097
:1040b0008100610001007000801988000003a900e0
:1040c0001e00900010009000c500de00f07f200070
:1040d000008060004200dd000218800031002e00e8
:1040e0008100610001007000001888000080fa0063
:1040f000000006000400fa00000f78001107980085
:104100007e23ef00f01b80000000a1000010a00043
:104110000020a100f01b88003803a8001e007800d2
:1041200010009000c500de00f07f200000806000dd
:104130004200dd00c219800031002e0081006100c4
:1041400001007000c01988001e00780090007800ff
:10415000c908de00100090007f0060004700dd000d
:1041600000807000d01988001e00780010007800d0
:104170004300de00f043b2000080fb004a00dd0097
:10418000e2198000f13f2000810061000100700011
:10419000e01988001003a8001e0090001000900095
:1041a000c500de00f07f2000008060004200dd00de
:1041b0008218800031002e00810061000100700033
:1041c000801888001e00900090007800c908de006a
:1041d000100090007f0060004700dd00008070004c
:1041e000901888001e009000100078004300de0048
:1041f000f043b2000080fb004a00dd00a2188000fe
:10420000f13f20008100610001007000a0188800cb
:104210000080fa00000006000800fa00200798005d
:10422000310798000000eb00000f78000000eb0061
:10423000100798009623ef008760a900f00f200078
:10424000c01c88008f60a800801c80000080a10036
:104250000090a10000a0a000801c880068ff07005b
:10426000be0090002e00900083ff0700be0090006b
:104270002e0090009fff0700801c80000080a1009e
:104280000090a00000a0a100801c88000000eb00ae
:10429000000f7800a00a20001007980010003700d7
:1042a00080022000010020008d0a07000060fe004f
:1042b00010c0b300813e20001e017800810f510024
:1042c00001003e000040eb001e0fe8000004e0008b
:1042d000030032000000eb001007980006003700d2
:1042e000811c8000000e20008080600000042000ff
:1042f000808f5000eaff3a001e0090000080fa0014
:10430000000006000800fa00200798003107980016
:104310000000eb00000f78000000eb001007980091
:104320009623ef008760a900f00f2000c01c8800d2
:104330008f60a800801c80000080a1000090a10078
:1043400000a0a000801c88009163a900901c800040
:104350000060a1000070a100901c8800911c8000ea
:1043600000fc2f00008060000020a000901c88004e
:10437000a01c80000030a1000040a0000050a00060
:10438000a01c880094e3a80094c3a900a01c80008e
:104390000000a0000010a1000020a100a01c8800c7
:1043a000a01c80000080a0000090a10000a0a00040
:1043b000a01c88008e23ef008e03a9003003a90003
:1043c0008119800030002e00008060008019880074
:1043d0000003a9000118800030002e00008060005a
:1043e0000018880098a3a80096a3a900801c80004c
:1043f0000080a1000090a10000a0a100801c880006
:104400000000eb00000f7800a00a200010079800c1
:10441000100037008002200001002000300a070051
:104420000060fe0010c0b300813e20001e01780035
:10443000810f510001003e000040eb001e0fe8001c
:104440000004e000030032000000eb0010079800b9
:1044500005003700811c8000000e200000806000f5
:104460000000e000ebff3a001e0090000080fa0020
:10447000000006000600fa00204798002107980077
:104480000040eb00004f78000040eb001047980020
:104490002e4090000004e000520032002e409000b8
:1044a000e84f50004f003e002e4090006f406000eb
:1044b0000080fb006f0060004300dd00221b8000d5
:1044c00071f82f008100610001007000201b88003e
:1044d0006523a900701b80000000a0000010a00050
:1044e000701b88000040eb00004f78000040eb009c
:1044f00010479800320037001e4090000080fb00fb
:10450000e10f500012003200e10f500003003c00a8
:104510000000e0000600320025003700e20f5000e6
:1045200013003200e30f5000190032002000370062
:104530001e4090000080fb00ae0090000000400094
:104540000080400010007800301b88001800370001
:104550001e4090000080fb00ae0090000000400074
:104560000080400010007800401b880010003700d9
:104570001e4090000080fb00ae0090000000400054
:104580000080400010007800501b880008003700b1
:104590001e4090000080fb00ae0090000000400034
:1045a0000080400010007800601b880000000000c0
:1045b0001ecfe8001e4090000040e8001047980021
:1045c0002e4090009e40780080cf5000caff3900f6
:1045d000201b80004300de006f40600020479800f1
:1045e000020037000040eb00204798002e4090006a
:1045f0000080fa00000006000600fa00204798003c
:10460000210798000040eb00004f78000040eb00cd
:10461000104798002e4090000004e0005200320045
:104620002e409000e84f50004f003e002e4090007a
:104630006f4060000080fb006f0060004300dd0001
:10464000a21a800071f82f00810061000100700043
:10465000a01a88005523a900f01a80000000a100cc
:104660000010a000f01a88000040eb00004f780016
:104670000040eb0010479800320037001e409000c9
:104680000080fb00e10f500012003200e10f5000eb
:1046900003003c000000e000060032002500370067
:1046a000e20f500013003200e30f500019003200f7
:1046b000200037001e4090000080fb00ae009000fc
:1046c000000040000080400010007800b01a880010
:1046d000180037001e4090000080fb00ae009000e4
:1046e000000040000080400010007800c01a8800e0
:1046f000100037001e4090000080fb00ae009000cc
:10470000000040000080400010007800d01a8800af
:10471000080037001e4090000080fb00ae009000b3
:10472000000040000080400010007800e01a88007f
:10473000000000001ecfe8001e4090000040e8008e
:10474000104798002e4090009e40780080cf500087
:10475000caff3900a01a80004300de006f406000ed
:1047600020479800020037000040eb0020479800e7
:104770002e4090000080fa00000006000600fa00bb
:1047800020479800210798000040eb00004f780078
:104790000040eb00104798002e4090000004e0001d
:1047a000520032002e409000e84f50004f003e0073
:1047b0002e4090006f4060000080fb006f006000a2
:1047c0004300dd00221a800071f82f008100610093
:1047d00001007000201a88004523a900701b80008a
:1047e0000000a0000010a100701b88000040eb003a
:1047f000004f78000040eb0010479800320037006f
:104800001e4090000080fb00e10f500012003200bb
:10481000e10f500003003c000000e0000600320001
:1048200025003700e20f500013003200e30f500064
:1048300019003200200037001e4090000080fb006d
:10484000ae009000000040000080400010007800a2
:10485000301a8800180037001e4090000080fb00ce
:10486000ae00900000004000008040001000780082
:10487000401a8800100037001e4090000080fb00a6
:10488000ae00900000004000008040001000780062
:10489000501a8800080037001e4090000080fb007e
:1048a000ae00900000004000008040001000780042
:1048b000601a8800000000001ecfe8001e40900033
:1048c0000040e800104798002e4090009e4078007d
:1048d00080cf5000caff3900201a80004300de005c
:1048e0006f40600020479800020037000040eb0056
:1048f000204798002e4090000080fa00000006003b
:104900000600fa00000f780011079800424798004f
:104910004e409000e84f50000a013e004e4090008b
:104920000004e000070132006003a9006023a90031
:104930001e0078004600de00004078007f406000e6
:104940007f4060007f4060000080fb004b00dd0086
:10495000021b8000f17f20008100610001007000d7
:10496000001b88001e00780000407800f043b20071
:10497000f043b200f043b2008080fb00f00320005f
:10498000008060004200dd00021b800031f02f003b
:104990008100610001007000001b88004e40900003
:1049a0006f4060000080fb006f0060004300dd008e
:1049b000221b800071f82f0081006100010070004f
:1049c000201b88006523a900701b80000000a00048
:1049d0000010a000701b88004e4090000080fb007b
:1049e000e40f500032003200e40f500007003c009a
:1049f000e20f500013003200e20f50001c003c0098
:104a0000e10f50000a003200cd003700e60f5000e1
:104a100058003200e60f50003b003500e70f500011
:104a200075003200e80f500099003200c4003700d2
:104a30001e009000104078000080fb00301b8800b2
:104a4000bf0037001e0090000000e8001040780012
:104a50000080fb00c800dd001e00900010407800c0
:104a60000080fb0001007000301b8800b40037009c
:104a70001e0090000000e800104078000080fb005d
:104a8000c800dd001e009000104078000080fb0090
:104a900001007000301b88001e0090000080e800bc
:104aa000104078000080fb00401b8800a400370005
:104ab0001e0090000000e800104078000080fb001d
:104ac000c800dd001e009000104078000080fb0050
:104ad00001007000301b88001e0090006300400041
:104ae000104078000080fb00c800dd001e00900030
:104af0000080e800104078000080fb00010070009a
:104b0000401b88008e0037001e0090000000e80067
:104b1000104078000080fb00c800dd001e009000ff
:104b2000104078000080fb0001007000301b8800fe
:104b30001e00900063004000104078000080fb00e1
:104b4000c800dd001e0090000080e80010407800e2
:104b50000080fb0001007000401b88001e009000d8
:104b600064004000104078000080fb00501b88006b
:104b7000730037001e0090000000e800104078002d
:104b80000080fb00c800dd001e009000104078008f
:104b90000080fb0001007000301b88001e009000a8
:104ba00063004000104078000080fb00c800dd007a
:104bb0001e0090000080e800104078000080fb009c
:104bc00001007000401b88001e009000650040003e
:104bd000104078000080fb00c800dd001e0090003f
:104be00064004000104078000080fb00010070006d
:104bf000501b8800520037001e0090000000e800a3
:104c0000104078000080fb00c800dd001e0090000e
:104c1000104078000080fb0001007000301b88000d
:104c20001e00900063004000104078000080fb00f0
:104c3000c800dd001e0090000080e80010407800f1
:104c40000080fb0001007000401b88001e009000e7
:104c500065004000104078000080fb00c800dd00c7
:104c60001e00900064004000104078000080fb00af
:104c700001007000501b88001e009000660040007c
:104c8000104078000080fb00601b88002c0037007b
:104c90001e0090000000e800104078000080fb003b
:104ca000c800dd001e009000104078000080fb006e
:104cb00001007000301b88001e009000630040005f
:104cc000104078000080fb00c800dd001e0090004e
:104cd0000080e800104078000080fb0001007000b8
:104ce000401b88001e0090006500400010407800c6
:104cf0000080fb00c800dd001e0090006400400042
:104d0000104078000080fb0001007000501b8800fc
:104d10001e00900067004000104078000080fb00fb
:104d2000c800dd001e0090006600400010407800c2
:104d30000080fb0001007000601b88000000000084
:104d40006e63a8000040eb000080fa00000006003f
:104d50000600fa00200798000040eb00004f7800a2
:104d60000040eb00104798000040eb0020479800ff
:104d7000711c800000082000008060000000e0003e
:104d800046003200701c8000680060000000e000f7
:104d900042003a00201c8000004078006f40600014
:104da000004f78000040eb00104798000040eb00f7
:104db00020479800360037002e4090000080fb000e
:104dc000e10f500012003200e10f500003003c00e0
:104dd0000000e0000600320025003700e20f50001e
:104de00013003200e30f500019003200200037009a
:104df0002e4090000080fb00311c80002e019000ae
:104e00000000400000004100010878001a0037004f
:104e10002e4090000080fb00411c80002e0190007d
:104e20000000400000004100010878001200370037
:104e30002e4090000080fb00511c80002e0190004d
:104e40000000400000004100010878000a0037001f
:104e50002e4090000080fb00611c80002e0190001d
:104e60000000400000004100010878000200370007
:104e70000040eb000b0037001e40900000c0e8002f
:104e8000104798002e4090000040e800204798000e
:104e90001e4090009e4f5000c7ff39008ee3a900ce
:104ea0001e4078000080fa00000006000200fa00b0
:104eb000000f7800001c80004200de00f17f20001f
:104ec000010060009e0078004500dd0011019000a7
:104ed0007f0161000200700090009800111c8000aa
:104ee000f0ff2000808060001e007800f2072000a4
:104ef000028160004911dd0010027800f31f2000dc
:104f0000830162000301710002087800c708de0017
:104f1000ff806000ff8060009001900002fe2f0083
:104f2000028161008280700011009800201c8000c6
:104f30004a00de00804078001e0078000181fb00fe
:104f4000f103200081006100c308dd0090017800ba
:104f500072e02f00028161008280700001087800f9
:104f60000080fa00000006003600f800809fbe00b6
:104f7000829fbe00849fbe00869fbe000400fa0090
:104f80008760a900b01c8000640060000000e000a1
:104f9000020032009643a90005003700b01c8000d3
:104fa000680060000000e000010032009663a90084
:104fb000b01c8000610060000000e00011003200c1
:104fc0009603a900001c80004200de00f17f200053
:104fd0000100600010079800201c8000004078004d
:104fe0006f406000004f7800609d200058ff070070
:104ff0000e80e8001e417800619d20009efb0700a6
:1050000005003700b01c8000620060000000e00076
:10501000010032009623a900b11c8000000220008c
:10502000008060000000e0000200320096a3a900aa
:10503000ffff37000080fa004f03be004f02be00a2
:105040004f01be004f00be003600f90000400600d0
:105050000200fa00000f78000060fe001e007800d9
:1050600021a22a00810f50002a00320021a22a002a
:10507000810f50000a003e0021522500810f500090
:105080004a00320011a12a00810f50000e003200a8
:1050900011512500810f500031003200820037008d
:1050a00071a72a00810f500073003200d1bc2a0082
:1050b000810f50005000320051a52a00810f50008e
:1050c0006100320078003700d01680006400600074
:1050d0000000e0000d003200401680006200600019
:1050e0000000e00009003200ef0607000000e000c9
:1050f00006003200d0168000680060000000e0006a
:1051000002003a0010002000010037000000eb0010
:1051100067003700d0168000620060000000e000e9
:105120000d003200d0168000610060000000e00039
:1051300009003200dc0607000000e0000600320033
:10514000d0168000680060000000e00002003a0015
:1051500010002000010037000000eb005400370071
:10516000d0168000640060000000e0000d003200f6
:1051700040168000680060000000e0000900320076
:10518000c90607000000e00006003200d0168000cb
:10519000680060000000e000020032001000200003
:1051a000010037000000eb0041003700d0168000fe
:1051b000620060000000e0000d0032004016800038
:1051c000640060000000e00009003200b60607003d
:1051d0000000e00006003200d01680006800600089
:1051e0000000e00002003200100020000100370043
:1051f0000000eb002e003700d01680006200600037
:105200000000e00004003200d0168000640060005e
:105210000000e00008003a00d01680006200600044
:105220000000e00006003a00d01680006400600034
:105230000000e00002003a001000200001003700ea
:105240000000eb001a003700d016800062006000fa
:105250000000e00006003200d0168000610060000f
:105260000000e000020032001000200001003700c2
:105270000000eb000e003700d016800062006000d6
:105280000000e0000600320040168000640060006c
:105290000000e00002003200100020000100370092
:1052a0000000eb00020037000000fe000000eb00f1
:1052b0000080fa00000006000800fa00300798009d
:1052c0000000eb00000f78000000eb0010079800d2
:1052d0000000eb00200798000060fe003e009000f8
:1052e0005bff07000000e000270032000000eb0039
:1052f000000f78000000eb00100798000000eb00a2
:10530000200798001300370000192000010020003a
:10531000730607000060fe003e0090004cff07008f
:105320000000e000020032001e0fe800030037001a
:105330001e0090000000e800100798001e0090007a
:10534000ea0f500008003e002e0090000000e80028
:1053500020079800ae00900030062000808f50009b
:10536000e9ff36000100370000000000a005200022
:105370009e007800808f5000030036000060fe0021
:105380000080eb00010037000000eb000080fa0015
:10539000000006000000fa000060fe00d0bc2a00f9
:1053a000c5ff07000000e000050032000060fe00bd
:1053b000f00f2000c04f880010c2b3003400370047
:1053c000f829ef000060fe0020a22a00baff0700c3
:1053d0000000e000040032000060fe0012ec070054
:1053e00030c2b3002a0037000060fe0020522500c2
:1053f000b1ff07000000e000040032000060fe0082
:1054000009ec070030c2b300210037000060fe0045
:1054100010a12a00a8ff07000000e00004003200ed
:105420000060fe00f9eb070020c2b300180037004f
:105430000060fe00105125009fff07000000e00003
:10544000040032000060fe00f0eb070020c2b30051
:105450000f0037000060fe00d0168000640060007e
:105460000000e0000200320050c2b3000800370024
:105470000060fe00d0168000620060000000e000c6
:105480000200320040c2b300010037000040eb00d0
:105490000080fa00000006000000fa000060fe0034
:1054a000010607000000e000080032000060fe0076
:1054b000a1cab30000c2b3002604070051c5b3005f
:1054c000e0cfb30023040700070037000060fe00b0
:1054d00051c5b300f0cdb3001e040700a1cab3004c
:1054e00010c0b3001b0407000080fa000000060093
:1054f0000200fa000040eb00004f78000060fe0060
:10550000a4ff0700004f78000060fe001e80fb0033
:1055100031022000810f50001f00320031022000b4
:10552000810f500007003c0011022000810f500045
:105530000b00320021022000810f500012003200c7
:105540002d00370041022000810f5000160032006c
:1055500051022000810f50001d003200260037004c
:105560000060fe0051c5b30070ceb300f903070020
:10557000a1cab30020c4b300f60307000040eb004b
:10558000004f78001f0037000060fe004dec070060
:1055900000c0eb001c0037000060fe0075ec070047
:1055a00000c0eb00180037000060fe00a1cab30085
:1055b00080c0b300e703070051c5b300d0cab300f1
:1055c000e40307000040eb00004f78000d003700b7
:1055d0000060fe00a1cab30000c1b300dd030700f4
:1055e00051c5b30050cbb300da0307000040eb0015
:1055f000004f7800030037000060fe000040eb0021
:10560000004f78000040eb000080fa000000060028
:105610000400fa00100798000000eb00000f78006b
:10562000d0168000680060000000e00002003a0030
:105630000040eb006a0037001e00900090007800e8
:1056400050552500808f50002d003a000060fe006c
:1056500040168000680060000000e00006003a008c
:105660000060fe001e0090008000eb000108780042
:105670000040eb005a0037000000eb00000f7800fc
:10568000150037000060fe0070a72a000aff07001f
:105690000000e000040032000060fe0062eb070042
:1056a00030c2b3004e0037000060fe0000fa200058
:1056b000010020008a0507001e0fe80080bb2000c3
:1056c0009e007800808f500003003600a1cab3000e
:1056d00000c4b3009f03070040168000680060000c
:1056e0000000e000e7ff3a000060fe001e009000ae
:1056f0008000eb00010878000040eb003800370024
:105700000060fe001e00900090007800a0aa2a0011
:10571000808f50002e003a000000eb00000f780050
:105720000d0037000060fe0000fa2000010020009c
:105730006b0507000060fe001e0fe80080bb200024
:105740009e007800808f500003003600a1cab3008d
:1057500000c4b3007f0307004016800064006000af
:105760000000e000efff3a000060fe000000eb00e8
:10577000000f78000d0037000060fe0000fa2000e6
:1057800001002000560507000060fe001e0fe80023
:1057900080bb20009e007800808f50000300360000
:1057a000a1cab30000c4b3006a030700401680001a
:1057b000680060000000e000efff3a001e0090006b
:1057c0008000eb00010878000040eb000400370087
:1057d0001e0090008000eb00010878000040eb0004
:1057e0000080fa00000006000400fa00100798008c
:1057f0000000eb00000f78000060fe00d016800073
:10580000680060000000e000020032000040eb0091
:10581000560037001e00900090007800505525007b
:10582000808f500027003a000060fe004016800084
:10583000620060000000e00006003a000060fe0028
:105840001e0090008000eb00010878000040eb0093
:10585000460037000000eb00000f78000f00370013
:105860000060fe0050a52a0093fe07000000e00043
:10587000050032000060fe000060fe00eaea07005a
:1058800030c2b300390037000060fe0000fa20008b
:1058900001002000120507001e0fe80040168000de
:1058a000620060000000e000edff3a000060fe00d2
:1058b0001e0090008000eb00010878000040eb0023
:1058c0002a0037000060fe001e0090009000780063
:1058d000a0aa2a00808f500020003a000000eb00b0
:1058e000000f7800060037000060fe0000fa20007c
:1058f00001002000fa0407000060fe001e0fe8000f
:10590000d0168000610060000000e000f6ff3a0061
:105910000060fe000000eb00000f7800060037007a
:105920000060fe0000fa200001002000ec040700e7
:105930000060fe001e0fe80040168000620060005c
:105940000000e000f6ff3a001e0090008000eb002f
:10595000010878000040eb00040037001e009000b2
:105960008000eb00010878000040eb000080fa00a6
:10597000000006000000fa000068ef004168ef0038
:105980004268ef0000c0eb00fae9b70020cab3009c
:10599000fbe9b7004368ef009568ef009468ef00fb
:1059a0000080fa00000006000200fa00004f7800b4
:1059b0000180200091407800f0c3b30080cf5000f8
:1059c00014003e0000c8bf000040e80000e8b70037
:1059d00042c8bf008080fb00108020000080400093
:1059e0001e48780042c8bf000080fb008000e8002d
:1059f0000004200000017800110009008200d80096
:105a00008000fd000040780042e8b70000c0eb00d5
:105a1000010037000040eb000080fa0000000600a3
:105a20000200fa00000f78008f00a90000c8bf0034
:105a30000004e0001700320000c8bf000040e90089
:105a400000e8b70041c8bf008080fb001080200044
:105a500000804000904078001e00780001487800e7
:105a600041c8bf000080fb008000e8000004200067
:105a700000017800110009008200d8008000fd00bc
:105a80000040780041e8b7008f00a80000c0eb009c
:105a9000020037008f00a8000040eb000080fa00f1
:105aa000000006000e00fa005007980061079800f9
:105ab0000060fe00e2c2a900210480000004200072
